:020000040000FA
:100000000C94EB000C94850B0C94AC0B0C94D30B60
:100010000C94FA0B0C9413010C9413010C94210C06
:100020000C9413010C9413010C94C5150C945714E3
:100030000C9413010C9413010C9413010C941301F0
:100040000C9413010C9413010C9413010C941301E0
:100050000C9413010C9413010C9413010C94480C90
:100060000C9413010C9451100C9483100C941301F4
:100070000C9413010C9413010C9413010C941301B0
:100080000C9413010C9413010C9413010C941301A0
:100090000C9413010C9413010C9413010C94130190
:1000A0000C9413010C9413010C941301570D5A0D69
:1000B000490D4D0D530D7B0D7B0D7B0D5E0D620DBE
:1000C000660D6C0D700D7B0D760D000000020009B1
:1000D0000F0000030401000C0000000000000000FD
:1000E0000000000000000000000408020110408031
:1000F000401020408040800802040180402010020F
:10010000011080102040402004040404040304056E
:1001100002020202040302020202060606060606A4
:100120000404020202040400000000230026002947
:10013000002C002F0000000000250028002B002EBE
:1001400000310000000000240027002A002D0030AC
:1001500000080B0002020201000904000001020273
:1001600000000524001001052401010104240206F9
:100170000524060001070581031000400904010061
:10018000020A000000070502024000000705830282
:1001900040000012010002EF0201404F1B089200D4
:1001A000010102030112010002000000404F1B0880
:1001B00092000101020301537061726B46756E007B
:1001C0004C696C7950616420555342000403090462
:1001D0007301F50EB31011241FBECFEFDAE0DEBFBE
:1001E000CDBF12E0A0E0B1E0EAE9F4E302C005907F
:1001F0000D92A430B107D9F723E0A4E0B2E001C02A
:100200001D92A736B207E1F711E0C6EDD1E004C0B8
:100210002297FE010E946217C03DD107C9F70E94D4
:100220005C160C944B1A0C94000061E08DE00E9467
:100230007C0D26E040E855E260E070E083EB92E060
:100240000E94F50F61E084E00E947C0D60E084E094
:100250000E94B50D64E670E080E090E00E94C10C61
:100260006AE085E092E00E9470082AEF4BE766E5BD
:1002700085E092E00E94690567E271E085E092E026
:100280000E94240568E371E083EB92E00C94411135
:100290000F931F93CF93DF9300D000D01F92CDB761
:1002A000DEB79F938F938EE391E09F938F938E01A0
:1002B0000F5F1F4F1F930F930E947A17B80183EBB4
:1002C00092E00E9434110F900F900F900F900F90BA
:1002D0000F900F900F900F900F900F90DF91CF9194
:1002E0001F910F91089585E791E090930602809306
:1002F000050281E18093070283E080930802109257
:10030000090281E080931A0210920B028FE1809320
:100310000C0210920D020895AF92BF92CF92DF921D
:10032000EF92FF920F931F93CF93DF93CDB7DEB77A
:100330002B970FB6F894DEBF0FBECDBF83EB92E0D4
:100340000E94120F181619060CF05EC083EB92E0A3
:100350000E942B0F80930402843609F03DC0E12CEB
:10036000F12C8AE0A82EB12C63E471E083EB92E0DB
:100370000E943411C7010E94480183EB92E00E9461
:100380003D118701C12CD12C8FEFC81AD80AF80172
:10039000859194910E9448016EE283EB92E00E9465
:1003A0003611C601B5010E940B17892B21F483EB8E
:1003B00092E00E943D110F5F1F4F8CE3C816D104DD
:1003C00019F783EB92E00E943D1188ECF81AE114D2
:1003D00080E7F80649F618C0823751F46DE471E001
:1003E00083EB92E00E94341181E00E94D20A0CC09B
:1003F000823551F467E571E083EB92E00E9434119D
:1004000085E092E00E947E0885E092E00E94E10291
:10041000882309F463C062E671E083EB92E00E94F6
:100420003411609118024AE050E083EB92E00E94A0
:100430000B126AE383EB92E00E943611609119027D
:100440004AE050E083EB92E00E940B1268E671E014
:1004500083EB92E00E94341110E08091190218178A
:1004600080F4E12FF0E0E55EFD4F6081772767FDC6
:10047000709540E150E083EB92E00E94F6111F5F1F
:10048000ECCF83EB92E00E943D1185E791E09A83E7
:100490008983809107028B83809108028C838091ED
:1004A00009028D8380910A028E8380910B028F83D3
:1004B00080910C02888780910D02898780910E02BD
:1004C0008A8780910F028B8741E060E0CE01019620
:1004D0000E94DB0A83EB92E00E943D110E94920C85
:1004E000C0900601D0900701E0900801F09009014A
:1004F00024EF31E040E050E00E941F17C901AA2715
:1005000097FDA095BA2FC816D906EA06FB06BCF4DB
:10051000C701B6016F5F7F4F8F4F9F4F60930601FA
:1005200070930701809308019093090122E030E065
:1005300040E050E00E9441178DE00E94B50D2B96DF
:100540000FB6F894DEBF0FBECDBFDF91CF911F91E4
:100550000F91FF90EF90DF90CF90BF90AF900895F4
:1005600008958091100290911102DC01ED91FC91AF
:100570000484F585E02D0994CF93DF93EC0161E0CD
:100580008A810E94B50D89858CBD8A858DBD789440
:10059000DF91CF910895FC01F8948CB581878DB5DA
:1005A00082878CB5837F8CBD8CB58F7D8CBD8CB5DF
:1005B0008C7F8CBD8DB58E7F8DBD60E082810C946B
:1005C000B50DF89420911A02233021F420911602DF
:1005D00021110FC020911A02233011F4789407C022
:1005E000DC01ED91FC910288F389E02D099580E012
:1005F0000895DC01ED91FC910488F589E02D61E01E
:10060000099581E008958EBD00000DB407FEFDCF71
:100610008EB508951F93CF93DF93182FEB0161E000
:100620000E947C0D61E0812F0E94B50DBE018827DC
:1006300077FD8095982F0E94C10C60E0812FDF919B
:10064000CF911F910C94B50DCF93DF931F92CDB72F
:10065000DEB7DC01ED91FC910480F581E02D69832A
:1006600009956981882359F080911802861711F045
:100670006F3F29F49091140281E0911101C080E054
:100680000F90DF91CF9108952F923F924F925F92FA
:100690007F928F929F92AF92BF92CF92DF92EF9212
:1006A000FF920F931F93CF93DF93EC01962E5A0185
:1006B000722E802E10E0CE2CD12CE12CF12CE88172
:1006C000F9810190F081E02D01E0272DA501692D30
:1006D000CE0109950E94920C1B012C010E94920CE4
:1006E00062197309840995096C157D058E059F05AE
:1006F00040F4692DCE010E942403882379F381E020
:1007000004C01F5F8116D8F680E0DF91CF911F9162
:100710000F91FF90EF90DF90CF90BF90AF909F90A0
:100720008F907F905F904F903F902F900895EF9221
:10073000FF921F93CF93DF931F92CDB7DEB77C015B
:10074000DC01ED91FC91008CF18DE02D6983099520
:100750006981862F8F770E94030380E00E94030344
:10076000182FD701ED91FC91028CF38DE02DC7017C
:100770000995812F0F90DF91CF911F91FF90EF90FE
:1007800008950F931F93CF93DF9300D0CDB7DEB7BB
:100790008C01DC01ED91FC91008CF18DE02D4A8300
:1007A000698309956981862F80680E9403034A81C5
:1007B000842F0E940303D801ED91FC91028CF38DEC
:1007C000E02DC8010F900F90DF91CF911F910F91F5
:1007D00009941F93CF93DF93EC01162F80911A0297
:1007E000681709F461C0623009F440C070F46623F0
:1007F00009F444C0613009F057C061E0CE010E94A5
:100800009703482F437E44603FC06330C1F064309B
:1008100009F04AC061E0CE010E949703482F437E51
:100820004C6061E0CE010E94C1038885882381F17C
:10083000E881F9810688F789E02D61E014C061E064
:10084000CE010E949703482F437E406161E0CE01B4
:100850000E94C10388858823D9F0E881F981068840
:10086000F789E02D60E0CE01099512C061E0CE016C
:100870000E949703482F437E486006C061E0CE0186
:100880000E949703482F437E61E0CE010E94C1037E
:1008900080911A02811106C067E2CE010E9497037F
:1008A00087FFF6CF10931A02DF91CF911F91089521
:1008B000CF93DF93EC01603208F06FE16F8388859E
:1008C000882311F066956F8361E1CE010E94970342
:1008D000482F407E8F81482B61E1CE01DF91CF917F
:1008E0000C94C103CF92DF92EF92FF920F931F936C
:1008F000CF93DF93EC01F62ED42EC52E122FE88174
:10090000F9810488F589E02D61E0099567E2CE015F
:100910000E94970387FFFACF40E065E2CE010E9474
:10092000C1031E3308F01DE3E11004C0002319F0D9
:1009300000E401C000E8E881F981008CF18DE02D30
:10094000CE01099580E80E94030383E0810F0E9495
:1009500003038F2D0E9403038D810E940303802FC8
:100960000E9403030D2DED2CFC2C8E2D801B811776
:1009700030F4F70181917F010E940303F6CFE881F3
:10098000F981028CF38DE02DCE010995E881F98182
:100990000488F589E02D64E0CE0109950E94920C4F
:1009A0006B017C018B810E94EB0D892B81F0E8812A
:1009B000F9810488F589E02D61E0CE01DF91CF91C6
:1009C0001F910F91FF90EF90DF90CF9009940E94BC
:1009D000920C6C197D098E099F09683E7340810550
:1009E000910528F7DFCFCF93DF93EC011092190226
:1009F000109218021092170210921602109215020D
:100A000010921402109213021092120268E20E94D5
:100A1000970382FF0AC06DE3CE010E949703482F1F
:100A200044606DE3CE010E94C10340E465E2CE0163
:100A30000E94C103E881F9810488F589E02D63E013
:100A4000CE01DF91CF910994DF92EF92FF920F9345
:100A50001F93CF93DF93EC018B01E881F981048828
:100A6000F589E02D61E0099501151105E1F0E881B6
:100A7000F981008CF18DE02DCE0109958EEB0E945D
:100A800003037801D12CF70181917F010E940303B8
:100A9000D394F0E1DF12F7CFE881F981028CF38D76
:100AA000E02DCE0109956DE3CE010E9497038E7F64
:100AB00091E0012B09F490E0482F492B6DE3CE0122
:100AC000DF91CF911F910F91FF90EF90DF900C94E9
:100AD000C1038F929F92AF92BF92DF92EF92FF92EB
:100AE0000F931F93CF93DF93CDB7DEB7AE970FB6BB
:100AF000F894DEBF0FBECDBF7C01D42E8EE28E01F6
:100B00000F5F1F4FD801E82F1D92EA95E9F791E09A
:100B1000998334E03A8342E04B8393E09D834E8394
:100B20003F8340E4488735E039879A8796E09B8782
:100B300093E39C8737E03D8798E09F8799E0998B06
:100B400099E19B8B92E49C8B55E25D8B4E8B46E248
:100B50004F8B388F38E2398F30E13A8F39E23B8F53
:100B60003CED3C8F8D8F88E88E8F8FE28F8F8DE2EA
:100B700088A380E389A337E33BA330E93CA338E3B0
:100B80003DA39EA39CE39FA39FE898A79DE399A7FD
:100B900092E19AA79FE69BA78CA78FEF8DA76F3155
:100BA00031F06B3231F0663531F489ED05C08EE4F9
:100BB00003C08CE601C084EE8E876F3141F06B324A
:100BC00021F0663521F480E003C080E401C080ECB0
:100BD000888B2AA361E0D70112968C910E94B50DF3
:100BE00061E0F70182810E947C0D0E94C8080E948A
:100BF000920C4B015C014AEA6FE2C7010E94C103FB
:100C00006FE2C7010E9497038A3A59F00E94920C42
:100C1000681979098A099B09623371058105910573
:100C200050F30E94920C4B015C0145E56FE2C70155
:100C30000E94C1036FE2C7010E949703853559F0F6
:100C40000E94920C681979098A099B09623371051F
:100C50008105910550F3B12CF801EB0DF11DEB0D61
:100C6000F11D60816F3F31F04181C7010E94C103D6
:100C7000B394F2CF60E070E0C7010E942405D70171
:100C8000ED91FC9111970084F185E02D18966C91FF
:100C9000C7010995D701ED91FC910488F589E02DF4
:100CA00061E0C70109950E94920C4B015C0167E26B
:100CB000C7010E94970387FD0BC00E94920C681920
:100CC00079098A099B09623371058105910578F3D9
:100CD0000E94920C681979098A099B09623371058F
:100CE0008105910588F443E050E061EB72E0F70183
:100CF00084810E94350BF0921102E0921002D7011C
:100D00001596DC9281E001C080E0AE960FB6F894B3
:100D1000DEBF0FBECDBFDF91CF911F910F91FF902E
:100D2000EF90DF90BF90AF909F908F900895CF93FA
:100D3000DF93EC0161110DC064E2CE010E949703C4
:100D400090E091958195910995958795DF91CF9147
:100D5000089541E063E20E94C10363E2CE010E9474
:100D6000970381FFFACFE8CFCF93DF93EC01809117
:100D70001A028330A9F480911602811111C060E03B
:100D8000CE010E949706863A9F4F54F4E881F9817C
:100D90000488F589E02D61E0CE01099581E001C06C
:100DA00080E0DF91CF910895FF920F931F93CF932F
:100DB000DF93EC0180911A02833001F568E2CE01E5
:100DC0000E94970382FD28C019C0809119028D33BB
:100DD00030F4E0911902F0E0E55EFD4F1082E88109
:100DE000F981028CF38DE02DCE010995E881F9811E
:100DF0000488F589E02D63E0CE01099560E0CE011D
:100E00000E9497069093130280931202DF91CF9174
:100E10001F910F91FF900895E881F9810488F58969
:100E2000E02D61E0CE010995E881F981008CF18D1A
:100E3000E02DCE01099580E00E94030380E00E942E
:100E4000030380931602809116028334D0F48091BC
:100E500016028093160280E00E940303809317021B
:100E60008E81811109C0909117028D81981721F010
:100E7000809117028F3F39F480911602833018F069
:100E800017C082E4E6CF10921602E881F981028C45
:100E9000F38DE02DCE010995E881F9810288F3896F
:100EA000E02DCE01DF91CF911F910F91FF9009941A
:100EB0008091160283508093190280E00E94030300
:100EC0008093180280E00E940303982F90789093FB
:100ED0001402982F907490931502E881F98106848A
:100EE000F785E02D682FCE010995F12C809119022C
:100EF000F81608F06ACF0F2D10E080E00E9403037F
:100F0000F801E55EFD4F8083F394F0CF4F925F923E
:100F10006F927F929F92AF92BF92EF920F931F9327
:100F2000CF93DF93EC01162F5A01922E6DE30E94AE
:100F30009703482F44606DE3CE010E94C1030E94D5
:100F4000920C2B013C01CE010E94B4068823C1F013
:100F5000E881F9810088F189E02DE12C292DA50196
:100F6000612FCE010995DF91CF911F910F91EF90E5
:100F7000BF90AF909F907F906F905F904F9008953B
:100F80000E94920C6419750986099709683E73409E
:100F900081059105E8F6E881F9810480F581E02D6D
:100FA000CE01099564E670E088E00E940A03CBCF89
:100FB0004F925F926F927F929F92AF92BF92CF9229
:100FC000DF92EF92FF920F93CF93DF93EC015B01DF
:100FD000942E10921502F0901802C0901202D09038
:100FE00013026DE30E949703482F44606DE3CE0126
:100FF0000E94C1030E94920C2B013C01CE010E9471
:10100000B406882301F1E881F9810088F189E02D97
:10101000EE24E39400E0292DA5016F2DCE01099562
:10102000D0921302C0921202DF91CF910F91FF90E4
:10103000EF90DF90CF90BF90AF909F907F906F9098
:101040005F904F9008950E94920C6419750986096B
:101050009709683E734081059105A8F6E881F981FA
:101060000480F581E02DCE010995C8CFCF93DF93A1
:10107000EC016887662311F04FE001C04AE163E1AB
:10108000CE010E94C1038885882341F061E1CE0131
:101090000E949703482F4F71406602C04F814068FD
:1010A00061E1CE01DF91CF910C94C1031F93CF93E7
:1010B000DF93EC01162F662311F04DE501C045E5E5
:1010C0006AE5CE010E94C103112311F04CE701C073
:1010D00040E76CE5CE01DF91CF911F910C94C103E5
:1010E000CF93DF93EC01862F6A8361E00E94B50DF8
:1010F00061E08A81DF91CF910C947C0D0F931F9357
:10110000CF93DF93EC0111E0E881F981008CF18D40
:10111000E02DCE010995812F0E94030380E00E94FB
:101120000303082FE881F981028CF38DE02DCE01B5
:10113000099540E150E0612F83EB92E00E940B1291
:101140006DE671E083EB92E00E94341140E150E0E3
:10115000602F83EB92E00E940B126DE671E083EB4F
:1011600092E00E94341142E050E0602F83EB92E065
:101170000E9412121F5F103539F6E881F981028C46
:10118000F38DE02DCE01DF91CF911F910F91099446
:10119000CF93CFB7F89480915802811127C0E9E12D
:1011A000F1E08491EAEFF0E09491E82FF0E0EE0FA7
:1011B000FF1FED5BFE4FA591B4918C91892321F423
:1011C00061E081E10E94B50D61E081E10E947C0D4A
:1011D0008CB580618CBD8CB580648CBD61E08FE086
:1011E0000E947C0D61E080E10E947C0D809158029C
:1011F0008F5F80935802CFBFCF910895CF93CFB721
:10120000F894E6E5F8E30995CFBFCF91089540E063
:1012100050E063E00C94FE0840E050E065E00C9480
:10122000FE08FF920F931F93CF93DF938C01F62E4E
:10123000EC012A97CE018F709927892B81F483EBDB
:1012400092E00E943D1140E150E0BE0183EB92E04C
:101250000E9429126AE383EB92E00E94361160E259
:1012600083EB92E00E94361140E150E06F2D83EB5A
:1012700092E00E940B12C0FD03C0F092590212C00E
:101280006F2D772767FD7095762F6627809159021D
:10129000682B81E0F801EA50F84C0B01809357006D
:1012A000E8951124CF77DD27CF37D105D1F4E801B8
:1012B000C958D109CE010E940709CE010E940C092C
:1012C0006AE283EB92E00E94361140E150E0BE01F9
:1012D00083EB92E0DF91CF911F910F91FF900C94DF
:1012E0002912DF91CF911F910F91FF900895FC017A
:1012F000DB0185E791E09183808312968C911297B0
:10130000828313968C911397838314968C911497F0
:10131000848315968C911597858316968C911697D4
:10132000868317968C911797878318968C911897B8
:10133000808719968C91199781871A968C9182874C
:1013400008952F923F924F925F926F927F928F9269
:101350009F92AF92BF92CF92DF92EF92FF920F9344
:101360001F93CF93DF93CDB7DEB764970FB6F89492
:10137000DEBF0FBECDBF7C016A8B298B46E061ECDE
:1013800071E00E94D8070E94920C1B012C019AE088
:10139000C92ED12CA12CB12C9E012F5F3F4F4901AA
:1013A000C7010E94E1028823F9F0809118023A896E
:1013B00083131AC020911902243020F080911B025F
:1013C0008634F9F061E089890E947C0D61E08989A9
:1013D0000E94B50D61E070E080E090E00E94C10CD9
:1013E00060E089890E94B50D0E94920C6219730910
:1013F00084099509693B7B408105910588F280E06D
:10140000B8C080911C028C34E9F680911D028835A9
:10141000C9F680911E028A3309F075C0273008F49E
:1014200072C084E090E000E010E0782E4FEF480FAB
:10143000FC01E55EFD4F50815033A0F050815A33DE
:1014400088F44081AAE0B801A69F8001A79F100DF3
:10145000112400531109040F111D019688309105C4
:1014600021F707C050815A33C1F764E0761639F28C
:10147000742EE1E0E70DF0E0E55EFD4F80818A33F8
:1014800009F0BDCF2C8B0E94920C1B012C012C89E2
:101490000A151B0531F0C50101970817190799F5C1
:1014A0001BC032E0370D58017FEFA71AB70A321779
:1014B00098F4E32FF0E0E55EFD4F608136018FEF99
:1014C000681A780AC6012C8B3B8B0E9411093B8954
:1014D0003F5F63012C89EBCF1F930F93A1E9B1E02C
:1014E000BF93AF939F928F922C8B0E947A17482FB5
:1014F000B401C7010E94D8070F900F900F900F9072
:101500000F900F902C8980911E028F3309F05ACFD3
:10151000243039F446E061EC71E0C7010E94D8073D
:1015200051CF273009F04ECF80911F02853409F04A
:1015300049CF809120028F3409F044CF809121025D
:10154000863409F03FCFBAE0CB1AD10821E0C216A9
:101550002CE7D20638F047E06BE971E0C7010E9442
:10156000D8074DCF46E061EC71E0C7010E94D80773
:1015700081E064960FB6F894DEBF0FBECDBFDF9159
:10158000CF911F910F91FF90EF90DF90CF90BF9080
:10159000AF909F908F907F906F905F904F903F9013
:1015A0002F90089568EC71E083EB92E00E94411166
:1015B0000C94003808950F931F93CF93DF93CDB70A
:1015C000DEB72C970FB6F894DEBF0FBECDBF062F47
:1015D000242F309119023430E0F130911B0236345F
:1015E000C1F530911C023C34A1F530911D02383513
:1015F00081F530911E023F3361F510911802309150
:1016000019023730A1F430911F02353481F4309142
:1016100020023F3461F430912102363441F400E07D
:1016200026E041EC51E0612F0E94860712C0BC0108
:10163000CE0101962C870E9477092C85402F612FBF
:10164000CE0101960E94A109882319F0802F0E94E3
:10165000D20A2C960FB6F894DEBF0FBECDBFDF9135
:10166000CF911F910F9108950895853008F04CC0D7
:10167000E82FF0E0EE0FFF1FE65FFE4F71836083FF
:101680008230E1F018F4813069F004C0833019F140
:10169000843071F1809169008C7F842B8093690084
:1016A000E89A089580916900440F551F440F551F13
:1016B000837F842B80936900E99A08958091690063
:1016C00034E0440F551F3A95E1F78F7C842B8093CB
:1016D0006900EA9A08958091690026E0440F551F39
:1016E0002A95E1F78F73842B80936900EB9A089514
:1016F00080916A0094E0440F551F9A95E1F78F7C22
:10170000842B80936A00EE9A08951F920F920FB671
:101710000F9211242F933F934F935F936F937F9377
:101720008F939F93AF93BF93EF93FF93E0910A0141
:10173000F0910B010995FF91EF91BF91AF919F91AE
:101740008F917F916F915F914F913F912F910F906A
:101750000FBE0F901F9018951F920F920FB60F9209
:1017600011242F933F934F935F936F937F938F93A6
:101770009F93AF93BF93EF93FF93E0910C01F09190
:101780000D010995FF91EF91BF91AF919F918F91BD
:101790007F916F915F914F913F912F910F900FBE6D
:1017A0000F901F9018951F920F920FB60F92112451
:1017B0002F933F934F935F936F937F938F939F9359
:1017C000AF93BF93EF93FF93E0910E01F0910F0160
:1017D0000995FF91EF91BF91AF919F918F917F916B
:1017E0006F915F914F913F912F910F900FBE0F908E
:1017F0001F9018951F920F920FB60F9211242F93DE
:101800003F934F935F936F937F938F939F93AF9388
:10181000BF93EF93FF93E0911001F09111010995AF
:10182000FF91EF91BF91AF919F918F917F916F91B8
:101830005F914F913F912F910F900FBE0F901F908E
:1018400018951F920F920FB60F9211242F933F936A
:101850004F935F936F937F938F939F93AF93BF93B8
:10186000EF93FF93E0911201F09113010995FF911D
:10187000EF91BF91AF919F918F917F916F915F9108
:101880004F913F912F910F900FBE0F901F90189581
:101890001F920F920FB60F9211242F933F938F93A5
:1018A0009F93AF93BF9380915B0290915C02A09154
:1018B0005D02B0915E0230915A0226E0230F2D376F
:1018C00020F40296A11DB11D05C029E8230F03963F
:1018D000A11DB11D20935A0280935B0290935C027C
:1018E000A0935D02B0935E0280915F0290916002CE
:1018F000A0916102B09162020196A11DB11D809379
:101900005F0290936002A0936102B0936202BF9164
:10191000AF919F918F913F912F910F900FBE0F909C
:101920001F9018952FB7F89460915B0270915C023C
:1019300080915D0290915E022FBF08953FB7F894A9
:1019400080915F0290916002A0916102B091620269
:1019500026B5A89B05C02F3F19F00196A11DB11D0A
:101960003FBF6627782F892F9A2F620F711D811D27
:10197000911D43E0660F771F881F991F4A95D1F785
:101980000895CF92DF92EF92FF92CF93DF936B0196
:101990007C010E949E0CEB01C114D104E104F1040E
:1019A00089F00E946F160E949E0C6C1B7D0B683E96
:1019B000734090F381E0C81AD108E108F108C851DA
:1019C000DC4FEACFDF91CF91FF90EF90DF90CF9087
:1019D0000895789484B5826084BD84B5816084BDA7
:1019E00085B5826085BD85B5816085BDEEE6F0E098
:1019F000808181608083E1E8F0E0108280818260F4
:101A00008083808181608083E0E8F0E08081816074
:101A10008083E1E9F0E08081826080838081816061
:101A20008083E0E9F0E0808181608083E1ECF0E098
:101A300080818460808380818260808380818160F6
:101A40008083E3ECF0E0808181608083E0ECF0E073
:101A5000808182608083E2ECF0E08081816080831D
:101A6000EAE7F0E080818460808380818260808307
:101A700080818E7F8083808180688083089590E05C
:101A8000FC013197EF30F105B0F5EA5AFF4F0C94A5
:101A90006017809180008F7703C0809180008F7DD8
:101AA00080938000089580918000877FF9CF84B56E
:101AB0008F7702C084B58F7D84BD0895809190009A
:101AC0008F7707C0809190008F7D03C08091900038
:101AD000877F8093900008958091C0008F7703C026
:101AE0008091C0008F7D8093C00008958091C200D6
:101AF000877F8093C2000895CF93DF9390E0FC012D
:101B0000E751FF4F2491FC01E85FFE4F8491882349
:101B100049F190E0880F991FFC01ED5BFE4FA59104
:101B2000B4918B5C9E4FFC01C591D4919FB761111C
:101B300008C0F8948C91209582238C93888182230D
:101B40000AC0623051F4F8948C91322F309583237F
:101B50008C938881822B888304C0F8948C91822B8B
:101B60008C939FBFDF91CF9108950F931F93CF93D5
:101B7000DF931F92CDB7DEB7282F30E0F901E6538F
:101B8000FF4F8491F901E751FF4F1491F901E85F8C
:101B9000FE4F04910023C9F0882321F069830E943D
:101BA0003F0D6981E02FF0E0EE0FFF1FEB5CFE4F71
:101BB000A591B4919FB7F8948C91611103C01095D1
:101BC000812301C0812B8C939FBF0F90DF91CF9118
:101BD0001F910F910895CF93DF93282F30E0F901E3
:101BE000E653FF4F8491F901E751FF4FD491F9017A
:101BF000E85FFE4FC491CC2391F081110E943F0D0C
:101C0000EC2FF0E0EE0FFF1FE95DFE4FA591B491C0
:101C10002C912D2381E090E021F480E002C080E04F
:101C200090E0DF91CF910895CF93DF931F92CDB7CE
:101C3000DEB76983DC01ED91FC910280F381E02D38
:101C400041E050E0BE016F5F7F4F09950F90DF913B
:101C5000CF910895CF93DF93EC018C859D8597FFFD
:101C600005C082E00E9440139D878C878C859D85EE
:101C7000DF91CF91089583E00C94BB15FC0184851E
:101C8000958597FD06C082E00E94E81290E00196DB
:101C9000089582E00E94E81290E00895FC01848596
:101CA000958597FD05C02FEF3FEF35872487089571
:101CB00082E00C944013CF93DF93EC0180911F01DD
:101CC000882331F083E00E9471131816190634F04E
:101CD00081E090E09B838A8380E090E0DF91CF9168
:101CE0000895FC0120812E5F208342E450E061E5ED
:101CF00071E080E80C940C14FC0121818081813A10
:101D000059F4213209F05CC047E050E068E171E02D
:101D100080E00E940C1467C0813209F051C0233268
:101D200089F4838190E0982F88273281832BA0E06B
:101D3000B0E08093140190931501A0931601B09325
:101D400017010FC0203239F467E070E088E191E0BC
:101D50000E943D140AC0223221F4828180931F0127
:101D600004C02D7F203209F03EC08091180190916F
:101D70001901A0911A01B0911B01803B9440A1056B
:101D8000B10501F580911F0180FD1CC08091000804
:101D9000909101089093FF0A8093FE0A87E797E7E6
:101DA00090930108809300082BE088E190E00FB643
:101DB000F894A895809360000FBE2093600013C034
:101DC00080E0089588E10FB6F89480936000109247
:101DD00060000FBEA8958091FE0A9091FF0A909333
:101DE00001088093000881E0089510926602109225
:101DF000650288EE93E0A0E0B0E0809367029093E4
:101E00006802A0936902B0936A0286ED91E0909314
:101E10006402809363028FEF9FEF90937002809330
:101E20006F020895FC01818D228D90E0805C9F4FB0
:101E3000821B91098F7399270895FC01918D828DE2
:101E4000981731F0828DE80FF11D858D90E008958F
:101E50008FEF9FEF0895FC01918D828D981761F0AF
:101E6000828DDF01A80FB11D5D968C91928D9F5FD1
:101E70009F73928F90E008958FEF9FEF089589EA06
:101E800090E1892B49F080E090E0892B29F00E94B5
:101E9000A91081110C9400000895FC01848DDF01CC
:101EA000A80FB11DA35ABF4F2C91848D90E00196CD
:101EB0008F739927848FA689B7892C93A089B189BC
:101EC0008C9180648C93938D848D981306C00288C6
:101ED000F389E02D80818F7D80830895CF93DF93F8
:101EE000EC01888D8823C9F0EA89FB89808185FD12
:101EF00005C0A889B9898C9186FD0FC00FB607FC73
:101F0000F5CF808185FFF2CFA889B9898C9185FFB3
:101F1000EDCFCE010E944D0FE7CFDF91CF91089515
:101F2000CF92DF92FF920F931F93CF93DF931F9275
:101F3000CDB7DEB76C0181E0D60158968C935897E7
:101F40005B969C915B975C968C915C97981307C00D
:101F50005096ED91FC915197808185FD2EC0F60140
:101F6000038D10E00F5F1F4F0F731127F02EF60146
:101F7000848DF81211C00FB607FCF9CFD601509628
:101F8000ED91FC915197808185FFF1CFC601698366
:101F90000E944D0F6981EBCF838DE80FF11DE35A4D
:101FA000FF4F6083D6015B960C935B975296ED9141
:101FB000FC915397808180620CC0D6015696ED91BA
:101FC000FC91579760835096ED91FC9151978081D9
:101FD0008064808381E090E00F90DF91CF911F912A
:101FE0000F91FF90DF90CF900895BF92CF92DF9234
:101FF000EF92FF92CF93DF93EC016A017B01B22E47
:1020000060E874E88EE190E0A70196010E941F1736
:102010002150310941095109569547953795279522
:10202000E889F98982E08083211580E1380798F0FA
:10203000E889F989108260E472E48FE090E0A701FA
:1020400096010E941F1721503109410951095695E7
:10205000479537952795EC85FD853083EE85FF857F
:102060002083188EEC89FD89B082EA89FB89808102
:1020700080618083EA89FB89808188608083EA8926
:10208000FB89808180688083EA89FB8980818F7DDC
:102090008083DF91CF91FF90EF90DF90CF90BF9042
:1020A00008951F920F920FB60F9211242F938F93C2
:1020B0009F93EF93FF93E091C302F091C40280815C
:1020C000E091C902F091CA0282FD12C09081809114
:1020D000CC028F5F8F732091CD02821751F0E09177
:1020E000CC02F0E0ED54FD4F958F8093CC0201C0FF
:1020F0008081FF91EF919F918F912F910F900FBE53
:102100000F901F9018951F920F920FB60F921124E7
:102110002F933F934F935F936F937F938F939F93EF
:10212000AF93BF93EF93FF9383EB92E00E944D0F29
:10213000FF91EF91BF91AF919F918F917F916F919F
:102140005F914F913F912F910F900FBE0F901F9075
:10215000189583EB92E00E94120F21E0892B09F47D
:1021600020E0822F08951092B6021092B50288EEF8
:1021700093E0A0E0B0E08093B7029093B802A09300
:10218000B902B093BA0286EE91E09093B4028093C4
:10219000B3028DEC90E09093C0028093BF028CEC70
:1021A00090E09093C2028093C10288EC90E09093FB
:1021B000C4028093C30289EC90E09093C60280939E
:1021C000C5028AEC90E09093C8028093C7028EEC1F
:1021D00090E09093CA028093C9021092CC021092B0
:1021E000CD021092CE021092CF020895CF92DF92CC
:1021F000EF92FF920F931F93CF93DF937C016A01BD
:10220000EB0100E010E00C151D0571F06991D7019C
:10221000ED91FC910190F081E02DC7010995892B8A
:1022200019F00F5F1F4FEFCFC801DF91CF911F91C2
:102230000F91FF90EF90DF90CF9008956115710599
:1022400081F0DB010D900020E9F7AD01415051090B
:10225000461B570BDC01ED91FC910280F381E02DD0
:10226000099480E090E008950C941E11DC01ED913A
:10227000FC910190F081E02D099462EF71E00C94E3
:102280001E110F931F93CF93DF93EC010E941E1139
:102290008C01CE010E943D11800F911FDF91CF91E3
:1022A0001F910F9108958F929F92AF92BF92CF92FC
:1022B000DF92EF92FF920F931F93CF93DF93CDB7EF
:1022C000DEB7A1970FB6F894DEBF0FBECDBF7C017D
:1022D000C42EE52FCB01D22E19A221E02D1510F02E
:1022E0002AE0D22E8E010F5D1F4F8D2C912CA12C38
:1022F000B12C6C2D7E2FA50194010E941F178C2DEF
:10230000D29E80191124015011098A3014F4805D85
:1023100001C0895CF8018083211531054105510513
:1023200021F0C22EE32FCA01E4CFB801C7010E94F9
:102330001E11A1960FB6F894DEBF0FBECDBFDF9180
:10234000CF911F910F91FF90EF90DF90CF90BF90B2
:10235000AF909F908F900895CF92DF92EF92FF926F
:102360000F931F93CF93DF93EC016A017B0121153B
:10237000310579F4E881F9810190F081E02D642F35
:10238000DF91CF911F910F91FF90EF90DF90CF9051
:1023900009942A303105E9F477FF1AC06DE20E94F2
:1023A00036118C0144275527BA014C195D096E0975
:1023B0007F092AE0CE010E945311800F911FDF9107
:1023C000CF911F910F91FF90EF90DF90CF900895E4
:1023D0002AE0B701A601CE01DF91CF911F910F91A5
:1023E000FF90EF90DF90CF900C9453119A01AB01C6
:1023F000662757FD6095762F0C94AC112115310599
:1024000041F4DC01ED91FC910190F081E02D642F0D
:1024100009940C9453119A01462F50E060E070E04B
:102420000C94FE110F931F93CF93DF93EC019A014D
:10243000462F50E060E070E00E94FE118C01CE015A
:102440000E943D11800F911FDF91CF911F910F913D
:1024500008959A01AB0160E070E00C94FE116150A8
:1024600030F02091F100FC0120830196F8CF2898EC
:1024700084E6809359030895409154035091550385
:10248000209152033091530342175307B4F49091B3
:10249000E8009570E1F39091E80092FD19C08093F7
:1024A000F100809154039091550301968F73992701
:1024B000892B19F48EEF8093E8008091540390915A
:1024C00055030196909355038093540381E008953A
:1024D00080E00895CF92DF92EF92FF920F931F93C7
:1024E000CF93DF931F92CDB7DEB7082F162FF42EB0
:1024F000862F880F8E5F99830E943C1283E00E9492
:102500003C12E02EC02E9981D92E8C2D8E19811768
:1025100098F4F601F7FE02C0849101C080810E9408
:102520003C12082F80E00E943C128023FFEFCF1A5C
:10253000DF0A8111EACF01C081E00F90DF91CF91D6
:102540001F910F91FF90EF90DF90CF9008958091B1
:10255000D70081608093D70080EA8093D80089B546
:102560008F7E89BD89B5826089BD09B400FEFDCF2B
:1025700061E070E080E090E00E94C10C8091D800A2
:102580008F7C80618093D8008091E000807F809371
:10259000E0000895CF93DF931F92CDB7DEB7198285
:1025A000CE0101960E94710E0E94F716BE016F5F68
:1025B0007F4F0E94701689810F90DF91CF9108950F
:1025C0002FB7FC012083F89467706093E9000895A9
:1025D000CF93DF931F92CDB7DEB7682FCE01019660
:1025E0000E94E0128091F20099819FBF0F90DF91CD
:1025F000CF910895FF920F931F93CF93DF9300D055
:10260000CDB7DEB7F62E8A0190915803992311F0C9
:1026100057FF03C08FEF9FEF2BC0682FCE010196AD
:102620007A830E94E0128091F20090E0A8017A8102
:10263000801791070CF4AC01EF2DF72FF40E84E610
:10264000FE1639F02898809359039091F1009193E8
:10265000F7CF4115510521F08091F200882321F038
:1026600089818FBFCA0104C08BE68093E800F8CF50
:102670000F900F90DF91CF911F910F91FF900895D0
:10268000CF93DF931F92CDB7DEB741E050E0BE019C
:102690006F5F7F4F0E94FA12019719F4898190E0D1
:1026A00002C08FEF9FEF0F90DF91CF910895CF93EE
:1026B000DF931F92CDB7DEB7682FCE0101960E943F
:1026C000E0129091E800892F807295FF04C09091EC
:1026D000F20080E4891B99819FBF0F90DF91CF9119
:1026E00008956F927F928F929F92AF92BF92CF92F6
:1026F000DF92EF92FF920F931F93CF93DF931F927E
:10270000CDB7DEB7782E7B01C42EB52E809158034D
:10271000882369F0042F152F8AEFD82E872D807219
:10272000982E9AE3A92E872D8074882E11C08FEFE2
:102730009FEF57C0872D0E945713682E81110CC040
:10274000DA94A9F361E070E080E090E00E94C10CAF
:102750000115110579F73BC0282F30E00217130748
:102760000CF4602E672DCE0101960E94E01280913C
:10277000E80085FF29C0262D30E0021B130B9920AD
:1027800039F06A948FEF6816B1F01092F100F9CF2A
:10279000F701862D77FE07C0815058F094919093F1
:1027A000F1003196F9CF815020F091919093F10092
:1027B000FACFE20EF31E8091E80085FF0FC00115ED
:1027C000110511F481100AC089818FBFC1CF5D98B6
:1027D00084E680935A038C2D9B2D03C0A092E800C1
:1027E000F3CF0F90DF91CF911F910F91FF90EF905A
:1027F000DF90CF90BF90AF909F908F907F906F9021
:1028000008951092E900109255031092540390938A
:102810005303809352030895CF92DF92FF920F9358
:102820001F93CF93DF9300D0CDB7DEB7F82E8A0188
:102830006B0101151105B1F0F601F7FE02C084919C
:1028400001C0808149835A830E943C1201501109C2
:10285000FFEFCF1ADF0A49815A818111EACF8FEF4A
:102860009FEF01C0CA010F900F90DF91CF911F9190
:102870000F91FF90DF90CF9008951F93CF93DF9338
:102880001F92CDB7DEB7162F2091E80022FFFCCFB4
:10289000612F79830E942F128BEF8093E800812FA4
:1028A0007981972F0F90DF91CF911F9108951F92FB
:1028B0000F920FB60F921124DF92EF92FF920F93B7
:1028C0001F932F933F934F935F936F937F938F93B8
:1028D0009F93AF93BF93EF93FF93CF93DF93CDB7C6
:1028E000DEB76C97DEBFCDBF1092E9008091E800A3
:1028F00083FF23C168E0CE0145960E942F1282EF2C
:102900008093E8003D8937FF05C08091E80080FF93
:10291000FCCF03C08EEF8093E800832F807609F010
:10292000F0C02E894F89D88C21110CC0303829F481
:10293000809157038093F10002C01092F100109231
:10294000F100F4C0842F90E09D29213049F4311129
:10295000EDC0019709F0EAC0809157038D7F0AC04E
:10296000233059F43111E2C0019709F0DFC08091A2
:102970005703826080935703D9C0253041F480917A
:10298000E80080FFFCCF40684093E300CFC02630D2
:1029900009F08DC0EB8CFC8C22E0D2122CC080E0C0
:1029A00090E00E9401140E94CA1299E08E010F5F0C
:1029B0001F4FF801292F11922A95E9F79983DA829E
:1029C00091E09E8390EA98879AEF9987209154032B
:1029D00030915503275F3F4F3C832B838D83C70185
:1029E0000E94011449E050E0B80180E00E940C14FC
:1029F0000E94CA129BC0C7010E9401140E94F716D0
:102A0000BE016B5E7F4F0E949916009719F00CF083
:102A10008DC090C081E0D8120EC08B8D9C8D089720
:102A200019F481E0809351038091510381112FC0EB
:102A300065EA71E031C0E3E0DE127CC08F89882353
:102A400049F1823029F440E86BE080EC91E01CC051
:102A5000813029F440E868E087EB91E015C08330CD
:102A600009F068C00E94F7168E010F5F1F4FB80172
:102A70000E94B816F80101900020E9F73197E01B99
:102A8000F10B40E06E2FC8010E946A124DC063E94D
:102A900071E002C06CEC71E06115710509F44AC087
:102AA000FB01449150E080E80E940C143FC02730A5
:102AB00009F440C0283021F481E08093F10036C051
:102AC0002930A1F53370B1F5E1E2F1E081E021E0D8
:102AD00036E39081992361F08093E9002093EB0025
:102AE00091919093EC003093ED008F5F873089F7E0
:102AF0008EE78093EA001092EA008F898093580352
:102B000015C08B8D9C8D0E940114898D811105C08B
:102B1000CE0145960E947C0E07C00E94F716BE01AA
:102B20006B5E7F4F0E94D716882321F08EEF809333
:102B3000E80003C081E28093EB006C960FB6F89436
:102B4000DEBF0FBECDBFDF91CF91FF91EF91BF915F
:102B5000AF919F918F917F916F915F914F913F9135
:102B60002F911F910F91FF90EF90DF900F900FBE6C
:102B70000F901F9018958093E9008091F2008823B0
:102B800019F08AE38093E80008951F920F920FB620
:102B90000F9211242F933F934F935F936F937F93E3
:102BA0008F939F93AF93BF93CF93EF93FF93C09176
:102BB000E1008091E100837F8093E1008093E10058
:102BC000C3FF0FC01092E90081E08093EB001092E8
:102BD000EC0082E38093ED001092580388E080932C
:102BE000F000C2FF19C083E00E94BB1580915A0318
:102BF000882339F080915A03815080935A038823A7
:102C000089F180915903882339F0809159038150CB
:102C100080935903882341F1C4FF10C08091E200E2
:102C20008E7E81608093E2008091E1008F7E8093B0
:102C3000E100809156038E7E806111C0C0FF16C0F6
:102C40008091E2008E7E80618093E2008091E100BD
:102C50008E7E8093E100809156038E7E816080930A
:102C6000560304C05D9ACDCF289AD6CFFF91EF913D
:102C7000CF91BF91AF919F918F917F916F915F9114
:102C80004F913F912F910F900FBE0F901F9018956D
:102C90001092580310925703109256030E94A712E5
:102CA000E1EEF0E080818E7E80838DE08093E20013
:102CB000559A209A089508950E94E90C0E945B1687
:102CC00080E593E00E9448160E941501CFE3DFE003
:102CD0000E948C012097E1F30E943F0FF9CF0895E5
:102CE000EF92FF920F931F93CF93DF937B01FC0131
:102CF000C281D38100E010E0209781F0E881F98162
:102D00000280F381E02DB701CE01099597FD08C03F
:102D1000080F191F0884D985C02DEECFC80102C045
:102D20008FEF9FEFDF91CF911F910F91FF90EF9069
:102D300008950F931F93CF93DF938B01FC01C28102
:102D4000D381209771F0E881F9810480F581E02D2D
:102D5000B801CE010995009731F40884D985C02DBA
:102D6000F0CF80E090E0DF91CF911F910F91089517
:102D70000F931F93CF93DF938B01FC01C281D3810B
:102D8000209771F0E881F9810680F781E02DB80184
:102D9000CE010995080F111D0884D985C02DF0CFEB
:102DA000F8011082DF91CF911F910F9108950F9339
:102DB0001F93CF93DF938B01FC01C281D3812097B6
:102DC00071F0E881F9810190F081E02DB801CE0128
:102DD0000995811106C00884D985C02DF0CF80E007
:102DE00001C081E0DF91CF911F910F9108958091F3
:102DF0005F0381110DC082E080935B0384E08093C8
:102E00005C0310925E0310925D0381E080935F0388
:102E10008BE593E0089597FB072E16F4009407D0F6
:102E200077FD09D00E94661707FC05D03EF4909507
:102E300081959F4F0895709561957F4F0895A1E208
:102E40001A2EAA1BBB1BFD010DC0AA1FBB1FEE1F24
:102E5000FF1FA217B307E407F50720F0A21BB30B6F
:102E6000E40BF50B661F771F881F991F1A9469F7EB
:102E700060957095809590959B01AC01BD01CF0147
:102E80000895052E97FB1EF400940E94581757FDD5
:102E900007D00E941F1707FC03D04EF40C9458175C
:102EA00050954095309521953F4F4F4F5F4F089576
:102EB00090958095709561957F4F8F4F9F4F0895A6
:102EC000EE0FFF1F0590F491E02D0994AA1BBB1B88
:102ED00051E107C0AA1FBB1FA617B70710F0A61B1A
:102EE000B70B881F991F5A95A9F780959095BC013B
:102EF000CD010895AEE0B0E0E0E8F7E10C94221ACD
:102F00000D891E8986E08C831A8309838FEF9FE7E2
:102F10009E838D83AE01475E5F4F6F89788DCE01B2
:102F200001960E949C17EF81F885E00FF11F108237
:102F30002E96E4E00C943E1AACE0B0E0E2EAF7E151
:102F40000C94141A7C016B018A01FC011782168211
:102F5000838181FFBDC1CE0101964C01F7019381B0
:102F6000F60193FD859193FF81916F01882309F408
:102F7000ABC1853239F493FD859193FF81916F0147
:102F8000853229F4B70190E00E948419E7CF512CD3
:102F9000312C20E02032A0F48B3269F030F4803202
:102FA00059F0833269F420612CC08D3239F08033BE
:102FB00039F4216026C02260246023C0286021C02B
:102FC00027FD27C030ED380F3A3078F426FF06C0D1
:102FD000FAE05F9E300D1124532E13C08AE0389E14
:102FE000300D1124332E20620CC08E3221F426FDC8
:102FF0006BC1206406C08C3611F4206802C088368C
:1030000041F4F60193FD859193FF81916F01811148
:10301000C1CF982F9F7D9554933028F40C5F1F4F9C
:10302000FFE3F9830DC0833631F0833771F08335C8
:1030300009F05BC022C0F801808189830E5F1F4FB9
:1030400044244394512C540115C03801F2E06F0E12
:10305000711CF801A080B18026FF03C0652D70E0CF
:1030600002C06FEF7FEFC5012C870E9479192C01F8
:1030700083012C852F77222E17C03801F2E06F0EC6
:10308000711CF801A080B18026FF03C0652D70E09F
:1030900002C06FEF7FEFC5012C870E946E192C01D3
:1030A0002C852068222E830123FC1BC0832D90E0F9
:1030B00048165906B0F4B70180E290E00E948419E6
:1030C0003A94F4CFF50127FC859127FE81915F01A9
:1030D000B70190E00E94841931103A94F1E04F1A40
:1030E00051084114510471F7E5C0843611F0893656
:1030F00039F5F80127FF07C06081718182819381D2
:103100000C5F1F4F08C060817181882777FD809513
:10311000982F0E5F1F4F2F76B22E97FF09C0909504
:103120008095709561957F4F8F4F9F4F2068B22E8D
:103130002AE030E0A4010E94B619A82EA81844C0C5
:10314000853729F42F7EB22E2AE030E025C0F22FF9
:10315000F97FBF2E8F36C1F018F4883579F0B4C0EE
:10316000803719F0883721F0AFC02F2F2061B22EA1
:10317000B4FE0DC08B2D8460B82E09C024FF0AC098
:103180009F2F9660B92E06C028E030E005C020E1F0
:1031900030E002C020E132E0F801B7FE07C06081F4
:1031A0007181828193810C5F1F4F06C060817181A4
:1031B00080E090E00E5F1F4FA4010E94B619A82E78
:1031C000A818FB2DFF77BF2EB6FE0BC02B2D2E7F30
:1031D000A51450F4B4FE0AC0B2FC08C02B2D2E7EFC
:1031E00005C07A2C2B2D03C07A2C01C0752C24FF2E
:1031F0000DC0FE01EA0DF11D8081803311F4297E9E
:1032000009C022FF06C07394739404C0822F86788D
:1032100009F0739423FD13C020FF06C05A2C7314C9
:1032200018F4530C5718732C731468F4B70180E228
:1032300090E02C870E94841973942C85F5CF731429
:1032400010F4371801C0312C24FF12C0B70180E3FD
:1032500090E02C870E9484192C8522FF17C021FF43
:1032600003C088E590E002C088E790E0B7010CC099
:10327000822F867859F021FD02C080E201C08BE2E6
:1032800027FD8DE2B70190E00E948419A51438F45F
:10329000B70180E390E00E9484195A94F7CFAA9472
:1032A000F401EA0DF11D8081B70190E00E948419BC
:1032B000A110F5CF332009F451CEB70180E290E0A0
:1032C0000E9484193A94F6CFF7018681978102C053
:1032D0008FEF9FEF2C96E2E10C94301AFC010590E1
:1032E000615070400110D8F7809590958E0F9F1F08
:1032F0000895FC016150704001900110D8F780954D
:1033000090958E0F9F1F08950F931F93CF93DF9378
:10331000182F092FEB018B8181FD03C08FEF9FEFE9
:1033200020C082FF10C04E815F812C813D814217F9
:1033300053077CF4E881F9819F012F5F3F4F398368
:103340002883108306C0E885F985812F0995892B8C
:1033500029F72E813F812F5F3F4F3F832E83812F9F
:10336000902FDF91CF911F910F910895FA01AA2715
:10337000283051F1203181F1E8946F936E7F6E5FB8
:103380007F4F8F4F9F4FAF4FB1E03ED0B4E03CD066
:10339000670F781F891F9A1FA11D680F791F8A1F49
:1033A000911DA11D6A0F711D811D911DA11D20D0B0
:1033B00009F468943F912AE0269F11243019305D6A
:1033C0003193DEF6CF010895462F4770405D41935B
:1033D000B3E00FD0C9F7F6CF462F4F70405D4A33A8
:1033E00018F0495D31FD4052419302D0A9F7EACF70
:1033F000B4E0A6959795879577956795BA95C9F79F
:1034000000976105710508959B01AC010A2E069491
:103410005795479537952795BA95C9F7620F731F4A
:10342000841F951FA01D08952F923F924F925F9287
:103430006F927F928F929F92AF92BF92CF92DF92C4
:10344000EF92FF920F931F93CF93DF93CDB7DEB729
:10345000CA1BDB0B0FB6F894DEBF0FBECDBF0994BD
:103460002A88398848885F846E847D848C849B8414
:10347000AA84B984C884DF80EE80FD800C811B8122
:10348000AA81B981CE0FD11D0FB6F894DEBF0FBE51
:10349000CDBFED010895F894FFCF000067038000D1
:1034A000FFFFFFFF340B340B340B340B340BFFFFE7
:1034B000FFFF00E100000000000000C1808100006B
:1034C0000073616D706C65456E63727970744B65E5
:1034D0007900537461727400252E345800466C6173
:1034E00073683A203078005265626F6F74696E6756
:1034F0000052464D3639726567733A00476F742043
:103500005B005D203E2000202D2000000000008692
:10351000074403E102D80736085804D406B0027203
:1035200004F304E9035608CB02BC02464C583A2582
:10353000753A4F4B00464C583F4E4F4B00464C5847
:103540003F454F4600464C583F00464C583A25757B
:103550003A00464C583A494E56000A464C583F4F9E
:103560004B005245424F4F54494E47000000000067
:10357000140E5B0E3E0E4E0E2A0E3B0E0000000097
:10358000900FF610120F2B0F1D0F6E0F0D0A006E0D
:10359000616E00696E66006F7666002E0000FFFFA8
:1035A000FFFFFFFFFFFFFFFFFFFFFFFFFFFFFFFF2B
:1035B000FFFFFFFFFFFFFFFFFFFFFFFFFFFFFFFF1B
:1035C000FFFFFFFFFFFFFFFFFFFFFFFFFFFFFFFF0B
:1035D000FFFFFFFFFFFFFFFFFFFFFFFFFFFFFFFFFB
:1070000070C0000089C0000087C0000085C000007B
:1070100083C0000081C000007FC000007DC0000070
:107020007BC0000079C000000AC5000075C00000E8
:1070300073C0000071C000006FC000006DC0000090
:107040006BC000003DC1000067C0000065C00000CB
:1070500063C0000061C000005FC000005DC00000B0
:107060005BC0000059C0000057C0000055C00000C0
:1070700053C0000051C000004FC000004DC00000D0
:107080004BC0000049C0000047C0000045C00000E0
:1070900043C0000041C000003FC000003DC00000F0
:1070A0003BC0000039C0000037C00000FC010A01ED
:1070B00067BFE895112407B600FCFDCF667031F07C
:1070C000452B21F481E180935700E8950895873E90
:1070D000A03E443FA03E443FD53EF73E443F173FCD
:1070E000293F11241FBECFEFDAE0DEBFCDBF11E094
:1070F000A0E0B1E0E2E1FFE702C005900D92A83BFD
:10710000B107D9F721E0A8EBB1E001C01D92AA3C7C
:10711000B207E1F783D3FBC673CF84E08093E90025
:107120008091E80085FD0EC08091E8008B77809308
:10713000E8008091E80082FDF3CF8EB38111F9CF92
:1071400080E008958091F100089593E09093E90024
:107150009091E80095FF03C08093F100089590910D
:10716000E8009E779093E8009091E80090FDF4CFBE
:107170009EB39111F9CF0895F89410926F00109278
:107180008100109285001092840081E085BF15BEB9
:1071900047980C94000008958091BE019091BF0122
:1071A00001969093BF018093BE01292F97FF02C0E3
:1071B0002EEF291B220F281710F447980895479A9D
:1071C00008950F931F93CF93DF93E0E0F8E3459189
:1071D0005491411588E3580708F041C080E090E0E1
:1071E000C1E0D3E015E001E18417950740F59C016B
:1071F000BC0160587F4F2617370770F4F901EE5F26
:10720000F74CA591B491F9010D01C0935700E89591
:1072100011242E5F3F4FEFCFFC01D0935700E8952C
:1072200007B600FCFDCFFC0110935700E89507B6A8
:1072300000FCFDCF00935700E895C901D5CFE0E0F1
:10724000F8E383E080935700E89507B600FCFDCF94
:1072500088E18093600088E080936000FFCF81E048
:1072600090E0DF91CF911F910F91089584B7877FB0
:1072700084BF88E10FB6F89480936000109260009C
:107280000FBE90E080E80FB6F89480936100909371
:1072900061000FBE81E085BF82E085BF3F9AE1E6D5
:1072A000F0E090E8908310824798109289009AEF5E
:1072B0009093880080936F0083E080938100A7C340
:1072C0001F920F920FB60F9211242F938F939F93BB
:1072D000EF93FF931092850010928400E0E0F0E0BD
:1072E00085919491019649F08091B8019091B901EE
:1072F00001969093B9018093B801FF91EF919F910E
:107300008F912F910F900FBE0F901F90189542E014
:1073100061EC82E00FD342E161E883E00BD342E10C
:1073200060E884E007C38091C201982F9F77913273
:1073300039F59091C301903291F0913209F5813A7B
:10734000F9F48091E800877F8093E80067E070E0BF
:1073500083E091E022D48091E8008B770FC08132E6
:1073600079F48091E800877F8093E80067E070E01F
:1073700083E091E06BD48091E8008E778093E80001
:1073800008954F925F926F927F928F929F92AF92E9
:10739000BF92CF92DF92EF92FF92CF93DF9384E080
:1073A0008093E9008091E80082FF29C2B6DED82FE1
:1073B000853481F48CEA9DE09093B9018093B80103
:1073C00007B600FCFDCFF999FECF81E1809357000D
:1073D000E89503C0843521F4A0DE8DE0B6DEE6C179
:1073E0008C34D9F38035C9F3843721F484E4ADDEDD
:1073F00080E0F4CF813611F489E5F0CF813491F447
:107400008CDEC82F8ADE90E0880F991F2C2F30E089
:10741000322F2227330F822B932BAA2797FDA0957B
:10742000BA2F98C1803711F483E5D8CF833549F45A
:10743000CEEAD1E0899189DE21E0C53BD207D1F7C0
:10744000B5C1863521F481E380DE80E3C7CF833781
:1074500031F487E87ADE85E978DE8EE1BFCF8536C4
:10746000B9F4E0E0F0E083E095E080935700E89520
:1074700007B600FCFDCF90935700E89507B600FCD7
:10748000FDCFE058FF4FE11520E7F20771F7A5CFD8
:10749000823719F4E1E0F0E00EC0863419F4E0E040
:1074A000F0E009C08E3419F4E3E0F0E004C0813567
:1074B00039F4E2E0F0E089E08093570084918ECFC8
:1074C000823631F489E541DE80E03FDE80E886CF18
:1074D000823419F0873609F0D5C01092B9011092A4
:1074E000B8011BDED82E19DEE82E17DEC82F8BEB75
:1074F0008C0F823010F08FE371CFF12CFD281092A9
:107500006F00D73609F045C081E180935700E895B8
:107510005701912CD1E0A114B10409F4AFC0C0907F
:10752000BA01D090BB01E090BC01F090BD01C6341F
:10753000B9F4E92DF0E0EC29FD29849106DE9920CB
:1075400069F082E0C80ED11CE11CF11CC092BA01A6
:10755000D092BB01E092BC01F092BD019D2615C006
:10756000D701C601B695A79597958795BAD4EDDD55
:10757000E2E0CE0ED11CE11CF11CC092BA01D09207
:10758000BB01E092BC01F092BD01F1E0AF1AB1087D
:10759000C2CF8090BA019090BB01A090BC01B09086
:1075A000BD01C63421F0C12CD12CD1E030C083E024
:1075B000F40180935700E89507B600FCFDCFF3CFA8
:1075C000C63461F5DD2039F14090BA015090BB011D
:1075D0006090BC017090BD01A0DD2C2D30E0382BF7
:1075E000F2010901D0935700E8951124F2E04F0E03
:1075F000511C611C711C4092BA015092BB016092F7
:10760000BC017092BD01DD2621E0E21AF108E1140F
:10761000F104B1F627C081DDC82EF5CF7EDD682FDD
:107620008091BA019091BB01A091BC01B091BD01C4
:10763000B695A795979587955CD44091BA015091DE
:10764000BB016091BC017091BD014E5F5F4F6F4FF8
:107650007F4F4093BA015093BB016093BC0170937C
:10766000BD01D2CFC63441F485E0F40180935700C8
:10767000E89507B600FCFDCF8DE067DD82E08093E2
:107680006F0094C0833471F4C091BA01D091BB01F2
:1076900044DD90E021E0FE010C0120935700E895C5
:1076A00011249BCE833601F5C090BA01D090BB0166
:1076B000E090BC01F090BD0130DDF601E16090E0AA
:1076C00021E00C0120935700E8951124F2E0CF0E41
:1076D000D11CE11CF11CC092BA01D092BB01E09216
:1076E000BC01F092BD0179CE8D3661F4E091BA0112
:1076F000F091BB0185E080935700E89507B600FC48
:10770000FDCF6BCE823551F4E091BA01F091BB010F
:10771000C591D4918D2F19DD8C2F60CE843419F54D
:10772000FCDC682F8091BA019091BB01A091BC0153
:10773000B091BD01B695A79597958795DAD38091BD
:10774000BA019091BB01A091BC01B091BD0102961C
:10775000A11DB11D8093BA019093BB01A093BC0100
:10776000B093BD013ACE8436F1F4C090BA01D09006
:10777000BB01E090BC01F090BD01D701C601B695F8
:10778000A79597958795ADD3E0DC22E0C20ED11C7A
:10779000E11CF11CC092BA01D092BB01E092BC0185
:1077A000F092BD0103C08B3109F0A5CE83E0809338
:1077B000E9009091E8008091E8008E778093E800DE
:1077C00095FD11C08091E80080FD04C08EB3811149
:1077D000F9CF15C08091E8008E778093E80003C050
:1077E0008EB3882361F08091E80080FFF9CF84E0B8
:1077F0008093E9008091E8008B778093E800DF9127
:10780000CF91FF90EF90DF90CF90BF90AF909F907F
:107810008F907F906F905F904F9008950F931F937C
:10782000CF93DF93C0910008D09101081092010816
:107830001092000814B714BE88E10FB6F894809334
:107840006000109260000FBE11FD0DC0012F087086
:1078500013FDB7DC10FF1EC0E0E0F0E085919491CD
:107860000196C1F089DC02DD78941092B901109282
:10787000B801809102018823E9F083DD1BD3809158
:10788000B8019091B901813A9F4010F01092020125
:1078900083DCEFCF002339F3809100019091010147
:1078A000C817D90701F3E0E0F0E0859194910196C3
:1078B000C9F6D9CF8091E00081608093E0005CDC64
:1078C00080E090E0DF91CF911F910F910895292FD3
:1078D00030E02230310539F02330310549F02130D4
:1078E000310561F410C08EE390E02EE531E01EC05A
:1078F000882371F0813089F08230A1F080E090E03F
:1079000020E030E013C082E190E02CE931E00EC0CD
:1079100084E090E02AE531E009C08EE190E026E3C2
:1079200031E004C08AE290E02AE031E0FA013183DC
:10793000208308958093E900EBEEF0E08081816080
:107940008083EDEEF0E010826093EC004083809144
:10795000EE00881F8827881F08958091C20187FD47
:1079600005C08091E80080FF0DC010C08091E80044
:1079700082FD04C08EB38111F9CF08958091E80093
:107980008B7707C08EB38111ECCF08958091E8000A
:107990008E778093E80008950F931F93CF93DF9322
:1079A00041D048D0C8EDD0E088818F778883888126
:1079B0008068888388818F7D888319BC1EBA109265
:1079C000C00100EE10E0F80180818B7F8083888108
:1079D0008160888342E060E080E0ACDFE1EEF0E0CF
:1079E00080818E7F8083E2EEF0E080818160808301
:1079F000808188608083F80180818E7F8083888188
:107A000080618883DF91CF911F910F910895E7EDF9
:107A1000F0E08081816080838AE482BF81E080938E
:107A2000C101BACFE8EDF0E080818E7F80831092B3
:107A3000E20008951092DA001092E10008951F927A
:107A40000F920FB60F9211242F933F934F935F9392
:107A50006F937F938F939F93AF93BF93EF93FF9316
:107A60008091DA0080FF19C08091D80080FF15C096
:107A70008091DA008E7F8093DA008091D90019BC62
:107A800080FF09C082E089BD09B400FEFDCF81E01E
:107A90008EBB0FD202C01EBA0CD28091E10080FFD3
:107AA00017C08091E20080FF13C08091E2008E7FBA
:107AB0008093E2008091E20080618093E2008091F7
:107AC000D80080628093D80019BC85E08EBBF1D1CC
:107AD0008091E10084FF2BC08091E20084FF27C0E9
:107AE00019BC82E089BD09B400FEFDCF8091D800A9
:107AF0008F7D8093D8008091E1008F7E8093E1009C
:107B00008091E2008F7E8093E2008091E2008160AC
:107B10008093E2008091C001811104C08091E30054
:107B200087FF02C084E001C081E08EBBC2D180919A
:107B3000E10083FF21C08091E20083FF1DC080919E
:107B4000E100877F8093E10082E08EBB1092C0014C
:107B50008091E1008E7F8093E1008091E2008E7F32
:107B60008093E2008091E20080618093E20042E035
:107B700060E080E0DFDE9DD1FF91EF91BF91AF919A
:107B80009F918F917F916F915F914F913F912F9135
:107B90000F900FBE0F901F9018952091C801309143
:107BA000C9012617370748F06115710539F420918E
:107BB000E8002E772093E80001C0B901FC0120E025
:107BC00061157105A1F18EB38823E1F18530E1F1F2
:107BD0008091E80083FD34C08091E80082FF06C0F8
:107BE0008091E80082FF26C080E008958091E8003F
:107BF00080FFE6CF2091F3008091F20090E0922B7D
:107C00006115710551F08830910538F42191209368
:107C1000F100615071090196F3CF21E0089709F056
:107C200020E08091E8008E778093E800C9CF211191
:107C3000CACFD6CF8EB3882329F0853089F604C009
:107C400081E0089582E0089583E00895611571054B
:107C500029F42091E8002B772093E8006115710545
:107C600031F12EB3222361F1253061F12091E8003A
:107C700023FD22C02091E80022FFF3CFFC01CF01B9
:107C80004091F3002091F20030E0342B232B09F3D4
:107C90008091F1008193CF016150710961157105E7
:107CA00071F7D7CF8EB3882359F0853059F0809182
:107CB000E80080FFF7CF02C081E0089580E00895DA
:107CC00082E0089583E008950F931F93CF93DF938D
:107CD00000D0CDB7DEB7E2ECF1E08091F100819306
:107CE00081E0EA3CF807C9F71EDB8091E80083FFDA
:107CF000CBC02091C2013091C301832F90E08A3024
:107D0000910508F0C1C0FC01E959F74CE4C02238E4
:107D100009F0BAC08091C60187708093E900909104
:107D2000EB001092E9008091E800877F8093E800E3
:107D300095FB882780F98093F1001092F10082C0B2
:107D4000822F8D7F09F0A0C0223009F09DC0809164
:107D5000C401811124C02091C601277009F494C088
:107D60002093E9008091EB0080FF19C08091EB0027
:107D7000333011F4806211C080618093EB0081E0A8
:107D800090E0022E01C0880F0A94EAF78093EA007F
:107D90001092EA008091EB0088608093EB001092D3
:107DA000E9008091E800877F50C021116DC01091DB
:107DB000C4011F770FB7F8948091E800877F809304
:107DC000E800CBDD8091E80080FFFCCF8091E300EC
:107DD0008078812B8093E30080688093E3001123F7
:107DE00011F083E001C082E08EBB0FBF4DC0205870
:107DF000223008F049C0AE014F5F5F4F6091C6016D
:107E00008091C4019091C50162DD009709F43CC0E6
:107E10002091E800277F2093E800BC0189819A81A6
:107E2000BCDE8091E8008B778093E8002DC020387D
:107E300059F58091E800877F8093E8008091C00128
:107E40008093F1008091E8008E778093E80085DDD3
:107E50001BC0211119C09091C4019230A8F48091E7
:107E6000E800877F8093E8009093C00176DD8091E1
:107E7000C001811104C08091E30087FF02C084E04B
:107E800001C081E08EBB43DA8091E80083FF0AC025
:107E90008091EB0080628093EB008091E800877F07
:107EA0008093E8000F900F90DF91CF911F910F9179
:107EB00008950895CF938EB3882359F0C091E900B7
:107EC000C7701092E9008091E80083FDFDDEC09349
:107ED000E900CF910895EE0FFF1F0590F491E02D7A
:107EE0000994F999FECF92BD81BDF89A992780B582
:107EF0000895262FF999FECF1FBA92BD81BD20BDEE
:107F00000FB6F894FA9AF99A0FBE01960895F8946C
:107F1000FFCF777701000000000000082A0353001C
:107F20007000610072006B00460075006E0020005A
:107F300045006C006500200056004C0043005600D0
:107F400049003000310000001E034C0069006C0045
:107F50007900500061006400550053004200200089
:107F6000200020002000200020000000040309045D
:107F700009023E00020100803209040000010202F1
:107F80000100052400100104240204052406000158
:107F9000070582030800FF09040100020A0000002F
:107FA00007050402100001070583021000011201F9
:107FB0001001020000084F1B07920100020100019E
:0A7FC0004341544552494E41000070
:00000001FF
