:100000000C94EB000C94770B0C949E0B0C94C50B8A
:100010000C94EC0B0C9413010C9413010C94130C22
:100020000C9413010C9413010C94B1150C9443140B
:100030000C9413010C9413010C9413010C941301F0
:100040000C9413010C9413010C9413010C941301E0
:100050000C9413010C9413010C9413010C943A0C9E
:100060000C9413010C9443100C9475100C94130110
:100070000C9413010C9413010C9413010C941301B0
:100080000C9413010C9413010C9413010C941301A0
:100090000C9413010C9413010C9413010C94130190
:1000A0000C9413010C9413010C941301490D4C0D85
:1000B0003B0D3F0D450D6D0D6D0D6D0D500D540D2E
:1000C000580D5E0D620D6D0D680D000000020009F7
:1000D0000F0000030401000C0000000000000000FD
:1000E0000000000000000000000408020110408031
:1000F000401020408040800802040180402010020F
:10010000011080102040402004040404040304056E
:1001100002020202040302020202060606060606A4
:100120000404020202040400000000230026002947
:10013000002C002F0000000000250028002B002EBE
:1001400000310000000000240027002A002D0030AC
:1001500000080B0002020201000904000001020273
:1001600000000524001001052401010104240206F9
:100170000524060001070581031000400904010061
:10018000020A000000070502024000000705830282
:1001900040000012010002EF0201404F1B089200D4
:1001A000010102030112010002000000404F1B0880
:1001B00092000101020301537061726B46756E007B
:1001C0004C696C7950616420555342000403090462
:1001D0004801E70EA51011241FBECFEFDAE0DEBF05
:1001E000CDBF13E0A0E0B1E0E2E2F4E302C005908D
:1001F0000D92A039B107D9F724E0A0E9B3E001C01E
:100200001D92A23FB207E1F711E0C6EDD1E004C0B4
:100210002297FE010E943A17C03DD107C9F70E94FC
:1002200048160C940F1A0C94000061E08DE00E94B7
:100230006E0D26E040E855E260E070E08EE394E069
:100240000E94E70F61E084E00E946E0D60E084E0B0
:100250000E94A70D64E670E080E090E00E94B30C7D
:100260006AE081E993E00E9435082AEF4BE766E5F2
:1002700081E993E00E942E0567E271E081E993E055
:100280000E94E90468E371E08EE394E00C94261187
:100290008BEC91E0909392038093910381E18093A2
:1002A000930383E0809394031092950381E08093FD
:1002B000A603109297038FE18093980310929903FD
:1002C0000895CF92DF92EF92FF92CF93DF93CDB755
:1002D000DEB72B970FB6F894DEBF0FBECDBF8EE30F
:1002E00094E00E94040F181619060CF056C08EE315
:1002F00094E00E941D0F80939003843661F466E4BD
:1003000071E08EE394E00E9433116EE28EE394E09C
:100310000E942811FACF853669F465E571E08EE315
:1003200094E00E9426116DE671E08EE394E00E9455
:10033000331133C0893619F462E771E02AC082377D
:1003400051F46DE771E08EE394E00E94261181E0A4
:100350000E94930A22C0823559F467E871E08EE367
:1003600094E00E94261181E993E00E94430815C0A1
:1003700080538A3090F468E971E08EE394E00E9443
:100380002611609190038EE394E00E9428116BE1A6
:1003900072E08EE394E00E94261181E993E00E94CE
:1003A000A602882309F463C064EA71E08EE394E056
:1003B0000E9426116091A4034AE050E08EE394E08D
:1003C0000E94FD116AE38EE394E00E94281160917F
:1003D000A5034AE050E08EE394E00E94FD116AEA32
:1003E00071E08EE394E00E942611F12C8091A50328
:1003F000F81680F4EF2DF0E0E955FC4F6081772787
:1004000067FD709540E150E08EE394E00E94E811B2
:10041000F394ECCF8EE394E00E942F118BEC91E0EB
:100420009A838983809193038B83809194038C8337
:10043000809195038D83809196038E83809197039D
:100440008F83809198038887809199038987809111
:100450009A038A8780919B038B8741E060E0CE01FD
:1004600001960E94B00A8EE394E00E942F110E9430
:10047000840CC0900601D0900701E0900801F09034
:10048000090124EF31E040E050E00E94F716C90175
:10049000AA2797FDA095BA2FC816D906EA06FB062B
:1004A000BCF4C701B6016F5F7F4F8F4F9F4F6093C2
:1004B000060170930701809308019093090122E0DF
:1004C00030E040E050E00E9419178DE00E94A70D37
:1004D0002B960FB6F894DEBF0FBECDBFDF91CF9144
:1004E000FF90EF90DF90CF900895089580919C0346
:1004F00090919D03DC01ED91FC910484F585E02D44
:100500000994CF93DF93EC0161E08A810E94A70DEB
:1005100089858CBD8A858DBD7894DF91CF910895B2
:10052000FC01F8948CB581878DB582878CB5837F6B
:100530008CBD8CB58F7D8CBD8CB58C7F8CBD8DB505
:100540008E7F8DBD60E082810C94A70DF894209180
:10055000A603233021F42091A20321110FC0209182
:10056000A603233011F4789407C0DC01ED91FC91CF
:100570000288F389E02D099580E00895DC01ED9172
:10058000FC910488F589E02D61E0099581E00895EA
:100590008EBD00000DB407FEFDCF8EB508951F93EC
:1005A000CF93DF93182FEB0161E00E946E0D61E0A5
:1005B000812F0E94A70DBE01882777FD8095982F77
:1005C0000E94B30C60E0812FDF91CF911F910C94BA
:1005D000A70DCF93DF931F92CDB7DEB7DC01ED916E
:1005E000FC910480F581E02D698309956981882358
:1005F00059F08091A403861711F06F3F29F4909170
:10060000A00381E0911101C080E00F90DF91CF91B4
:1006100008952F923F924F925F927F928F929F9276
:10062000AF92BF92CF92DF92EF92FF920F931F9300
:10063000CF93DF93EC01962E5A01722E802E10E09C
:10064000CE2CD12CE12CF12CE881F9810190F081A4
:10065000E02D01E0272DA501692DCE0109950E940D
:10066000840C1B012C010E94840C621973098409FB
:1006700095096C157D058E059F0540F4692DCE0109
:100680000E94E902882379F381E004C01F5F81168C
:10069000D8F680E0DF91CF911F910F91FF90EF90FE
:1006A000DF90CF90BF90AF909F908F907F905F90A2
:1006B0004F903F902F900895EF92FF921F93CF930A
:1006C000DF931F92CDB7DEB77C01DC01ED91FC9189
:1006D000008CF18DE02D698309956981862F8F77D4
:1006E0000E94C80280E00E94C802182FD701ED9135
:1006F000FC91028CF38DE02DC7010995812F0F909D
:10070000DF91CF911F91FF90EF9008950F931F936A
:10071000CF93DF9300D0CDB7DEB78C01DC01ED9134
:10072000FC91008CF18DE02D4A83698309956981E4
:10073000862F80680E94C8024A81842F0E94C802C6
:10074000D801ED91FC91028CF38DE02DC8010F9042
:100750000F90DF91CF911F910F9109941F93CF9329
:10076000DF93EC01162F8091A603681709F461C08E
:10077000623009F440C070F4662309F444C061306B
:1007800009F057C061E0CE010E945C03482F437E10
:1007900044603FC06330C1F0643009F04AC061E09A
:1007A000CE010E945C03482F437E4C6061E0CE0185
:1007B0000E9486038885882381F1E881F981068873
:1007C000F789E02D61E014C061E0CE010E945C0376
:1007D000482F437E406161E0CE010E9486038885F8
:1007E0008823D9F0E881F9810688F789E02D60E057
:1007F000CE01099512C061E0CE010E945C03482F32
:10080000437E486006C061E0CE010E945C03482F31
:10081000437E61E0CE010E9486038091A603811190
:1008200006C067E2CE010E945C0387FFF6CF1093FB
:10083000A603DF91CF911F910895CF93DF93EC0131
:10084000603208F06FE16F838885882311F0669528
:100850006F8361E1CE010E945C03482F407E8F814F
:10086000482B61E1CE01DF91CF910C948603CF92AA
:10087000DF92EF92FF920F931F93CF93DF93EC01E0
:10088000F62ED42EC52E122FE881F9810488F58921
:10089000E02D61E0099567E2CE010E945C0387FFCD
:1008A000FACF40E065E2CE010E9486031E3308F0D5
:1008B0001DE3E11004C0002319F000E401C000E8CA
:1008C000E881F981008CF18DE02DCE01099580E859
:1008D0000E94C80283E0810F0E94C8028F2D0E94EF
:1008E000C8028D810E94C802802F0E94C8020D2D6F
:1008F000ED2CFC2C8E2D801B811730F4F70181919B
:100900007F010E94C802F6CFE881F981028CF38D45
:10091000E02DCE010995E881F9810488F589E02D63
:1009200064E0CE0109950E94840C6B017C018B81EF
:100930000E94DD0D892B81F0E881F9810488F58919
:10094000E02D61E0CE01DF91CF911F910F91FF90DB
:10095000EF90DF90CF9009940E94840C6C197D0970
:100960008E099F09683E73408105910528F7DFCF06
:10097000CF93DF93EC011092A5031092A403109281
:10098000A3031092A2031092A1031092A00310924D
:100990009F0310929E0368E20E945C0382FF0AC0DC
:1009A0006DE3CE010E945C03482F44606DE3CE01ED
:1009B0000E94860340E465E2CE010E948603E8813E
:1009C000F9810488F589E02D63E0CE01DF91CF91B4
:1009D0000994DF92EF92FF920F931F93CF93DF93CF
:1009E000EC018B01E881F9810488F589E02D61E053
:1009F000099501151105E1F0E881F981008CF18D6F
:100A0000E02DCE0109958EEB0E94C8027801D12C11
:100A1000F70181917F010E94C802D394F0E1DF12B7
:100A2000F7CFE881F981028CF38DE02DCE01099595
:100A30006DE3CE010E945C038E7F91E0012B09F4EF
:100A400090E0482F492B6DE3CE01DF91CF911F91AC
:100A50000F91FF90EF90DF900C9486038F929F92FE
:100A6000AF92BF92DF92EF92FF920F931F93CF93BB
:100A7000DF93CDB7DEB7AE970FB6F894DEBF0FBEEB
:100A8000CDBF7C01D42E8EE28E010F5F1F4FD801A7
:100A9000E82F1D92EA95E9F791E0998334E03A83D3
:100AA00042E04B8393E09D834E833F8340E448873D
:100AB00035E039879A8796E09B8793E39C8737E0F8
:100AC0003D8798E09F8799E0998B99E19B8B92E411
:100AD0009C8B55E25D8B4E8B46E24F8B388F38E214
:100AE000398F30E13A8F39E23B8F3CED3C8F8D8F6F
:100AF00088E88E8F8FE28F8F8DE288A380E389A3B1
:100B000037E33BA330E93CA338E33DA39EA39CE33A
:100B10009FA39FE898A79DE399A792E19AA79FE6D4
:100B20009BA78CA78FEF8DA76F3131F06B3231F01F
:100B3000663531F489ED05C08EE403C08CE601C052
:100B400084EE8E876F3141F06B3221F0663521F4EF
:100B500080E003C080E401C080EC888B2AA361E0C0
:100B6000D70112968C910E94A70D61E0F701828156
:100B70000E946E0D0E9493080E94840C4B015C0140
:100B80004AEA6FE2C7010E9486036FE2C7010E9432
:100B90005C038A3A59F00E94840C681979098A0921
:100BA0009B09623371058105910550F30E94840C05
:100BB0004B015C0145E56FE2C7010E9486036FE2CD
:100BC000C7010E945C03853559F00E94840C6819A6
:100BD00079098A099B09623371058105910550F3F2
:100BE000B12CF801EB0DF11DEB0DF11D60816F3F94
:100BF00031F04181C7010E948603B394F2CF60E0D7
:100C000070E0C7010E94E904D701ED91FC911197B2
:100C10000084F185E02D18966C91C7010995D701E4
:100C2000ED91FC910488F589E02D61E0C7010995FB
:100C30000E94840C4B015C0167E2C7010E945C03C7
:100C400087FD0BC00E94840C681979098A099B09E9
:100C5000623371058105910578F30E94840C68194F
:100C600079098A099B09623371058105910588F428
:100C700043E050E066E772E0F70184810E94270BB1
:100C8000F0929D03E0929C03D7011596DC9281E0DF
:100C900001C080E0AE960FB6F894DEBF0FBECDBFA8
:100CA000DF91CF911F910F91FF90EF90DF90BF9058
:100CB000AF909F908F900895CF93DF93EC016111D7
:100CC0000DC064E2CE010E945C0390E09195819595
:100CD000910995958795DF91CF91089541E063E261
:100CE0000E94860363E2CE010E945C0381FFFACF7B
:100CF000E8CFCF93DF93EC018091A6038330A9F472
:100D00008091A203811111C060E0CE010E945C06B7
:100D1000863A9F4F54F4E881F9810488F589E02DE3
:100D200061E0CE01099581E001C080E0DF91CF91C3
:100D30000895FF920F931F93CF93DF93EC0180915F
:100D4000A603833001F568E2CE010E945C0382FDB8
:100D500028C019C08091A5038D3330F4E091A5031C
:100D6000F0E0E955FC4F1082E881F981028CF38DA7
:100D7000E02DCE010995E881F9810488F589E02DFF
:100D800063E0CE01099560E0CE010E945C0690937D
:100D90009F0380939E03DF91CF911F910F91FF904E
:100DA0000895E881F9810488F589E02D61E0CE019C
:100DB0000995E881F981008CF18DE02DCE0109952E
:100DC00080E00E94C80280E00E94C8028093A203D3
:100DD0008091A2038334D0F48091A2038093A20374
:100DE00080E00E94C8028093A3038E81811109C014
:100DF0009091A3038D81981721F08091A3038F3FD9
:100E000039F48091A203833018F017C082E4E6CF52
:100E10001092A203E881F981028CF38DE02DCE01BE
:100E20000995E881F9810288F389E02DCE01DF91EF
:100E3000CF911F910F91FF9009948091A20383504D
:100E40008093A50380E00E94C8028093A40380E001
:100E50000E94C802982F90789093A003982F9074C6
:100E60009093A103E881F9810684F785E02D682F2E
:100E7000CE010995F12C8091A503F81608F06ACFF0
:100E80000F2D10E080E00E94C802F801E955FC4FE8
:100E90008083F394F0CF4F925F926F927F929F92F4
:100EA000AF92BF92EF920F931F93CF93DF93EC011A
:100EB000162F5A01922E6DE30E945C03482F446066
:100EC0006DE3CE010E9486030E94840C2B013C013D
:100ED000CE010E9479068823C1F0E881F98100885B
:100EE000F189E02DE12C292DA501612FCE01099575
:100EF000DF91CF911F910F91EF90BF90AF909F9096
:100F00007F906F905F904F9008950E94840C6419B9
:100F1000750986099709683E734081059105E8F6D1
:100F2000E881F9810480F581E02DCE01099564E620
:100F300070E088E00E94CF02CBCF4F925F926F9219
:100F40007F929F92AF92BF92CF92DF92EF92FF92E9
:100F50000F93CF93DF93EC015B01942E1092A103CA
:100F6000F090A403C0909E03D0909F036DE30E9475
:100F70005C03482F44606DE3CE010E9486030E940B
:100F8000840C2B013C01CE010E947906882301F1DB
:100F9000E881F9810088F189E02DEE24E39400E0F6
:100FA000292DA5016F2DCE010995D0929F03C092E6
:100FB0009E03DF91CF910F91FF90EF90DF90CF9044
:100FC000BF90AF909F907F906F905F904F900895EB
:100FD0000E94840C6419750986099709683E73405C
:100FE00081059105A8F6E881F9810480F581E02D5D
:100FF000CE010995C8CFCF93DF93EC0168876623B4
:1010000011F04FE001C04AE163E1CE010E94860386
:101010008885882341F061E1CE010E945C03482F5E
:101020004F71406602C04F81406861E1CE01DF919F
:10103000CF910C9486031F93CF93DF93EC01162F6F
:10104000662311F04DE501C045E56AE5CE010E9439
:101050008603112311F04CE701C040E76CE5CE0197
:10106000DF91CF911F910C948603CF93DF93EC0116
:10107000862F6A8361E00E94A70D61E08A81DF917B
:10108000CF910C946E0D0F931F93CF93DF93EC01D0
:101090006FEA71E08EE394E00E94331111E0E88181
:1010A000F981008CF18DE02DCE010995812F0E94F0
:1010B000C80280E00E94C802082FE881F981028CF2
:1010C000F38DE02DCE01099540E150E0612F8EE3D4
:1010D00094E00E94FD1163EC71E08EE394E00E94C5
:1010E000261140E150E0602F8EE394E00E94FD1154
:1010F00063EC71E08EE394E00E94261142E050E040
:10110000602F8EE394E00E9404121F5F103539F6C1
:10111000E881F981028CF38DE02DCE01DF91CF9132
:101120001F910F910994CF93CFB7F8948091E40366
:10113000811127C0E9E1F1E08491EAEFF0E09491B8
:10114000E82FF0E0EE0FFF1FED5BFE4FA591B4918D
:101150008C91892321F461E081E10E94A70D61E077
:1011600081E10E946E0D8CB580618CBD8CB5806470
:101170008CBD61E08FE00E946E0D61E080E10E9415
:101180006E0D8091E4038F5F8093E403CFBFCF9116
:101190000895FC01DB018BEC91E091838083129632
:1011A0008C911297828313968C9113978383149654
:1011B0008C911497848315968C9115978583169638
:1011C0008C911697868317968C911797878318961C
:1011D0008C911897808719968C91199781871A9608
:1011E0008C9182870895CF92DF92FF920F931F9385
:1011F000CF93DF93CDB7DEB70DB71EB7262F30E004
:10120000220F331FA9014F5F5F4FEDB7FEB7E41BFD
:10121000F50B0FB6F894FEBF0FBEEDBF4DB75EB72E
:101220004F5F5F4FDA01F82E6C018C2D8F198617F6
:10123000C8F4C601F601708172957F7070637A33CD
:1012400008F0795D7C93FFEFCF1ADF0AFC01808103
:101250008F7080638A3308F0895D11968C931197A3
:101260001296E3CFFA01E20FF31F1082BA018EEE5D
:1012700093E00E9433110FB6F8941EBF0FBE0DBF4E
:10128000DF91CF911F910F91FF90DF90CF90089544
:101290002F923F924F925F926F927F928F929F9286
:1012A000AF92BF92CF92DF92EF92FF920F931F9374
:1012B000CF93DF93CDB7DEB763970FB6F894DEBF59
:1012C0000FBECDBF7C016A8B642E298B46E06BEC90
:1012D00072E00E949D07662031F06BE072E08EEEB6
:1012E00093E00E9433110E94840C1B012C01A12C5D
:1012F000B12C55E2852E52E0952EAE014F5F5F4F27
:101300006A01C7010E94A602882301F18091A4030B
:101310005A8985131BC07090A50353E0571520F41C
:101320008091A7038634F9F061E089890E946E0DEF
:1013300061E089890E94A70D61E070E080E090E0A3
:101340000E94B30C60E089890E94A70D0E94840C62
:101350006219730984099509693B7B4081059105F0
:1013600080F280E0C7C08091A8038C34E9F68091B8
:10137000A9038835C9F68091AA038A3309F078C099
:1013800066E0671508F074C084E090E000E010E0CB
:10139000282F22242A94280EFC01E955FC4F308185
:1013A000303308F490C030813A3308F08CC030817B
:1013B0006AE0A801649F8001659F100D112400530D
:1013C0001109030F111D01968830910509F7222E8E
:1013D0006620C1F06DE172E08EEE93E00E9426116E
:1013E0004AE050E0672D8EEE93E00E94FD116AEA1C
:1013F00071E08EEE93E00E942611672D87EA93E05C
:101400000E94F3082394E22DF0E0E955FC4F80811F
:101410008A3309F0A6CF0E94840C1B012C010A1507
:101420001B0531F0C50101970817190709F504C01C
:1014300058018FEFA81AB80A1F930F939F928F92AB
:10144000DF92CF920E943E17482F0F900F900F907F
:101450000F900F900F90662039F0B6018EEE93E05A
:101460004B8B0E9433114B89B601C7010E949D0727
:101470008091AA038F3309F057CF94E0791210C0FE
:1014800046E06BEC72E0C7010E949D07662009F4FC
:101490004BCF6FE272E08EEE93E00E94331144CFA7
:1014A00027E0721241CF8091AB03853409F03CCF25
:1014B0008091AC038F3409F037CF8091AD0386342F
:1014C00009F032CF08C030813A3309F07CCF2430A4
:1014D00009F07ECF46CF46E06BEC72E0C7010E9478
:1014E0009D07662031F06BEC72E08EEE93E00E9477
:1014F000331181E063960FB6F894DEBF0FBECDBF07
:10150000DF91CF911F910F91FF90EF90DF90CF90DF
:10151000BF90AF909F908F907F906F905F904F9013
:101520003F902F900895C82F882331F06DE073E02D
:101530008EEE93E00E94261188E028E130E00FB69D
:10154000F894A895209360000FBE80936000CC2390
:1015500031F06EE28EEE93E00E942811FACFFFCFB9
:10156000FF920F931F93CF93DF93CDB7DEB72C97E6
:101570000FB6F894DEBF0FBECDBF162F242F3091CB
:10158000A503343008F456C03091A703363409F06F
:1015900051C03091A8033C3409F04CC03091A903EC
:1015A000383509F047C03091AA033F3309F042C0F3
:1015B000F090A4033091A5033730A1F43091AB0330
:1015C000353481F43091AC033F3461F43091AD0394
:1015D000363441F400E026E04BEC52E06F2D0E94DF
:1015E0004B0728C0BC01CE0101962C870E94C90878
:1015F0002C85412F6F2DCE0101960E94480988232A
:1016000059F0112331F067E173E08EEE93E00E9410
:101610002611812F0E94930A112361F068E373E081
:101620008EEE93E00E9426116DE671E08EEE93E05F
:101630000E9433112C960FB6F894DEBF0FBECDBFBB
:10164000DF91CF911F910F91FF90089508958530FC
:1016500008F04CC0E82FF0E0EE0FFF1FE65FFE4FF2
:10166000718360838230E1F018F4813069F004C046
:10167000833019F1843071F1809169008C7F842B63
:1016800080936900E89A089580916900440F551F7E
:10169000440F551F837F842B80936900E99A089536
:1016A0008091690034E0440F551F3A95E1F78F7C33
:1016B000842B80936900EA9A08958091690026E05E
:1016C000440F551F2A95E1F78F73842B809369008F
:1016D000EB9A089580916A0094E0440F551F9A9503
:1016E000E1F78F7C842B80936A00EE9A08951F9215
:1016F0000F920FB60F9211242F933F934F935F9346
:101700006F937F938F939F93AF93BF93EF93FF93C9
:10171000E0910A01F0910B010995FF91EF91BF91C2
:10172000AF919F918F917F916F915F914F913F9179
:101730002F910F900FBE0F901F9018951F920F9230
:101740000FB60F9211242F933F934F935F936F9394
:101750007F938F939F93AF93BF93EF93FF93E0910A
:101760000C01F0910D010995FF91EF91BF91AF919F
:101770009F918F917F916F915F914F913F912F91A9
:101780000F900FBE0F901F9018951F920F920FB6DB
:101790000F9211242F933F934F935F936F937F93F7
:1017A0008F939F93AF93BF93EF93FF93E0910E01BD
:1017B000F0910F010995FF91EF91BF91AF919F912A
:1017C0008F917F916F915F914F913F912F910F90EA
:1017D0000FBE0F901F9018951F920F920FB60F9289
:1017E00011242F933F934F935F936F937F938F9326
:1017F0009F93AF93BF93EF93FF93E0911001F0910C
:1018000011010995FF91EF91BF91AF919F918F9138
:101810007F916F915F914F913F912F910F900FBEEC
:101820000F901F9018951F920F920FB60F921124D0
:101830002F933F934F935F936F937F938F939F93D8
:10184000AF93BF93EF93FF93E0911201F0911301D7
:101850000995FF91EF91BF91AF919F918F917F91EA
:101860006F915F914F913F912F910F900FBE0F900D
:101870001F9018951F920F920FB60F9211242F935D
:101880003F938F939F93AF93BF938091E603909183
:10189000E703A091E803B091E9033091E50326E066
:1018A000230F2D3720F40296A11DB11D05C029E894
:1018B000230F0396A11DB11D2093E5038093E6033A
:1018C0009093E703A093E803B093E9038091EA03C0
:1018D0009091EB03A091EC03B091ED030196A11D53
:1018E000B11D8093EA039093EB03A093EC03B093B4
:1018F000ED03BF91AF919F918F913F912F910F90E9
:101900000FBE0F901F9018952FB7F8946091E603C3
:101910007091E7038091E8039091E9032FBF089548
:101920003FB7F8948091EA039091EB03A091EC0308
:10193000B091ED0326B5A89B05C02F3F19F0019685
:10194000A11DB11D3FBF6627782F892F9A2F620FE7
:10195000711D811D911D43E0660F771F881F991F20
:101960004A95D1F70895CF92DF92EF92FF92CF93ED
:10197000DF936B017C010E94900CEB01C114D10438
:10198000E104F10489F00E945B160E94900C6C1B2C
:101990007D0B683E734090F381E0C81AD108E108DE
:1019A000F108C851DC4FEACFDF91CF91FF90EF9063
:1019B000DF90CF900895789484B5826084BD84B51B
:1019C000816084BD85B5826085BD85B5816085BD3A
:1019D000EEE6F0E0808181608083E1E8F0E0108253
:1019E000808182608083808181608083E0E8F0E094
:1019F000808181608083E1E9F0E080818260808382
:101A0000808181608083E0E9F0E080818160808373
:101A1000E1ECF0E08081846080838081826080835B
:101A2000808181608083E3ECF0E08081816080834D
:101A3000E0ECF0E0808182608083E2ECF0E0808185
:101A400081608083EAE7F0E0808184608083808128
:101A50008260808380818E7F8083808180688083A4
:101A6000089590E0FC013197EF30F105B0F5EA5AA6
:101A7000FF4F0C943817809180008F7703C08091BE
:101A800080008F7D80938000089580918000877F03
:101A9000F9CF84B58F7702C084B58F7D84BD08955A
:101AA000809190008F7707C0809190008F7D03C058
:101AB00080919000877F8093900008958091C0006E
:101AC0008F7703C08091C0008F7D8093C000089500
:101AD0008091C200877F8093C2000895CF93DF93E7
:101AE00090E0FC01E751FF4F2491FC01E85FFE4FBD
:101AF0008491882349F190E0880F991FFC01ED5BE8
:101B0000FE4FA591B4918B5C9E4FFC01C591D49181
:101B10009FB7611108C0F8948C91209582238C9313
:101B2000888182230AC0623051F4F8948C91322F5C
:101B3000309583238C938881822B888304C0F8940A
:101B40008C91822B8C939FBFDF91CF9108950F933F
:101B50001F93CF93DF931F92CDB7DEB7282F30E0CE
:101B6000F901E653FF4F8491F901E751FF4F1491BA
:101B7000F901E85FFE4F04910023C9F0882321F0AA
:101B800069830E94310D6981E02FF0E0EE0FFF1FA5
:101B9000EB5CFE4FA591B4919FB7F8948C916111C5
:101BA00003C01095812301C0812B8C939FBF0F90A0
:101BB000DF91CF911F910F910895CF93DF93282F3D
:101BC00030E0F901E653FF4F8491F901E751FF4FEF
:101BD000D491F901E85FFE4FC491CC2391F08111BB
:101BE0000E94310DEC2FF0E0EE0FFF1FE95DFE4F7C
:101BF000A591B4912C912D2381E090E021F480E017
:101C000002C080E090E0DF91CF910895CF93DF9301
:101C10001F92CDB7DEB76983DC01ED91FC910280A4
:101C2000F381E02D41E050E0BE016F5F7F4F0995E9
:101C30000F90DF91CF910895CF93DF93EC018C85C6
:101C40009D8597FF05C082E00E942C139D878C879D
:101C50008C859D85DF91CF91089583E00C94A71525
:101C6000FC018485958597FD06C082E00E94D41210
:101C700090E00196089582E00E94D41290E00895C9
:101C8000FC018485958597FD05C02FEF3FEF3587D3
:101C90002487089582E00C942C13CF93DF93EC01FA
:101CA00080911F01882331F083E00E945D13181694
:101CB000190634F081E090E09B838A8380E090E015
:101CC000DF91CF910895FC0120812E5F208342E4B3
:101CD00050E061E571E080E80C94F813FC0121818B
:101CE0008081813A59F4213209F05CC047E050E02C
:101CF00068E171E080E00E94F81367C0813209F06A
:101D000051C0233289F4838190E0982F8827328153
:101D1000832BA0E0B0E08093140190931501A09371
:101D20001601B09317010FC0203239F467E070E05C
:101D300088E191E00E9429140AC0223221F48281B4
:101D400080931F0104C02D7F203209F03EC0809196
:101D5000180190911901A0911A01B0911B01803BCB
:101D60009440A105B10501F580911F0180FD1CC0C3
:101D700080910008909101089093FF0A8093FE0AD9
:101D800087E797E790930108809300082BE088E1AC
:101D900090E00FB6F894A895809360000FBE209352
:101DA000600013C080E0089588E10FB6F894809336
:101DB0006000109260000FBEA8958091FE0A90917D
:101DC000FF0A909301088093000881E00895109223
:101DD000F1031092F00388EE93E0A0E0B0E080936E
:101DE000F2039093F303A093F403B093F50385E615
:101DF00093E09093EF038093EE038FEF9FEF909328
:101E0000FB038093FA030895FC01818D228D90E0FD
:101E1000805C9F4F821B91098F7399270895FC0165
:101E2000918D828D981731F0828DE80FF11D858D8F
:101E300090E008958FEF9FEF0895FC01918D828DC2
:101E4000981761F0828DDF01A80FB11D5D968C910E
:101E5000928D9F5F9F73928F90E008958FEF9FEF19
:101E600008958BE990E1892B49F080E090E0892B7F
:101E700029F00E949B1081110C9400000895FC0130
:101E8000848DDF01A80FB11DA35ABF4F2C91848D03
:101E900090E001968F739927848FA689B7892C9338
:101EA000A089B1898C9180648C93938D848D9813D3
:101EB00006C00288F389E02D80818F7D808308959C
:101EC000CF93DF93EC01888D8823C9F0EA89FB89E1
:101ED000808185FD05C0A889B9898C9186FD0FC0D8
:101EE0000FB607FCF5CF808185FFF2CFA889B989AD
:101EF0008C9185FFEDCFCE010E943F0FE7CFDF91A0
:101F0000CF910895CF92DF92FF920F931F93CF93BB
:101F1000DF931F92CDB7DEB76C0181E0D6015896F2
:101F20008C9358975B969C915B975C968C915C9791
:101F3000981307C05096ED91FC915197808185FDD3
:101F40002EC0F601038D10E00F5F1F4F0F73112796
:101F5000F02EF601848DF81211C00FB607FCF9CFF0
:101F6000D6015096ED91FC915197808185FFF1CF7C
:101F7000C60169830E943F0F6981EBCF838DE80F13
:101F8000F11DE35AFF4F6083D6015B960C935B977C
:101F90005296ED91FC915397808180620CC0D601DE
:101FA0005696ED91FC91579760835096ED91FC9178
:101FB000519780818064808381E090E00F90DF9171
:101FC000CF911F910F91FF90DF90CF900895BF9216
:101FD000CF92DF92EF92FF92CF93DF93EC016A01F1
:101FE0007B01B22E60E874E88EE190E0A7019601D3
:101FF0000E94F7162150310941095109569547951C
:1020000037952795E889F98982E08083211580E159
:10201000380798F0E889F989108260E472E48FE06B
:1020200090E0A70196010E94F7162150310941095D
:1020300051095695479537952795EC85FD85308351
:10204000EE85FF852083188EEC89FD89B082EA89B0
:10205000FB89808180618083EA89FB898081886037
:102060008083EA89FB89808180688083EA89FB8993
:1020700080818F7D8083DF91CF91FF90EF90DF9003
:10208000CF90BF9008951F920F920FB60F92112418
:102090002F938F939F93EF93FF93E0914E04F091D2
:1020A0004F048081E0915404F091550482FD12C0E8
:1020B0009081809157048F5F8F732091580482170D
:1020C00051F0E0915704F0E0E25CFB4F958F809374
:1020D000570401C08081FF91EF919F918F912F91C3
:1020E0000F900FBE0F901F9018951F920F920FB672
:1020F0000F9211242F933F934F935F936F937F938E
:102100008F939F93AF93BF93EF93FF938EE394E0EE
:102110000E943F0FFF91EF91BF91AF919F918F91DF
:102120007F916F915F914F913F912F910F900FBED3
:102130000F901F9018958EE394E00E94040F21E009
:10214000892B09F420E0822F089510924104109207
:10215000400488EE93E0A0E0B0E0809342049093C6
:102160004304A0934404B093450485E793E090931F
:102170003F0480933E048DEC90E090934B04809359
:102180004A048CEC90E090934D0480934C0488ECCE
:1021900090E090934F0480934E0489EC90E09093EC
:1021A0005104809350048AEC90E090935304809300
:1021B00052048EEC90E09093550480935404109256
:1021C0005704109258041092590410925A0408951A
:1021D000CF92DF92EF92FF920F931F93CF93DF93F3
:1021E0007C016A01EB0100E010E00C151D0571F0A7
:1021F0006991D701ED91FC910190F081E02DC7012B
:102200000995892B19F00F5F1F4FEFCFC801DF91A0
:10221000CF911F910F91FF90EF90DF90CF90089595
:102220006115710581F0DB010D900020E9F7AD012A
:1022300041505109461B570BDC01ED91FC91028086
:10224000F381E02D099480E090E008950C94101142
:10225000DC01ED91FC910190F081E02D099461E8A1
:1022600073E00C9410110F931F93CF93DF93EC0145
:102270000E9410118C01CE010E942F11800F911F1E
:10228000DF91CF911F910F9108958F929F92AF92FE
:10229000BF92CF92DF92EF92FF920F931F93CF9353
:1022A000DF93CDB7DEB7A1970FB6F894DEBF0FBEB0
:1022B000CDBF7C01C42EE52FCB01D22E19A221E087
:1022C0002D1510F02AE0D22E8E010F5D1F4F8D2CA0
:1022D000912CA12CB12C6C2D7E2FA50194010E9474
:1022E000F7168C2DD29E80191124015011098A30C5
:1022F00014F4805D01C0895CF801808321153105EB
:102300004105510521F0C22EE32FCA01E4CFB801E7
:10231000C7010E941011A1960FB6F894DEBF0FBE40
:10232000CDBFDF91CF911F910F91FF90EF90DF9084
:10233000CF90BF90AF909F908F900895CF92DF92F3
:10234000EF92FF920F931F93CF93DF93EC016A01FB
:102350007B012115310579F4E881F9810190F08143
:10236000E02D642FDF91CF911F910F91FF90EF909F
:10237000DF90CF9009942A303105E9F477FF1AC035
:102380006DE20E9428118C0144275527BA014C198F
:102390005D096E097F092AE0CE010E944511800F78
:1023A000911FDF91CF911F910F91FF90EF90DF90E0
:1023B000CF9008952AE0B701A601CE01DF91CF9119
:1023C0001F910F91FF90EF90DF90CF900C944511EB
:1023D0009A01AB01662757FD6095762F0C949E11EC
:1023E0002115310541F4DC01ED91FC910190F08162
:1023F000E02D642F09940C9445119A01462F50E06A
:1024000060E070E00C94F0110F931F93CF93DF9373
:10241000EC019A01462F50E060E070E00E94F0115C
:102420008C01CE010E942F11800F911FDF91CF915F
:102430001F910F910895615030F02091F100FC013F
:1024400020830196F8CF289884E68093E4040895C9
:102450004091DF045091E0042091DD043091DE04CE
:1024600042175307B4F49091E8009570E1F390910E
:10247000E80092FD19C08093F1008091DF049091F3
:10248000E00401968F739927892B19F48EEF8093BE
:10249000E8008091DF049091E00401969093E004BD
:1024A0008093DF0481E0089580E00895CF92DF9269
:1024B000EF92FF920F931F93CF93DF931F92CDB7AD
:1024C000DEB7082F162FF42E862F880F8E5F998384
:1024D0000E94281283E00E942812E02EC02E9981CB
:1024E000D92E8C2D8E19811798F4F601F7FE02C0B3
:1024F000849101C080810E942812082F80E00E94F0
:1025000028128023FFEFCF1ADF0A8111EACF01C022
:1025100081E00F90DF91CF911F910F91FF90EF908D
:10252000DF90CF9008958091D70081608093D7008D
:1025300080EA8093D80089B58F7E89BD89B5826095
:1025400089BD09B400FEFDCF61E070E080E090E05D
:102550000E94B30C8091D8008F7C80618093D8005A
:102560008091E000807F8093E0000895CF93DF9317
:102570001F92CDB7DEB71982CE0101960E94630E7D
:102580000E94E316BE016F5F7F4F0E945C16898137
:102590000F90DF91CF9108952FB7FC012083F8941D
:1025A00067706093E9000895CF93DF931F92CDB7D2
:1025B000DEB7682FCE0101960E94CC128091F20006
:1025C00099819FBF0F90DF91CF910895FF920F9354
:1025D0001F93CF93DF9300D0CDB7DEB7F62E8A01DD
:1025E0009091E304992311F057FF03C08FEF9FEF01
:1025F0002BC0682FCE0101967A830E94CC12809165
:10260000F20090E0A8017A81801791070CF4AC01E8
:10261000EF2DF72FF40E84E6FE1639F028988093FC
:10262000E4049091F1009193F7CF4115510521F009
:102630008091F200882321F089818FBFCA0104C0F4
:102640008BE68093E800F8CF0F900F90DF91CF9149
:102650001F910F91FF900895CF93DF931F92CDB7F5
:10266000DEB741E050E0BE016F5F7F4F0E94E6128F
:10267000019719F4898190E002C08FEF9FEF0F90CE
:10268000DF91CF910895CF93DF931F92CDB7DEB73F
:10269000682FCE0101960E94CC129091E800892FFC
:1026A000807295FF04C09091F20080E4891B9981AB
:1026B0009FBF0F90DF91CF9108956F927F928F927D
:1026C0009F92AF92BF92CF92DF92EF92FF920F93C1
:1026D0001F93CF93DF931F92CDB7DEB7782E7B0188
:1026E000C42EB52E8091E304882369F0042F152FA2
:1026F0008AEFD82E872D8072982E9AE3A92E872DE7
:102700008074882E11C08FEF9FEF57C0872D0E94D5
:102710004313682E81110CC0DA94A9F361E070E0D4
:1027200080E090E00E94B30C0115110579F73BC0E1
:10273000282F30E0021713070CF4602E672DCE010E
:1027400001960E94CC128091E80085FF29C0262DB9
:1027500030E0021B130B992039F06A948FEF681652
:10276000B1F01092F100F9CFF701862D77FE07C086
:10277000815058F094919093F1003196F9CF8150A7
:1027800020F091919093F100FACFE20EF31E809128
:10279000E80085FF0FC00115110511F481100AC072
:1027A00089818FBFC1CF5D9884E68093E5048C2D2D
:1027B0009B2D03C0A092E800F3CF0F90DF91CF9143
:1027C0001F910F91FF90EF90DF90CF90BF90AF904F
:1027D0009F908F907F906F9008951092E9001092D3
:1027E000E0041092DF049093DE048093DD040895EA
:1027F000CF92DF92FF920F931F93CF93DF9300D07E
:10280000CDB7DEB7F82E8A016B0101151105B1F0C5
:10281000F601F7FE02C0849101C0808149835A838A
:102820000E94281201501109FFEFCF1ADF0A4981D7
:102830005A818111EACF8FEF9FEF01C0CA010F903B
:102840000F90DF91CF911F910F91FF90DF90CF906C
:1028500008951F93CF93DF931F92CDB7DEB7162F46
:102860002091E80022FFFCCF612F79830E941B1288
:102870008BEF8093E800812F7981972F0F90DF9164
:10288000CF911F9108951F920F920FB60F921124AE
:10289000DF92EF92FF920F931F932F933F934F93EB
:1028A0005F936F937F938F939F93AF93BF93EF93B8
:1028B000FF93CF93DF93CDB7DEB76C97DEBFCDBF6D
:1028C0001092E9008091E80083FF23C168E0CE0107
:1028D00045960E941B1282EF8093E8003D8937FFE6
:1028E00005C08091E80080FFFCCF03C08EEF80938D
:1028F000E800832F807609F0F0C02E894F89D88CAC
:1029000021110CC0303829F48091E2048093F10049
:1029100002C01092F1001092F100F4C0842F90E0F8
:102920009D29213049F43111EDC0019709F0EAC029
:102930008091E2048D7F0AC0233059F43111E2C046
:10294000019709F0DFC08091E20482608093E20485
:10295000D9C0253041F48091E80080FFFCCF406869
:102960004093E300CFC0263009F08DC0EB8CFC8C87
:1029700022E0D2122CC080E090E00E94ED130E9471
:10298000B61299E08E010F5F1F4FF801292F1192A7
:102990002A95E9F79983DA8291E09E8390EA9887F5
:1029A0009AEF99872091DF043091E004275F3F4F31
:1029B0003C832B838D83C7010E94ED1349E050E0D7
:1029C000B80180E00E94F8130E94B6129BC0C701B4
:1029D0000E94ED130E94E316BE016B5E7F4F0E94C2
:1029E0008516009719F00CF08DC090C081E0D812C8
:1029F0000EC08B8D9C8D089719F481E08093DC04C8
:102A00008091DC0481112FC065EA71E031C0E3E000
:102A1000DE127CC08F89882349F1823029F440E896
:102A20006BE080EC91E01CC0813029F440E868E064
:102A300087EB91E015C0833009F068C00E94E3166F
:102A40008E010F5F1F4FB8010E94A416F80101907C
:102A50000020E9F73197E01BF10B40E06E2FC80131
:102A60000E9456124DC063E971E002C06CEC71E047
:102A70006115710509F44AC0FB01449150E080E8FA
:102A80000E94F8133FC0273009F440C0283021F4D9
:102A900081E08093F10036C02930A1F53370B1F5A3
:102AA000E1E2F1E081E021E036E39081992361F0F9
:102AB0008093E9002093EB0091919093EC00309388
:102AC000ED008F5F873089F78EE78093EA001092E0
:102AD000EA008F898093E30415C08B8D9C8D0E9442
:102AE000ED13898D811105C0CE0145960E946E0EB1
:102AF00007C00E94E316BE016B5E7F4F0E94C316A3
:102B0000882321F08EEF8093E80003C081E2809358
:102B1000EB006C960FB6F894DEBF0FBECDBFDF9111
:102B2000CF91FF91EF91BF91AF919F918F917F9145
:102B30006F915F914F913F912F911F910F91FF9056
:102B4000EF90DF900F900FBE0F901F90189580931D
:102B5000E9008091F200882319F08AE38093E8006D
:102B600008951F920F920FB60F9211242F933F9347
:102B70004F935F936F937F938F939F93AF93BF9385
:102B8000CF93EF93FF93C091E1008091E100837FA9
:102B90008093E1008093E100C3FF0FC01092E90031
:102BA00081E08093EB001092EC0082E38093ED00D3
:102BB0001092E30488E08093F000C2FF19C083E024
:102BC0000E94A7158091E504882339F08091E504DF
:102BD00081508093E504882389F18091E40488235F
:102BE00039F08091E40481508093E404882341F11A
:102BF000C4FF10C08091E2008E7E81608093E2006D
:102C00008091E1008F7E8093E1008091E1048E7ECF
:102C1000806111C0C0FF16C08091E2008E7E80618D
:102C20008093E2008091E1008E7E8093E1008091AC
:102C3000E1048E7E81608093E10404C05D9ACDCF73
:102C4000289AD6CFFF91EF91CF91BF91AF919F91ED
:102C50008F917F916F915F914F913F912F910F9045
:102C60000FBE0F901F9018951092E3041092E2048B
:102C70001092E1040E949312E1EEF0E080818E7EDA
:102C800080838DE08093E200559A209A08950895FC
:102C90000E94DB0C0E9447168BED94E00E943416D4
:102CA0000E941501C1E3DFE00E9461012097E1F37A
:102CB0000E94310FF9CF0895EF92FF920F931F9367
:102CC000CF93DF937B01FC01C281D38100E010E050
:102CD000209781F0E881F9810280F381E02DB7012E
:102CE000CE01099597FD08C0080F191F0884D985E2
:102CF000C02DEECFC80102C08FEF9FEFDF91CF91C3
:102D00001F910F91FF90EF9008950F931F93CF9312
:102D1000DF938B01FC01C281D381209771F0E881A0
:102D2000F9810480F581E02DB801CE010995009765
:102D300031F40884D985C02DF0CF80E090E0DF9198
:102D4000CF911F910F9108950F931F93CF93DF930E
:102D50008B01FC01C281D381209771F0E881F98158
:102D60000680F781E02DB801CE010995080F111DED
:102D70000884D985C02DF0CFF8011082DF91CF9162
:102D80001F910F9108950F931F93CF93DF938B01A2
:102D9000FC01C281D381209771F0E881F981019013
:102DA000F081E02DB801CE010995811106C008849B
:102DB000D985C02DF0CF80E001C081E0DF91CF91B7
:102DC0001F910F9108958091EA0481110DC082E056
:102DD0008093E60484E08093E7041092E904109263
:102DE000E80481E08093EA0486EE94E00895A1E28D
:102DF0001A2EAA1BBB1BFD010DC0AA1FBB1FEE1F75
:102E0000FF1FA217B307E407F50720F0A21BB30BBF
:102E1000E40BF50B661F771F881F991F1A9469F73B
:102E200060957095809590959B01AC01BD01CF0197
:102E30000895052E97FB1EF400940E94301757FD4D
:102E400007D00E94F71607FC03D04EF40C943017FD
:102E500050954095309521953F4F4F4F5F4F0895C6
:102E600090958095709561957F4F8F4F9F4F0895F6
:102E7000EE0FFF1F0590F491E02D0994AEE0B0E055
:102E8000E4E4F7E10C94E6190D891E8986E08C8351
:102E90001A8309838FEF9FE79E838D83AE01475E80
:102EA0005F4F6F89788DCE0101960E946017EF8188
:102EB000F885E00FF11F10822E96E4E00C94021AC0
:102EC000ACE0B0E0E6E6F7E10C94D8197C016B01C8
:102ED0008A01FC0117821682838181FFBDC1CE0168
:102EE00001964C01F7019381F60193FD859193FFC3
:102EF00081916F01882309F4ABC1853239F493FDC8
:102F0000859193FF81916F01853229F4B70190E09B
:102F10000E944819E7CF512C312C20E02032A0F438
:102F20008B3269F030F4803259F0833269F42061D9
:102F30002CC08D3239F0803339F4216026C02260F4
:102F4000246023C0286021C027FD27C030ED380F42
:102F50003A3078F426FF06C0FAE05F9E300D112467
:102F6000532E13C08AE0389E300D1124332E206278
:102F70000CC08E3221F426FD6BC1206406C08C3655
:102F800011F4206802C0883641F4F60193FD859162
:102F900093FF81916F018111C1CF982F9F7D95542F
:102FA000933028F40C5F1F4FFFE3F9830DC0833685
:102FB00031F0833771F0833509F05BC022C0F8012E
:102FC000808189830E5F1F4F44244394512C540108
:102FD00015C03801F2E06F0E711CF801A080B180BD
:102FE00026FF03C0652D70E002C06FEF7FEFC501C3
:102FF0002C870E943D192C0183012C852F77222ECE
:1030000017C03801F2E06F0E711CF801A080B1808A
:1030100026FF03C0652D70E002C06FEF7FEFC50192
:103020002C870E9432192C012C852068222E8301C6
:1030300023FC1BC0832D90E048165906B0F4B7015D
:1030400080E290E00E9448193A94F4CFF50127FC01
:10305000859127FE81915F01B70190E00E94481998
:1030600031103A94F1E04F1A51084114510471F7AC
:10307000E5C0843611F0893639F5F80127FF07C01D
:1030800060817181828193810C5F1F4F08C06081D4
:103090007181882777FD8095982F0E5F1F4F2F76BF
:1030A000B22E97FF09C090958095709561957F4FDE
:1030B0008F4F9F4F2068B22E2AE030E0A4010E947B
:1030C0007A19A82EA81844C0853729F42F7EB22E6D
:1030D0002AE030E025C0F22FF97FBF2E8F36C1F0F5
:1030E00018F4883579F0B4C0803719F0883721F0AA
:1030F000AFC02F2F2061B22EB4FE0DC08B2D846087
:10310000B82E09C024FF0AC09F2F9660B92E06C0B2
:1031100028E030E005C020E130E002C020E132E0EC
:10312000F801B7FE07C060817181828193810C5FD5
:103130001F4F06C06081718180E090E00E5F1F4FDD
:10314000A4010E947A19A82EA818FB2DFF77BF2E84
:10315000B6FE0BC02B2D2E7FA51450F4B4FE0AC072
:10316000B2FC08C02B2D2E7E05C07A2C2B2D03C05F
:103170007A2C01C0752C24FF0DC0FE01EA0DF11D53
:103180008081803311F4297E09C022FF06C0739428
:10319000739404C0822F867809F0739423FD13C0C2
:1031A00020FF06C05A2C731418F4530C5718732CB4
:1031B000731468F4B70180E290E02C870E944819EC
:1031C00073942C85F5CF731410F4371801C0312C8B
:1031D00024FF12C0B70180E390E02C870E944819B9
:1031E0002C8522FF17C021FF03C088E590E002C0B4
:1031F00088E790E0B7010CC0822F867859F021FD56
:1032000002C080E201C08BE227FD8DE2B70190E0B1
:103210000E944819A51438F4B70180E390E00E9499
:1032200048195A94F7CFAA94F401EA0DF11D808150
:10323000B70190E00E944819A110F5CF332009F49E
:1032400051CEB70180E290E00E9448193A94F6CF3F
:10325000F7018681978102C08FEF9FEF2C96E2E104
:103260000C94F419FC010590615070400110D8F7DE
:10327000809590958E0F9F1F0895FC0161507040BE
:1032800001900110D8F7809590958E0F9F1F08959B
:103290000F931F93CF93DF93182F092FEB018B818F
:1032A00081FD03C08FEF9FEF20C082FF10C04E81D1
:1032B0005F812C813D81421753077CF4E881F981BD
:1032C0009F012F5F3F4F39832883108306C0E88515
:1032D000F985812F0995892B29F72E813F812F5F51
:1032E0003F4F3F832E83812F902FDF91CF911F91EE
:1032F0000F910895FA01AA27283051F1203181F168
:10330000E8946F936E7F6E5F7F4F8F4F9F4FAF4FED
:10331000B1E03ED0B4E03CD0670F781F891F9A1F00
:10332000A11D680F791F8A1F911DA11D6A0F711DB4
:10333000811D911DA11D20D009F468943F912AE0C0
:10334000269F11243019305D3193DEF6CF010895A8
:10335000462F4770405D4193B3E00FD0C9F7F6CFD9
:10336000462F4F70405D4A3318F0495D31FD4052A1
:10337000419302D0A9F7EACFB4E0A6959795879537
:1033800077956795BA95C9F7009761057105089516
:103390009B01AC010A2E06945795479537952795C2
:1033A000BA95C9F7620F731F841F951FA01D08955A
:1033B0002F923F924F925F926F927F928F929F9245
:1033C000AF92BF92CF92DF92EF92FF920F931F9333
:1033D000CF93DF93CDB7DEB7CA1BDB0B0FB6F894E4
:1033E000DEBF0FBECDBF09942A88398848885F8424
:1033F0006E847D848C849B84AA84B984C884DF8095
:10340000EE80FD800C811B81AA81B981CE0FD11D78
:103410000FB6F894DEBF0FBECDBFED010895F8944E
:02342000FFCFDC
:103422000000F2048000FFFFFFFF260B260B260B95
:10343200260B260BFFFFFFFF00E10000000000004B
:1034420000C1808100000073616D706C65456E6320
:10345200727970744B6579005374617274206E6F67
:1034620064652E2E2E00466C61736820636F6E7445
:10347200656E743A0045726173696E6720466C61CD
:1034820073682063686970202E2E2E2000444F4EF0
:10349200450044657669636549443A200052656295
:1034A2006F6F74696E670052464D363920726567D8
:1034B2006973746572733A000A5772697465427966
:1034C20074652800476F74205B005D203E20004138
:1034D200646472657373202D20484558202D204264
:1034E200494E00202D2000000000004B070903A6D2
:1034F200029D07FB071D04990675023704B804AE46
:10350200031B0890028102464C583F454F46004635
:103512004C583F0048616E647368616B6520666158
:10352200696C00464C583A25753A00464C583F4F54
:103532004B202841434B2073656E742900726164ED
:10354200696F205B00464C583A25753A4F4B00464E
:103552004C583F4F4B20726573656E64005246545F
:1035620058203E2000524641434B203E20005469E1
:103572006D656F75742077616974696E6720666F17
:1035820072207061636B65742041434B2C20616231
:103592006F7274696E6720464C415348206F7065A4
:1035A200726174696F6E202E2E2E00464C583A4975
:1035B2004E560054696D656F757420726563656956
:1035C20076696E6720464C41534820696D61676594
:1035D2002066726F6D2053455249414C2C20616226
:1035E2006F7274696E672E2E2E000A464C583F4F3A
:1035F2004B00464C41534820494D47205452414EBE
:10360200534D495353494F4E20535543434553530A
:1036120000464C41534820494D47205452414E5395
:103622004D495353494F4E204641494C0052454261
:103632004F4F54494E4700464C41534820494D474D
:10364200205452414E534D495353494F4E205355E6
:103652004343455353210A0054696D656F75742FB6
:103662004572726F722C2065726173696E67207782
:1036720072697474656E2064617461202E2E2E202E
:103682000000000000060E4D0E300E400E1C0E2DE6
:103692000E00000000820FE810040F1D0F0F0F60D4
:1036A2000F0D0A006E616E00696E66006F7666002D
:00000001FF
