:100000008E350C94EB000C94A50B0C94CC0B0C943B
:10001000F30B0C941A0C0C9413010C9413010C9414
:10002000410C0C9413010C9413010C94E5150C94E1
:1000300077140C9413010C9413010C9413010C9479
:1000400013010C9413010C9413010C9413010C94E0
:1000500013010C9413010C9413010C9413010C94D0
:10006000680C0C9413010C9471100C94A3100C9454
:1000700013010C9413010C9413010C9413010C94B0
:1000800013010C9413010C9413010C9413010C94A0
:1000900013010C9413010C9413010C9413010C9490
:1000A00013010C9413010C9413010C941301770D9C
:1000B0007A0D690D6D0D730D9B0D9B0D9B0D7E0DC6
:1000C000820D860D8C0D900D9B0D960D000000028B
:1000D00000090F0000030401000C000000000000F4
:1000E00000000000000000000000000408020110F1
:1000F0004080401020408040800802040180402061
:100100001002011080102040402004040404040365
:1001100004050202020204030202020206060606A7
:100120000606040402020204040000000023002664
:100130000029002C002F0000000000250028002BC3
:10014000002E00310000000000240027002A002DAE
:10015000003000080B000202020100090400000147
:1001600002020000052400100105240101010424FD
:10017000020605240600010705810310004009045A
:100180000100020A00000007050202400000070506
:10019000830240000012010002EF0201404F1B08E1
:1001A0009200010102030112010002000000404F11
:1001B0001B0892000101020301537061726B4675C6
:1001C0006E004C696C795061642055534200040301
:1001D00009047301150FD31011241FBECFEFDAE00D
:1001E000DEBFCDBF12E0A0E0B1E0EAE8F4E302C078
:1001F00005900D92A430B107D9F723E0A4E0B2E056
:1002000001C01D92A736B207E1F711E0C6EDD1E0BB
:1002100004C02297FE010E946E17C03DD107C9F7A6
:100220000E947C160C94431A0C94000061E08DE04F
:100230000E949C0D26E040E855E260E070E083EB10
:1002400092E00E94151061E084E00E949C0D60E045
:1002500084E00E94D50D64E670E080E090E00E94AA
:10026000E10C6AE085E092E00E946D082AEF4BE71E
:1002700066E585E092E00E94660567E271E085E050
:1002800092E00E94210568E371E083EB92E00C9418
:1002900061110F931F93CF93DF9300D000D01F9273
:1002A000CDB7DEB79F938F938EE391E09F938F93AB
:1002B0008E010F5F1F4F1F930F930E947217B8019B
:1002C00083EB92E00E9454110F900F900F900F90CB
:1002D0000F900F900F900F900F900F900F90DF9155
:1002E000CF911F910F91089585E791E090930602B9
:1002F0008093050281E18093070283E080930802E6
:100300001092090281E080931A0210920B028FE191
:1003100080930C0210920D020895CF92DF92EF921B
:10032000FF92CF93DF93CDB7DEB72B970FB6F8943C
:10033000DEBF0FBECDBF83EB92E00E94320F1816D6
:1003400019060CF063C083EB92E00E944B0F809380
:100350000402843609F042C0E12CF12C63E471E020
:1003600083EB92E00E945411C7010E94480183EB85
:1003700092E00E945D11C12CD12CF601EE0DFF1D03
:10038000859194910E94480182E0C80ED11C6EE2D2
:1003900083EB92E00E945611C6018F709927892B3A
:1003A00021F483EB92E00E945D118CE3C816D10426
:1003B00021F783EB92E00E945D11E114F10419F43E
:1003C00080E098E302C080E790E0E80EF91E80E844
:1003D000E81688E3F8060CF4C1CF18C0823751F450
:1003E0006DE471E083EB92E00E94541181E00E9481
:1003F000E10A0CC0823551F467E571E083EB92E0CD
:100400000E94541185E092E00E947B0885E092E012
:100410000E94DE02882309F463C062E671E083EB88
:1004200092E00E945411609118024AE050E083EB80
:1004300092E00E942B126AE383EB92E00E94561135
:10044000609119024AE050E083EB92E00E942B1287
:1004500068E671E083EB92E00E945411F12C8091E8
:100460001902F81680F4EF2DF0E0E55EFD4F608193
:10047000772767FD709540E150E083EB92E00E94A2
:100480001612F394ECCF83EB92E00E945D1185E7A6
:1004900091E09A838983809107028B83809108027F
:1004A0008C83809109028D8380910A028E838091D2
:1004B0000B028F8380910C02888780910D028987BF
:1004C00080910E028A8780910F028B8741E060E065
:1004D000CE0101960E94FB0A83EB92E00E945D111F
:1004E0000E94B20CC0900601D0900701E090080174
:1004F000F090090124EF31E040E050E00E942B171A
:10050000C901AA2797FDA095BA2FC816D906EA06F1
:10051000FB06BCF4C701B6016F5F7F4F8F4F9F4F43
:10052000609306017093070180930801909309017D
:1005300022E030E040E050E00E944D178DE00E9444
:10054000D50D2B960FB6F894DEBF0FBECDBFDF9151
:10055000CF91FF90EF90DF90CF9008950895809114
:10056000100290911102DC01ED91FC910484F5855B
:10057000E02D0994CF93DF93EC0161E08A810E9422
:10058000D50D89858CBD8A858DBD7894DF91CF91FD
:100590000895FC01F8948CB581878DB582878CB560
:1005A000837F8CBD8CB58F7D8CBD8CB58C7F8CBDD5
:1005B0008DB58E7F8DBD60E082810C94D50DF89451
:1005C00020911A02233021F42091160221110FC02C
:1005D00020911A02233011F4789407C0DC01ED91C8
:1005E000FC910288F389E02D099580E00895DC01F3
:1005F000ED91FC910488F589E02D61E0099581E099
:1006000008958EBD00000DB407FEFDCF8EB5089590
:100610001F93CF93DF93182FEB0161E00E949C0D95
:1006200061E0812F0E94D50DBE01882777FD80955E
:10063000982F0E94E10C60E0812FDF91CF911F91F4
:100640000C94D50DCF93DF931F92CDB7DEB7DC01AD
:10065000ED91FC910480F581E02D69830995698114
:10066000882359F080911802861711F06F3F29F402
:100670009091140281E0911101C080E00F90DF9110
:10068000CF9108952F923F924F925F927F928F92D7
:100690009F92AF92BF92CF92DF92EF92FF920F9311
:1006A0001F93CF93DF93EC01962E5A01722E802E6A
:1006B00010E0CE2CD12CE12CF12CE881F9810190B5
:1006C000F081E02D01E0272DA501692DCE010995CE
:1006D0000E94B20C1B012C010E94B20C621973091A
:1006E000840995096C157D058E059F0540F4692DDB
:1006F000CE010E942103882379F381E004C01F5FAB
:100700008116D8F680E0DF91CF911F910F91FF9075
:10071000EF90DF90CF90BF90AF909F908F907F90A1
:100720005F904F903F902F900895EF92FF921F930C
:10073000CF93DF931F92CDB7DEB77C01DC01ED9143
:10074000FC91008CF18DE02D698309956981862FDC
:100750008F770E94000380E00E940003182FD701CA
:10076000ED91FC91028CF38DE02DC7010995812F4D
:100770000F90DF91CF911F91FF90EF9008950F930D
:100780001F93CF93DF9300D0CDB7DEB78C01DC0190
:10079000ED91FC91008CF18DE02D4A8369830995E0
:1007A0006981862F80680E9400034A81842F0E94FD
:1007B0000003D801ED91FC91028CF38DE02DC8016E
:1007C0000F900F90DF91CF911F910F9109941F937C
:1007D000CF93DF93EC01162F80911A02681709F46A
:1007E00061C0623009F440C070F4662309F444C06B
:1007F000613009F057C061E0CE010E949403482F98
:10080000437E44603FC06330C1F0643009F04AC0A9
:1008100061E0CE010E949403482F437E4C6061E06A
:10082000CE010E94BE038885882381F1E881F98189
:100830000688F789E02D61E014C061E0CE010E94D6
:100840009403482F437E406161E0CE010E94BE03C5
:1008500088858823D9F0E881F9810688F789E02D19
:1008600060E0CE01099512C061E0CE010E949403C0
:10087000482F437E486006C061E0CE010E94940389
:10088000482F437E61E0CE010E94BE0380911A0290
:10089000811106C067E2CE010E94940387FFF6CF64
:1008A00010931A02DF91CF911F910895CF93DF9398
:1008B000EC01603208F06FE16F838885882311F0C6
:1008C00066956F8361E1CE010E949403482F407EBC
:1008D0008F81482B61E1CE01DF91CF910C94BE0353
:1008E000CF92DF92EF92FF920F931F93CF93DF93FC
:1008F000EC01F62ED42EC52E122FE881F981048842
:10090000F589E02D61E0099567E2CE010E9494032C
:1009100087FFFACF40E065E2CE010E94BE031E339E
:1009200008F01DE3E11004C0002319F000E401C049
:1009300000E8E881F981008CF18DE02DCE01099568
:1009400080E80E94000383E0810F0E9400038F2D46
:100950000E9400038D810E940003802F0E940003EB
:100960000D2DED2CFC2C8E2D801B811730F4F70102
:1009700081917F010E940003F6CFE881F981028C0A
:10098000F38DE02DCE010995E881F9810488F58980
:10099000E02D64E0CE0109950E94B20C6B017C0150
:1009A0008B810E940B0E892B81F0E881F9810488EC
:1009B000F589E02D61E0CE01DF91CF911F910F917C
:1009C000FF90EF90DF90CF9009940E94B20C6C19C9
:1009D0007D098E099F09683E73408105910528F7BE
:1009E000DFCFCF93DF93EC0110921902109218021F
:1009F0001092170210921602109215021092140211
:100A0000109213021092120268E20E94940382FF75
:100A10000AC06DE3CE010E949403482F44606DE349
:100A2000CE010E94BE0340E465E2CE010E94BE03F7
:100A3000E881F9810488F589E02D63E0CE01DF913A
:100A4000CF910994DF92EF92FF920F931F93CF9370
:100A5000DF93EC018B01E881F9810488F589E02DB1
:100A600061E0099501151105E1F0E881F981008C3B
:100A7000F18DE02DCE0109958EEB0E9400037801E7
:100A8000D12CF70181917F010E940003D394F0E102
:100A9000DF12F7CFE881F981028CF38DE02DCE01D2
:100AA00009956DE3CE010E9494038E7F91E0012BA6
:100AB00009F490E0482F492B6DE3CE01DF91CF91EF
:100AC0001F910F91FF90EF90DF900C94BE038F92D7
:100AD0009F92AF92BF92DF92EF92FF920F931F937C
:100AE000CF93DF93CDB7DEB7AE970FB6F894DEBFE6
:100AF0000FBECDBF7C01D42E8EE28E010F5F1F4F43
:100B0000D801E82F1D92EA95E9F791E0998334E046
:100B10003A8342E04B8393E09D834E833F8340E4DE
:100B2000488735E039879A8796E09B8793E39C87CF
:100B300037E03D8798E09F8799E0998B99E19B8BFF
:100B400092E49C8B55E25D8B4E8B46E24F8B388F47
:100B500038E2398F30E13A8F39E23B8F3CED3C8F00
:100B60008D8F88E88E8F8FE28F8F8DE288A380E350
:100B700089A337E33BA330E93CA338E33DA39EA31D
:100B80009CE39FA39FE898A79DE399A792E19AA76A
:100B90009FE69BA78CA78FEF8DA76F3131F06B324B
:100BA00031F0663531F489ED05C08EE403C08CE682
:100BB00001C084EE8E876F3141F06B3221F06635D3
:100BC00021F480E003C080E401C080EC888B2AA37C
:100BD00061E0D70112968C910E94D50D61E0F7017A
:100BE00082810E949C0D0E94C5080E94B20C4B019C
:100BF0005C014AEA6FE2C7010E94BE036FE2C701CF
:100C00000E9494038A3A59F00E94B20C681979093B
:100C10008A099B09623371058105910550F30E9491
:100C2000B20C4B015C0145E56FE2C7010E94BE03B7
:100C30006FE2C7010E949403853559F00E94B20CFF
:100C4000681979098A099B09623371058105910543
:100C500050F3B12CF801EB0DF11DEB0DF11D60818E
:100C60006F3F31F04181C7010E94BE03B394F2CFC0
:100C700060E070E0C7010E942105D701ED91FC9171
:100C800011970084F185E02D18966C91C7010995A4
:100C9000D701ED91FC910488F589E02D61E0C70151
:100CA00009950E94B20C4B015C0167E2C7010E94EA
:100CB000940387FD0BC00E94B20C681979098A0958
:100CC0009B09623371058105910578F30E94B20C8E
:100CD000681979098A099B096233710581059105B3
:100CE00088F443E050E06EEA72E0F70184810E94EC
:100CF000550BF0921102E0921002D7011596DC928A
:100D000081E001C080E0AE960FB6F894DEBF0FBE62
:100D1000CDBFDF91CF911F910F91FF90EF90DF90AA
:100D2000BF90AF909F908F900895CF93DF93EC0189
:100D300061110DC064E2CE010E94940390E0919590
:100D40008195910995958795DF91CF91089541E01F
:100D500063E20E94BE0363E2CE010E94940381FF1E
:100D6000FACFE8CFCF93DF93EC0180911A02833062
:100D7000A9F480911602811111C060E0CE010E9499
:100D80009406863A9F4F54F4E881F9810488F589E6
:100D9000E02D61E0CE01099581E001C080E0DF91A6
:100DA000CF910895FF920F931F93CF93DF93EC01A0
:100DB00080911A02833001F568E2CE010E9494030B
:100DC00082FD28C019C0809119028D3330F4E09162
:100DD0001902F0E0E55EFD4F1082E881F981028C96
:100DE000F38DE02DCE010995E881F9810488F5891C
:100DF000E02D63E0CE01099560E0CE010E949406EB
:100E00009093130280931202DF91CF911F910F9163
:100E1000FF900895E881F9810488F589E02D61E06B
:100E2000CE010995E881F981008CF18DE02DCE018C
:100E3000099580E00E94000380E00E9400038093F7
:100E40001602809116028334D0F4809116028093AA
:100E5000160280E00E940003809317028E818111A8
:100E600009C0909117028D81981721F08091170287
:100E70008F3F39F480911602833018F017C082E456
:100E8000E6CF10921602E881F981028CF38DE02DF5
:100E9000CE010995E881F9810288F389E02DCE0120
:100EA000DF91CF911F910F91FF90099480911602CD
:100EB00083508093190280E00E94000380931802FF
:100EC00080E00E940003982F907890931402982F4E
:100ED000907490931502E881F9810684F785E02DDE
:100EE000682FCE010995F12C80911902F81608F0AF
:100EF0006ACF0F2D10E080E00E940003F801E55E4C
:100F0000FD4F8083F394F0CF4F925F926F927F9268
:100F10009F92AF92BF92EF920F931F93CF93DF9365
:100F2000EC01162F5A01922E6DE30E949403482F74
:100F300044606DE3CE010E94BE030E94B20C2B01FF
:100F40003C01CE010E94B1068823C1F0E881F981FD
:100F50000088F189E02DE12C292DA501612FCE011A
:100F60000995DF91CF911F910F91EF90BF90AF90B6
:100F70009F907F906F905F904F9008950E94B20C69
:100F80006419750986099709683E734081059105C2
:100F9000E8F6E881F9810480F581E02DCE0109951C
:100FA00064E670E088E00E940703CBCF4F925F9227
:100FB0006F927F929F92AF92BF92CF92DF92EF9209
:100FC000FF920F93CF93DF93EC015B01942E10926D
:100FD0001502F0901802C0901202D09013026DE337
:100FE0000E949403482F44606DE3CE010E94BE032B
:100FF0000E94B20C2B013C01CE010E94B106882355
:1010000001F1E881F9810088F189E02DEE24E39473
:1010100000E0292DA5016F2DCE010995D092130274
:10102000C0921202DF91CF910F91FF90EF90DF906D
:10103000CF90BF90AF909F907F906F905F904F90B8
:1010400008950E94B20C6419750986099709683ED3
:10105000734081059105A8F6E881F9810480F58146
:10106000E02DCE010995C8CFCF93DF93EC016887BF
:10107000662311F04FE001C04AE163E1CE010E9416
:10108000BE038885882341F061E1CE010E9494036C
:10109000482F4F71406602C04F81406861E1CE0128
:1010A000DF91CF910C94BE031F93CF93DF93EC019C
:1010B000162F662311F04DE501C045E56AE5CE0126
:1010C0000E94BE03112311F04CE701C040E76CE51C
:1010D000CE01DF91CF911F910C94BE03CF93DF938C
:1010E000EC01862F6A8361E00E94D50D61E08A8160
:1010F000DF91CF910C949C0D0F931F93CF93DF93AF
:10110000EC0111E0E881F981008CF18DE02DCE0138
:101110000995812F0E94000380E00E940003082FA0
:10112000E881F981028CF38DE02DCE01099540E133
:1011300050E0612F83EB92E00E942B126DE671E08C
:1011400083EB92E00E94541140E150E0602F83EB6A
:1011500092E00E942B126DE671E083EB92E00E9418
:10116000541142E050E0602F83EB92E00E94321273
:101170001F5F103539F6E881F981028CF38DE02D7F
:10118000CE01DF91CF911F910F910994CF93CFB7EB
:10119000F89480915802811127C0E9E1F1E084912F
:1011A000EAEFF0E09491E82FF0E0EE0FFF1FED5B27
:1011B000FE4FA591B4918C91892321F461E081E1E6
:1011C0000E94D50D61E081E10E949C0D8CB580618B
:1011D0008CBD8CB580648CBD61E08FE00E949C0D5D
:1011E00061E080E10E949C0D809158028F5F8093A6
:1011F0005802CFBFCF910895CF93CFB7F894E6E5CB
:10120000F8E30995CFBFCF91089540E050E063E047
:101210000C94FB08AB0161E00C94FB0840E050E04B
:1012200065E00C94FB08DF92EF92FF920F931F93FF
:10123000CF93DF938C01D62EEC01CA50D84CCE014F
:101240008F7099277E01E894E7F8FF24892BE1F459
:1012500083EB92E00E945D1140E150E0BE0183EB20
:1012600092E00E944912E114F10449F460E483EB36
:1012700092E00E945611CE010E94040905C06AE363
:1012800083EB92E00E94561160E283EB92E00E94B1
:10129000561140E150E06D2D83EB92E00E942B123D
:1012A000C0FD03C0D09259020EC06D2D772767FD97
:1012B0007095762F662780915902682BC8018B5054
:1012C000984C0E9409098FE7E816F104C1F4095807
:1012D000184C6AE283EB92E00E945611C8010E940A
:1012E0000D0940E150E0B80183EB92E0DF91CF912E
:1012F0001F910F91FF90EF90DF900C944912DF91B6
:10130000CF911F910F91FF90EF90DF900895FC0116
:10131000DB0185E791E09183808312968C9112978F
:10132000828313968C911397838314968C911497D0
:10133000848315968C911597858316968C911697B4
:10134000868317968C911797878318968C91189798
:10135000808719968C91199781871A968C9182872C
:1013600008952F923F924F925F926F927F928F9249
:101370009F92AF92BF92CF92DF92EF92FF920F9324
:101380001F93CF93DF93CDB7DEB764970FB6F89472
:10139000DEBF0FBECDBF7C016A8B298B46E061ECBE
:1013A00071E00E94D5070E94B20C1B012C019AE04B
:1013B000C92ED12CA12CB12C9E012F5F3F4F49018A
:1013C000C7010E94DE028823F9F0809118023A8951
:1013D00083131AC020911902243020F080911B023F
:1013E0008634F9F061E089890E949C0D61E0898969
:1013F0000E94D50D61E070E080E090E00E94E10C79
:1014000060E089890E94D50D0E94B20C62197309AF
:1014100084099509693B7B408105910588F280E04C
:10142000B8C080911C028C34E9F680911D02883589
:10143000C9F680911E028A3309F075C0273008F47E
:1014400072C084E090E000E010E0782E4FEF480F8B
:10145000FC01E55EFD4F50815033A0F050815A33BE
:1014600088F44081AAE0B801A69F8001A79F100DD3
:10147000112400531109040F111D019688309105A4
:1014800021F707C050815A33C1F764E0761639F26C
:10149000742EE1E0E70DF0E0E55EFD4F80818A33D8
:1014A00009F0BDCF2C8B0E94B20C1B012C012C89A2
:1014B0000A151B0531F0C50101970817190799F5A1
:1014C0001BC032E0370D58017FEFA71AB70A321759
:1014D00098F4E32FF0E0E55EFD4F608136018FEF79
:1014E000681A780AC6012C8B3B8B0E9412093B8933
:1014F0003F5F63012C89EBCF1F930F93A1E9B1E00C
:10150000BF93AF939F928F922C8B0E947217482F9C
:10151000B401C7010E94D5070F900F900F900F9054
:101520000F900F902C8980911E028F3309F05ACFB3
:10153000243039F446E061EC71E0C7010E94D50720
:1015400051CF273009F04ECF80911F02853409F02A
:1015500049CF809120028F3409F044CF809121023D
:10156000863409F03FCFBAE0CB1AD10821E0C21689
:101570002CE7D20638F047E06BE971E0C7010E9422
:10158000D5074DCF46E061EC71E0C7010E94D50759
:1015900081E064960FB6F894DEBF0FBECDBFDF9139
:1015A000CF911F910F91FF90EF90DF90CF90BF9060
:1015B000AF909F908F907F906F905F904F903F90F3
:1015C0002F90089568EC71E083EB92E00E94611126
:1015D00088E10FB6F89480936000109260000FBE0F
:1015E00028E088E190E00FB6F894A8958093600019
:1015F0000FBE20936000FFCF0F931F93CF93DF9315
:10160000CDB7DEB72C970FB6F894DEBF0FBECDBFB7
:10161000062F242F309119023430E0F130911B0253
:101620003634C1F530911C023C34A1F530911D02D5
:10163000383581F530911E023F3361F51091180263
:10164000309119023730A1F430911F02353481F402
:10165000309120023F3461F430912102363441F45C
:1016600000E026E041EC51E0612F0E94830712C0A8
:10167000BC01CE0101962C870E9486092C85402F43
:10168000612FCE0101960E94B009882319F0802FA6
:101690000E94E10A2C960FB6F894DEBF0FBECDBFB4
:1016A000DF91CF911F910F9108950895853008F033
:1016B0004CC0E82FF0E0EE0FFF1FE65FFE4F718396
:1016C00060838230E1F018F4813069F004C0833027
:1016D00019F1843071F1809169008C7F842B8093A3
:1016E0006900E89A089580916900440F551F440FDE
:1016F000551F837F842B80936900E99A0895809118
:10170000690034E0440F551F3A95E1F78F7C842B34
:1017100080936900EA9A08958091690026E0440F59
:10172000551F2A95E1F78F73842B80936900EB9AFC
:10173000089580916A0094E0440F551F9A95E1F74F
:101740008F7C842B80936A00EE9A08951F920F92EB
:101750000FB60F9211242F933F934F935F936F9384
:101760007F938F939F93AF93BF93EF93FF93E091FA
:101770000A01F0910B010995FF91EF91BF91AF9193
:101780009F918F917F916F915F914F913F912F9199
:101790000F900FBE0F901F9018951F920F920FB6CB
:1017A0000F9211242F933F934F935F936F937F93E7
:1017B0008F939F93AF93BF93EF93FF93E0910C01AF
:1017C000F0910D010995FF91EF91BF91AF919F911C
:1017D0008F917F916F915F914F913F912F910F90DA
:1017E0000FBE0F901F9018951F920F920FB60F9279
:1017F00011242F933F934F935F936F937F938F9316
:101800009F93AF93BF93EF93FF93E0910E01F091FD
:101810000F010995FF91EF91BF91AF919F918F912A
:101820007F916F915F914F913F912F910F900FBEDC
:101830000F901F9018951F920F920FB60F921124C0
:101840002F933F934F935F936F937F938F939F93C8
:10185000AF93BF93EF93FF93E0911001F0911101CB
:101860000995FF91EF91BF91AF919F918F917F91DA
:101870006F915F914F913F912F910F900FBE0F90FD
:101880001F9018951F920F920FB60F9211242F934D
:101890003F934F935F936F937F938F939F93AF93F8
:1018A000BF93EF93FF93E0911201F091130109951B
:1018B000FF91EF91BF91AF919F918F917F916F9128
:1018C0005F914F913F912F910F900FBE0F901F90FE
:1018D00018951F920F920FB60F9211242F933F93DA
:1018E0008F939F93AF93BF9380915B0290915C0223
:1018F000A0915D02B0915E0230915A0226E0230F62
:101900002D3720F40296A11DB11D05C029E8230F33
:101910000396A11DB11D20935A0280935B02909300
:101920005C02A0935D02B0935E0280915F02909191
:101930006002A0916102B09162020196A11DB11DE9
:1019400080935F0290936002A0936102B093620261
:10195000BF91AF919F918F913F912F910F900FBEAB
:101960000F901F9018952FB7F89460915B027091BB
:101970005C0280915D0290915E022FBF08953FB797
:10198000F89480915F0290916002A0916102B09101
:10199000620226B5A89B05C02F3F19F00196A11D34
:1019A000B11D3FBF6627782F892F9A2F620F711DB7
:1019B000811D911D43E0660F771F881F991F4A956F
:1019C000D1F70895CF92DF92EF92FF92CF93DF93FA
:1019D0006B017C010E94BE0CEB01C114D104E10437
:1019E000F10489F00E948F160E94BE0C6C1B7D0BC7
:1019F000683E734090F381E0C81AD108E108F1080D
:101A0000C851DC4FEACFDF91CF91FF90EF90DF908C
:101A1000CF900895789484B5826084BD84B5816048
:101A200084BD85B5826085BD85B5816085BDEEE6E6
:101A3000F0E0808181608083E1E8F0E010828081C5
:101A400082608083808181608083E0E8F0E0808133
:101A500081608083E1E9F0E0808182608083808121
:101A600081608083E0E9F0E0808181608083E1EC47
:101A7000F0E08081846080838081826080838081C7
:101A800081608083E3ECF0E0808181608083E0EC22
:101A9000F0E0808182608083E2ECF0E08081816010
:101AA0008083EAE7F0E080818460808380818260C7
:101AB000808380818E7F8083808180688083089589
:101AC00090E0FC013197EF30F105B0F5EA5AFF4F95
:101AD0000C946C17809180008F7703C080918000F8
:101AE0008F7D80938000089580918000877FF9CF5B
:101AF00084B58F7702C084B58F7D84BD08958091B1
:101B000090008F7707C0809190008F7D03C08091F7
:101B10009000877F8093900008958091C0008F7718
:101B200003C08091C0008F7D8093C0000895809194
:101B3000C200877F8093C2000895CF93DF9390E027
:101B4000FC01E751FF4F2491FC01E85FFE4F8491B7
:101B5000882349F190E0880F991FFC01ED5BFE4F4F
:101B6000A591B4918B5C9E4FFC01C591D4919FB718
:101B7000611108C0F8948C91209582238C93888100
:101B800082230AC0623051F4F8948C91322F309540
:101B900083238C938881822B888304C0F8948C9152
:101BA000822B8C939FBFDF91CF9108950F931F934A
:101BB000CF93DF931F92CDB7DEB7282F30E0F90126
:101BC000E653FF4F8491F901E751FF4F1491F9015A
:101BD000E85FFE4F04910023C9F0882321F0698358
:101BE0000E945F0D6981E02FF0E0EE0FFF1FEB5CBC
:101BF000FE4FA591B4919FB7F8948C91611103C0E9
:101C00001095812301C0812B8C939FBF0F90DF9192
:101C1000CF911F910F910895CF93DF93282F30E03C
:101C2000F901E653FF4F8491F901E751FF4FD49139
:101C3000F901E85FFE4FC491CC2391F081110E941D
:101C40005F0DEC2FF0E0EE0FFF1FE95DFE4FA59159
:101C5000B4912C912D2381E090E021F480E002C02A
:101C600080E090E0DF91CF910895CF93DF931F92B2
:101C7000CDB7DEB76983DC01ED91FC910280F38181
:101C8000E02D41E050E0BE016F5F7F4F09950F905E
:101C9000DF91CF910895CF93DF93EC018C859D85E3
:101CA00097FF05C082E00E9460139D878C878C851A
:101CB0009D85DF91CF91089583E00C94DB15FC01A5
:101CC0008485958597FD06C082E00E94081390E008
:101CD0000196089582E00E94081390E00895FC01A7
:101CE0008485958597FD05C02FEF3FEF35872487C5
:101CF000089582E00C946013CF93DF93EC01809100
:101D00001F01882331F083E00E94911318161906F1
:101D100034F081E090E09B838A8380E090E0DF9163
:101D2000CF910895FC0120812E5F208342E450E092
:101D300061E571E080E80C942C14FC012181808124
:101D4000813A59F4213209F05CC047E050E068E183
:101D500071E080E00E942C1467C0813209F051C00C
:101D6000233289F4838190E0982F88273281832B56
:101D7000A0E0B0E08093140190931501A0931601A8
:101D8000B09317010FC0203239F467E070E088E1AA
:101D900091E00E945D140AC0223221F48281809376
:101DA0001F0104C02D7F203209F03EC08091180130
:101DB00090911901A0911A01B0911B01803B9440B0
:101DC000A105B10501F580911F0180FD1CC0809126
:101DD0000008909101089093FF0A8093FE0A87E71C
:101DE00097E790930108809300082BE088E190E04A
:101DF0000FB6F894A895809360000FBE2093600002
:101E000013C080E0089588E10FB6F89480936000D5
:101E1000109260000FBEA8958091FE0A9091FF0A73
:101E2000909301088093000881E008951092660263
:101E30001092650288EE93E0A0E0B0E08093670224
:101E400090936802A0936902B0936A0286ED91E0D4
:101E500090936402809363028FEF9FEF90937002E0
:101E600080936F020895FC01818D228D90E0805C4B
:101E70009F4F821B91098F7399270895FC01918DC3
:101E8000828D981731F0828DE80FF11D858D90E0DD
:101E900008958FEF9FEF0895FC01918D828D981723
:101EA00061F0828DDF01A80FB11D5D968C91928D3E
:101EB0009F5F9F73928F90E008958FEF9FEF08953B
:101EC00089EC90E1892B49F080E090E0892B29F0A2
:101ED0000E94C91081110C9400000895FC01848DAA
:101EE000DF01A80FB11DA35ABF4F2C91848D90E044
:101EF00001968F739927848FA689B7892C93A0891F
:101F0000B1898C9180648C93938D848D981306C0D5
:101F10000288F389E02D80818F7D80830895CF939F
:101F2000DF93EC01888D8823C9F0EA89FB898081E1
:101F300085FD05C0A889B9898C9186FD0FC00FB6B3
:101F400007FCF5CF808185FFF2CFA889B9898C91F4
:101F500085FFEDCFCE010E946D0FE7CFDF91CF91CE
:101F60000895CF92DF92FF920F931F93CF93DF9349
:101F70001F92CDB7DEB76C0181E0D60158968C93E5
:101F800058975B969C915B975C968C915C979813A5
:101F900007C05096ED91FC915197808185FD2EC030
:101FA000F601038D10E00F5F1F4F0F731127F02E06
:101FB000F601848DF81211C00FB607FCF9CFD601D7
:101FC0005096ED91FC915197808185FFF1CFC6012C
:101FD00069830E946D0F6981EBCF838DE80FF11D3E
:101FE000E35AFF4F6083D6015B960C935B97529642
:101FF000ED91FC915397808180620CC0D60156967A
:10200000ED91FC91579760835096ED91FC9151971B
:1020100080818064808381E090E00F90DF91CF9198
:102020001F910F91FF90DF90CF900895BF92CF92B4
:10203000DF92EF92FF92CF93DF93EC016A017B0175
:10204000B22E60E874E88EE190E0A70196010E944C
:102050002B1721503109410951095695479537955C
:102060002795E889F98982E08083211580E1380786
:1020700098F0E889F989108260E472E48FE090E0DA
:10208000A70196010E942B172150310941095109DE
:102090005695479537952795EC85FD853083EE85D8
:1020A000FF852083188EEC89FD89B082EA89FB893F
:1020B000808180618083EA89FB8980818860808358
:1020C000EA89FB89808180688083EA89FB89808135
:1020D0008F7D8083DF91CF91FF90EF90DF90CF9045
:1020E000BF9008951F920F920FB60F9211242F9355
:1020F0008F939F93EF93FF93E091C302F091C402FB
:102100008081E091C902F091CA0282FD12C09081E3
:102110008091CC028F5F8F732091CD02821751F096
:10212000E091CC02F0E0ED54FD4F958F8093CC020E
:1021300001C08081FF91EF919F918F912F910F901E
:102140000FBE0F901F9018951F920F920FB60F920F
:1021500011242F933F934F935F936F937F938F93AC
:102160009F93AF93BF93EF93FF9383EB92E00E9413
:102170006D0FFF91EF91BF91AF919F918F917F91E3
:102180006F915F914F913F912F910F900FBE0F90E4
:102190001F90189583EB92E00E94320F21E0892B6B
:1021A00009F420E0822F08951092B6021092B50231
:1021B00088EE93E0A0E0B0E08093B7029093B8027D
:1021C000A093B902B093BA0286EE91E09093B40264
:1021D0008093B3028DEC90E09093C0028093BF0295
:1021E0008CEC90E09093C2028093C10288EC90E066
:1021F0009093C4028093C30289EC90E09093C6024E
:102200008093C5028AEC90E09093C8028093C70245
:102210008EEC90E09093CA028093C9021092CC0297
:102220001092CD021092CE021092CF020895CF925A
:10223000DF92EF92FF920F931F93CF93DF937C0176
:102240006A01EB0100E010E00C151D0571F06991C9
:10225000D701ED91FC910190F081E02DC701099526
:10226000892B19F00F5F1F4FEFCFC801DF91CF917E
:102270001F910F91FF90EF90DF90CF90089561151F
:10228000710581F0DB010D900020E9F7AD014150AF
:102290005109461B570BDC01ED91FC910280F38143
:1022A000E02D099480E090E008950C943E11DC014B
:1022B000ED91FC910190F081E02D099462EF71E0C5
:1022C0000C943E110F931F93CF93DF93EC010E9468
:1022D0003E118C01CE010E945D11800F911FDF9194
:1022E000CF911F910F9108958F929F92AF92BF92BD
:1022F000CF92DF92EF92FF920F931F93CF93DF93D2
:10230000CDB7DEB7A1970FB6F894DEBF0FBECDBF35
:102310007C01C42EE52FCB01D22E19A221E02D1570
:1023200010F02AE0D22E8E010F5D1F4F8D2C912CC4
:10233000A12CB12C6C2D7E2FA50194010E942B178E
:102340008C2DD29E80191124015011098A3014F469
:10235000805D01C0895CF80180832115310541054C
:10236000510521F0C22EE32FCA01E4CFB801C70105
:102370000E943E11A1960FB6F894DEBF0FBECDBFEE
:10238000DF91CF911F910F91FF90EF90DF90CF9051
:10239000BF90AF909F908F900895CF92DF92EF9271
:1023A000FF920F931F93CF93DF93EC016A017B01A0
:1023B0002115310579F4E881F9810190F081E02D52
:1023C000642FDF91CF911F910F91FF90EF90DF90DD
:1023D000CF9009942A303105E9F477FF1AC06DE2F5
:1023E0000E9456118C0144275527BA014C195D09EA
:1023F0006E097F092AE0CE010E947311800F911FA0
:10240000DF91CF911F910F91FF90EF90DF90CF90D0
:1024100008952AE0B701A601CE01DF91CF911F9167
:102420000F91FF90EF90DF90CF900C9473119A0171
:10243000AB01662757FD6095762F0C94CC112115C2
:10244000310541F4DC01ED91FC910190F081E02D2A
:10245000642F09940C9473119A01462F50E060E0A8
:1024600070E00C941E120F931F93CF93DF93EC0137
:102470009A01462F50E060E070E00E941E128C012D
:10248000CE010E945D11800F911FDF91CF911F91AE
:102490000F9108959A01AB0160E070E00C941E1258
:1024A000615030F02091F100FC0120830196F8CFBB
:1024B000289884E6809359030895409154035091DD
:1024C0005503209152033091530342175307B4F43C
:1024D0009091E8009570E1F39091E80092FD19C0A9
:1024E0008093F100809154039091550301968F736E
:1024F0009927892B19F48EEF8093E800809154037B
:10250000909155030196909355038093540381E075
:10251000089580E00895CF92DF92EF92FF920F939B
:102520001F93CF93DF931F92CDB7DEB7082F162FDF
:10253000F42E862F880F8E5F99830E945C1283E0B1
:102540000E945C12E02EC02E9981D92E8C2D8E19FE
:10255000811798F4F601F7FE02C0849101C08081D2
:102560000E945C12082F80E00E945C128023FFEF23
:10257000CF1ADF0A8111EACF01C081E00F90DF910D
:10258000CF911F910F91FF90EF90DF90CF90089522
:102590008091D70081608093D70080EA8093D80033
:1025A00089B58F7E89BD89B5826089BD09B400FE79
:1025B000FDCF61E070E080E090E00E94E10C80914E
:1025C000D8008F7C80618093D8008091E000807F6C
:1025D0008093E0000895CF93DF931F92CDB7DEB7CD
:1025E0001982CE0101960E94910E0E941717BE011A
:1025F0006F5F7F4F0E94901689810F90DF91CF917E
:1026000008952FB7FC012083F89467706093E90068
:102610000895CF93DF931F92CDB7DEB7682FCE0119
:1026200001960E9400138091F20099819FBF0F9044
:10263000DF91CF910895FF920F931F93CF93DF9374
:1026400000D0CDB7DEB7F62E8A01909158039923BA
:1026500011F057FF03C08FEF9FEF2BC0682FCE0103
:1026600001967A830E9400138091F20090E0A80105
:102670007A81801791070CF4AC01EF2DF72FF40E3F
:1026800084E6FE1639F02898809359039091F10062
:102690009193F7CF4115510521F08091F2008823E5
:1026A00021F089818FBFCA0104C08BE68093E800C6
:1026B000F8CF0F900F90DF91CF911F910F91FF9066
:1026C0000895CF93DF931F92CDB7DEB741E050E07E
:1026D000BE016F5F7F4F0E941A13019719F4898121
:1026E00090E002C08FEF9FEF0F90DF91CF910895A0
:1026F000CF93DF931F92CDB7DEB7682FCE0101963F
:102700000E9400139091E800892F807295FF04C009
:102710009091F20080E4891B99819FBF0F90DF9117
:10272000CF9108956F927F928F929F92AF92BF92B6
:10273000CF92DF92EF92FF920F931F93CF93DF938D
:102740001F92CDB7DEB7782E7B01C42EB52E8091B7
:102750005803882369F0042F152F8AEFD82E872D70
:102760008072982E9AE3A92E872D8074882E11C02E
:102770008FEF9FEF57C0872D0E947713682E81112E
:102780000CC0DA94A9F361E070E080E090E00E9470
:10279000E10C0115110579F73BC0282F30E0021735
:1027A00013070CF4602E672DCE0101960E940013D2
:1027B0008091E80085FF29C0262D30E0021B130B15
:1027C000992039F06A948FEF6816B1F01092F100F9
:1027D000F9CFF701862D77FE07C0815058F094910C
:1027E0009093F1003196F9CF815020F09191909320
:1027F000F100FACFE20EF31E8091E80085FF0FC0D2
:102800000115110511F481100AC089818FBFC1CF54
:102810005D9884E680935A038C2D9B2D03C0A09273
:10282000E800F3CF0F90DF91CF911F910F91FF90B0
:10283000EF90DF90CF90BF90AF909F908F907F9060
:102840006F9008951092E90010925503109254036E
:1028500090935303809352030895CF92DF92FF9297
:102860000F931F93CF93DF9300D0CDB7DEB7F82E31
:102870008A016B0101151105B1F0F601F7FE02C0E6
:10288000849101C0808149835A830E945C12015067
:102890001109FFEFCF1ADF0A49815A818111EACF6E
:1028A0008FEF9FEF01C0CA010F900F90DF91CF9182
:1028B0001F910F91FF90DF90CF9008951F93CF93BA
:1028C000DF931F92CDB7DEB7162F2091E80022FFCD
:1028D000FCCF612F79830E944F128BEF8093E80029
:1028E000812F7981972F0F90DF91CF911F910895BC
:1028F0001F920F920FB60F921124DF92EF92FF9268
:102900000F931F932F933F934F935F936F937F93F7
:102910008F939F93AF93BF93EF93FF93CF93DF93E7
:10292000CDB7DEB76C97DEBFCDBF1092E9008091C6
:10293000E80083FF23C168E0CE0145960E944F1254
:1029400082EF8093E8003D8937FF05C08091E80061
:1029500080FFFCCF03C08EEF8093E800832F80764A
:1029600009F0F0C02E894F89D88C21110CC0303865
:1029700029F4809157038093F10002C01092F10076
:102980001092F100F4C0842F90E09D29213049F489
:102990003111EDC0019709F0EAC0809157038D7F96
:1029A0000AC0233059F43111E2C0019709F0DFC0A9
:1029B00080915703826080935703D9C0253041F43A
:1029C0008091E80080FFFCCF40684093E300CFC0D7
:1029D000263009F08DC0EB8CFC8C22E0D2122CC08A
:1029E00080E090E00E9421140E94EA1299E08E019A
:1029F0000F5F1F4FF801292F11922A95E9F799834C
:102A0000DA8291E09E8390EA98879AEF99872091E5
:102A1000540330915503275F3F4F3C832B838D83B5
:102A2000C7010E94211449E050E0B80180E00E94F3
:102A30002C140E94EA129BC0C7010E9421140E941C
:102A40001717BE016B5E7F4F0E94B916009719F0F1
:102A50000CF08DC090C081E0D8120EC08B8D9C8D83
:102A6000089719F481E080935103809151038111FB
:102A70002FC065EA71E031C0E3E0DE127CC08F89CF
:102A8000882349F1823029F440E86BE080EC91E042
:102A90001CC0813029F440E868E087EB91E015C064
:102AA000833009F068C00E9417178E010F5F1F4F17
:102AB000B8010E94D816F80101900020E9F731977B
:102AC000E01BF10B40E06E2FC8010E948A124DC03E
:102AD00063E971E002C06CEC71E06115710509F405
:102AE0004AC0FB01449150E080E80E942C143FC092
:102AF000273009F440C0283021F481E08093F100B0
:102B000036C02930A1F53370B1F5E1E2F1E081E0A2
:102B100021E036E39081992361F08093E9002093CE
:102B2000EB0091919093EC003093ED008F5F873034
:102B300089F78EE78093EA001092EA008F898093EC
:102B4000580315C08B8D9C8D0E942114898D811195
:102B500005C0CE0145960E949C0E07C00E94171723
:102B6000BE016B5E7F4F0E94F716882321F08EEF27
:102B70008093E80003C081E28093EB006C960FB66F
:102B8000F894DEBF0FBECDBFDF91CF91FF91EF91E3
:102B9000BF91AF919F918F917F916F915F914F9175
:102BA0003F912F911F910F91FF90EF90DF900F9029
:102BB0000FBE0F901F9018958093E9008091F2004E
:102BC000882319F08AE38093E80008951F920F92FA
:102BD0000FB60F9211242F933F934F935F936F93F0
:102BE0007F938F939F93AF93BF93CF93EF93FF9375
:102BF000C091E1008091E100837F8093E1008093A8
:102C0000E100C3FF0FC01092E90081E08093EB0068
:102C10001092EC0082E38093ED001092580388E05C
:102C20008093F000C2FF19C083E00E94DB15809101
:102C30005A03882339F080915A03815080935A03B4
:102C4000882389F180915903882339F080915903B1
:102C5000815080935903882341F1C4FF10C08091B3
:102C6000E2008E7E81608093E2008091E1008F7EA1
:102C70008093E100809156038E7E806111C0C0FF79
:102C800016C08091E2008E7E80618093E200809188
:102C9000E1008E7E8093E100809156038E7E8160FC
:102CA0008093560304C05D9ACDCF289AD6CFFF916A
:102CB000EF91CF91BF91AF919F918F917F916F9144
:102CC0005F914F913F912F910F900FBE0F901F90EA
:102CD00018951092580310925703109256030E94B1
:102CE000C712E1EEF0E080818E7E80838DE08093DC
:102CF000E200559A209A089508950E94090D0E94B5
:102D00007B1680E593E00E9468160E941501CFE5CE
:102D1000DFE00E948C012097E1F30E945F0FF9CF62
:102D20000895EF92FF920F931F93CF93DF937B0150
:102D3000FC01C281D38100E010E0209781F0E8819E
:102D4000F9810280F381E02DB701CE01099597FD4D
:102D500008C0080F191F0884D985C02DEECFC801FF
:102D600002C08FEF9FEFDF91CF911F910F91FF90E6
:102D7000EF9008950F931F93CF93DF938B01FC0186
:102D8000C281D381209771F0E881F9810480F581B7
:102D9000E02DB801CE010995009731F40884D9855A
:102DA000C02DF0CF80E090E0DF91CF911F910F9187
:102DB00008950F931F93CF93DF938B01FC01C28182
:102DC000D381209771F0E881F9810680F781E02DA9
:102DD000B801CE010995080F111D0884D985C02DB1
:102DE000F0CFF8011082DF91CF911F910F910895DC
:102DF0000F931F93CF93DF938B01FC01C281D3818B
:102E0000209771F0E881F9810190F081E02DB801FF
:102E1000CE010995811106C00884D985C02DF0CF57
:102E200080E001C081E0DF91CF911F910F91089563
:102E300080915F0381110DC082E080935B0384E089
:102E400080935C0310925E0310925D0381E0809397
:102E50005F038BE593E00895A1E21A2EAA1BBB1B2A
:102E6000FD010DC0AA1FBB1FEE1FFF1FA217B30756
:102E7000E407F50720F0A21BB30BE40BF50B661F6C
:102E8000771F881F991F1A9469F760957095809530
:102E900090959B01AC01BD01CF010895052E97FBD4
:102EA0001EF400940E94641757FD07D00E942B1750
:102EB00007FC03D04EF40C94641750954095309560
:102EC00021953F4F4F4F5F4F089590958095709596
:102ED00061957F4F8F4F9F4F0895EE0FFF1F059015
:102EE000F491E02D0994AEE0B0E0E8E7F7E10C944E
:102EF0001A1A0D891E8986E08C831A8309838FEF45
:102F00009FE79E838D83AE01475E5F4F6F89788D0B
:102F1000CE0101960E949417EF81F885E00FF11F12
:102F200010822E96E4E00C94361AACE0B0E0EAE9A8
:102F3000F7E10C940C1A7C016B018A01FC011782E9
:102F40001682838181FFBDC1CE0101964C01F7013C
:102F50009381F60193FD859193FF81916F01882301
:102F600009F4ABC1853239F493FD859193FF8191CA
:102F70006F01853229F4B70190E00E947C19E7CFF8
:102F8000512C312C20E02032A0F48B3269F030F447
:102F9000803259F0833269F420612CC08D3239F0CF
:102FA000803339F4216026C02260246023C0286069
:102FB00021C027FD27C030ED380F3A3078F426FFC6
:102FC00006C0FAE05F9E300D1124532E13C08AE034
:102FD000389E300D1124332E20620CC08E3221F425
:102FE00026FD6BC1206406C08C3611F4206802C037
:102FF000883641F4F60193FD859193FF81916F012D
:103000008111C1CF982F9F7D9554933028F40C5F88
:103010001F4FFFE3F9830DC0833631F0833771F022
:10302000833509F05BC022C0F801808189830E5F7F
:103030001F4F44244394512C540115C03801F2E031
:103040006F0E711CF801A080B18026FF03C0652DB2
:1030500070E002C06FEF7FEFC5012C870E947119ED
:103060002C0183012C852F77222E17C03801F2E026
:103070006F0E711CF801A080B18026FF03C0652D82
:1030800070E002C06FEF7FEFC5012C870E946619C8
:103090002C012C852068222E830123FC1BC0832D4C
:1030A00090E048165906B0F4B70180E290E00E9423
:1030B0007C193A94F4CFF50127FC859127FE819184
:1030C0005F01B70190E00E947C1931103A94F1E061
:1030D0004F1A51084114510471F7E5C0843611F0BC
:1030E000893639F5F80127FF07C060817181828137
:1030F00093810C5F1F4F08C060817181882777FD25
:103100008095982F0E5F1F4F2F76B22E97FF09C024
:1031100090958095709561957F4F8F4F9F4F206858
:10312000B22E2AE030E0A4010E94AE19A82EA81801
:1031300044C0853729F42F7EB22E2AE030E025C026
:10314000F22FF97FBF2E8F36C1F018F4883579F051
:10315000B4C0803719F0883721F0AFC02F2F20611D
:10316000B22EB4FE0DC08B2D8460B82E09C024FF92
:103170000AC09F2F9660B92E06C028E030E005C037
:1031800020E130E002C020E132E0F801B7FE07C0E4
:1031900060817181828193810C5F1F4F06C06081C5
:1031A000718180E090E00E5F1F4FA4010E94AE1974
:1031B000A82EA818FB2DFF77BF2EB6FE0BC02B2D17
:1031C0002E7FA51450F4B4FE0AC0B2FC08C02B2D0B
:1031D0002E7E05C07A2C2B2D03C07A2C01C0752CB5
:1031E00024FF0DC0FE01EA0DF11D8081803311F432
:1031F000297E09C022FF06C07394739404C0822FF5
:10320000867809F0739423FD13C020FF06C05A2C62
:10321000731418F4530C5718732C731468F4B70113
:1032200080E290E02C870E947C1973942C85F5CF66
:10323000731410F4371801C0312C24FF12C0B701E9
:1032400080E390E02C870E947C192C8522FF17C018
:1032500021FF03C088E590E002C088E790E0B70155
:103260000CC0822F867859F021FD02C080E201C097
:103270008BE227FD8DE2B70190E00E947C19A51436
:1032800038F4B70180E390E00E947C195A94F7CF9C
:10329000AA94F401EA0DF11D8081B70190E00E942B
:1032A0007C19A110F5CF332009F451CEB70180E28B
:1032B00090E00E947C193A94F6CFF70186819781BD
:1032C00002C08FEF9FEF2C96E2E10C94281AFC01CC
:1032D0000590615070400110D8F7809590958E0F41
:1032E0009F1F0895FC016150704001900110D8F7B4
:1032F000809590958E0F9F1F08950F931F93CF93E6
:10330000DF93182F092FEB018B8181FD03C08FEF15
:103310009FEF20C082FF10C04E815F812C813D81D4
:10332000421753077CF4E881F9819F012F5F3F4FDB
:1033300039832883108306C0E885F985812F099594
:10334000892B29F72E813F812F5F3F4F3F832E83AB
:10335000812F902FDF91CF911F910F910895FA0146
:10336000AA27283051F1203181F1E8946F936E7FC4
:103370006E5F7F4F8F4F9F4FAF4FB1E03ED0B4E0B5
:103380003CD0670F781F891F9A1FA11D680F791FF6
:103390008A1F911DA11D6A0F711D811D911DA11D07
:1033A00020D009F468943F912AE0269F1124301917
:1033B000305D3193DEF6CF010895462F4770405DB2
:1033C0004193B3E00FD0C9F7F6CF462F4F70405D61
:1033D0004A3318F0495D31FD4052419302D0A9F7BC
:1033E000EACFB4E0A6959795879577956795BA95B6
:1033F000C9F700976105710508959B01AC010A2E7C
:1034000006945795479537952795BA95C9F7620F52
:10341000731F841F951FA01D08952F923F924F92F6
:103420005F926F927F928F929F92AF92BF92CF9254
:10343000DF92EF92FF920F931F93CF93DF93CDB75D
:10344000DEB7CA1BDB0B0FB6F894DEBF0FBECDBFD5
:1034500009942A88398848885F846E847D848C84A6
:103460009B84AA84B984C884DF80EE80FD800C81AF
:103470001B81AA81B981CE0FD11D0FB6F894DEBF92
:103480000FBECDBFED010895F894FFCF0000670394
:103490008000FFFFFFFF540B540B540B540B540BD5
:1034A000FFFFFFFF00E100000000000000C180817D
:1034B00000000073616D706C65456E6372797074A5
:1034C0004B657900537461727400252E34580046A0
:1034D0006C6173683A203078005265626F6F74696E
:1034E0006E670052464D3639726567733A00476F12
:1034F00074205B005D203E2000202D200000000095
:103500000083074103DE02D50733085504D106AD19
:10351000026F04F004E6035308C802B902464C588F
:103520003A25753A4F4B00464C583F4E4F4B00469C
:103530004C583F454F4600464C583F00464C583A81
:1035400025753A00464C583A494E56000A464C58A2
:103550003F4F4B005245424F4F54494E47000000E9
:103560000000340E7B0E5E0E6E0E4A0E5B0E0000E7
:103570000000B00F1611320F4B0F3D0F8E0F0D0ACA
:10358000006E616E00696E66006F7666002E000048
:10359000FFFFFFFFFFFFFFFFFFFFFFFFFFFFFFFF3B
:1035A000FFFFFFFFFFFFFFFFFFFFFFFFFFFFFFFF2B
:1035B000FFFFFFFFFFFFFFFFFFFFFFFFFFFFFFFF1B
:1035C000FFFFFFFFFFFFFFFFFFFFFFFFFFFFFFFF0B
:1035D000FFFFFFFFFFFFFFFFFFFFFFFFFFFFFFFFFB
:1035E000FFFFFFFFFFFFFFFFFFFFFFFFFFFFFFFFEB
:1035F000FFFFFFFFFFFFFFFFFFFFFFFFFFFFFFFFDB
:00000001FF
