:020000040000FA
:100000000C94E9000C9411010C9411010C94110151
:100010000C9411010C9411010C9411010C94110118
:100020000C9411010C9411010C94EF080C948107AD
:100030000C9411010C9411010C9411010C941101F8
:100040000C9411010C9411010C9411010C941101E8
:100050000C9411010C9411010C9411010C94DF010A
:100060000C9411010C9411010C9411010C941101C8
:100070000C9411010C9411010C9411010C941101B8
:100080000C9411010C9411010C9411010C941101A8
:100090000C9411010C9411010C9411010C94110198
:1000A0000C9411010C9411010C941101EE02F10257
:1000B000E002E402EA02120312031203F502F9025B
:1000C000FD020303070312030D03000000020009F1
:1000D0000F0000030401000C0000000000000000FD
:1000E0000000000000000000000408020110408031
:1000F000401020408040800802040180402010020F
:10010000011080102040402004040404040304056E
:1001100002020202040302020202060606060606A4
:100120000404020202040400000000230026002947
:10013000002C002F0000000000250028002B002EBE
:1001400000310000000000240027002A002D0030AC
:1001500000080B0002020201000904000001020273
:1001600000000524001001052401010104240206F9
:100170000524060001070581031000400904010061
:10018000020A000000070502024000000705830282
:1001900040000012010002EF0201404F1B089200D4
:1001A000010102030112010002000000404F1B0880
:1001B00092000101020301537061726B46756E007B
:1001C0004C696C7950616420555342000403090462
:1001D0005C0411241FBECFEFDAE0DEBFCDBF11E01B
:1001E000A0E0B1E0EEEBF4E102C005900D92AC3579
:1001F000B107D9F721E0ACE5B1E001C01D92AC3CFC
:10020000B207E1F711E0C2EDD1E004C02297FE0190
:100210000E94590AC03DD107C9F70E9486090C9473
:100220005D0A0C94000040E855E260E070E085E66D
:1002300091E00E94560460E086E00E94130360E0B3
:1002400087E00E94130360E088E00E94130360E0EF
:1002500089E00E94130360E08BE00E94130360E0DA
:100260008CE00E94130360E085E10E94130360E0CC
:1002700086E10E94130360E082E00E94130360E0C5
:1002800080E00E94130360E081E00E94130360E0BD
:100290008EE00E94130360E08FE00E94130360E091
:1002A00080E10C94130361E08DE00E9413030C9431
:1002B0001301CF93DF93EC01843691057CF468E35E
:1002C00071E085E691E00E948F04CA30D10534F4D4
:1002D00068E371E085E691E00E948F044AE050E017
:1002E000BE0185E691E0DF91CF910C9451050F930B
:1002F0001F93CF93DF93CDB7DEB76E970FB6F89409
:10030000DEBF0FBECDBF8EE1E3E1F1E0DE0111966D
:1003100001900D928A95E1F70E94290261E371E054
:1003200085E691E00E949C048E010F5F1F4FF8014B
:10033000819191918F018F3FFFEF9F0749F00E94BC
:10034000590168E371E085E691E00E948F04EFCFE8
:1003500085E691E00E9498048E010F5F1F4FF8011F
:10036000819191918F018F3FFFEF9F0759F00E947C
:100370004C030E94590168E371E085E691E00E9418
:100380008F04EDCF85E691E00E9498046CED75E056
:1003900080E090E00E94580280E090E06E960FB6F8
:1003A000F894DEBF0FBECDBFDF91CF911F910F91AB
:1003B000089580E090E00C9477010C94D9011F928D
:1003C0000F920FB60F9211242F933F938F939F9309
:1003D000AF93BF9380915D0190915E01A0915F0109
:1003E000B091600130915C0126E0230F2D3720F49D
:1003F0000296A11DB11D05C029E8230F0396A11D7A
:10040000B11D20935C0180935D0190935E01A093E8
:100410005F01B09360018091610190916201A091B0
:100420006301B09164010196A11DB11D809361012A
:1004300090936201A0936301B0936401BF91AF9167
:100440009F918F913F912F910F900FBE0F901F9012
:1004500018952FB7F89460915D0170915E018091BD
:100460005F01909160012FBF08953FB7F89480918C
:10047000610190916201A0916301B091640126B580
:10048000A89B05C02F3F19F00196A11DB11D3FBFCC
:100490006627782F892F9A2F620F711D811D911D5C
:1004A00043E0660F771F881F991F4A95D1F708957B
:1004B000CF92DF92EF92FF92CF93DF936B017C019B
:1004C0000E943502EB01C114D104E104F10489F06A
:1004D0000E9499090E9435026C1B7D0B683E734097
:1004E00090F381E0C81AD108E108F108C851DC4F47
:1004F000EACFDF91CF91FF90EF90DF90CF900895FA
:10050000789484B5826084BD84B5816084BD85B5EE
:10051000826085BD85B5816085BDEEE6F0E08081B5
:1005200081608083E1E8F0E01082808182608083D6
:10053000808181608083E0E8F0E080818160808359
:10054000E1E9F0E080818260808380818160808346
:10055000E0E9F0E0808181608083E1ECF0E080817F
:1005600084608083808182608083808181608083D9
:10057000E3ECF0E0808181608083E0ECF0E080815A
:1005800082608083E2ECF0E0808181608083EAE732
:10059000F0E08081846080838081826080838081BC
:1005A0008E7F8083808180688083089590E0FC0145
:1005B0003197EF30F105B0F5EA5AFF4F0C94570A26
:1005C000809180008F7703C0809180008F7D809321
:1005D0008000089580918000877FF9CF84B58F7760
:1005E00002C084B58F7D84BD0895809190008F777F
:1005F00007C0809190008F7D03C080919000877F1D
:100600008093900008958091C0008F7703C08091FF
:10061000C0008F7D8093C00008958091C200877FC5
:100620008093C2000895CF93DF9390E0FC01E751DF
:10063000FF4F2491FC01E85FFE4F8491882349F12C
:1006400090E0880F991FFC01ED5BFE4FA591B491DE
:100650008B5C9E4FFC01C591D4919FB7611108C07E
:10066000F8948C91209582238C93888182230AC0F0
:10067000623051F4F8948C91322F309583238C930F
:100680008881822B888304C0F8948C91822B8C9370
:100690009FBFDF91CF910895CF93DF93282F30E054
:1006A000F901E653FF4F8491F901E751FF4FD491CF
:1006B000F901E85FFE4FC491CC2391F081110E94B3
:1006C000D602EC2FF0E0EE0FFF1FE95DFE4FA59183
:1006D000B4912C912D2381E090E021F480E002C0C0
:1006E00080E090E0DF91CF910895CF93DF931F9248
:1006F000CDB7DEB76983DC01ED91FC910280F38117
:10070000E02D41E050E0BE016F5F7F4F09950F90F3
:10071000DF91CF910895CF93DF93EC018C859D8578
:1007200097FF05C082E00E946A069D878C878C85B2
:100730009D85DF91CF91089583E00C94E508FC013D
:100740008485958597FD06C082E00E94120690E0A0
:100750000196089582E00E94120690E00895FC013F
:100760008485958597FD05C02FEF3FEF358724875A
:10077000089582E00C946A06CF93DF93EC01809198
:100780000B01882331F083E00E949B06181619069E
:1007900034F081E090E09B838A8380E090E0DF91F9
:1007A000CF910895FC0120812E5F208342E450E028
:1007B00061E571E080E80C943607FC0121818081BD
:1007C000813A59F4213209F05CC047E050E064E01E
:1007D00071E080E00E94360767C0813209F051C0A5
:1007E000233289F4838190E0982F88273281832BEC
:1007F000A0E0B0E08093000190930101A09302017A
:10080000B09303010FC0203239F467E070E084E058
:1008100091E00E9467070AC0223221F4828180930E
:100820000B0104C02D7F203209F03EC080910401ED
:1008300090910501A0910601B0910701803B944081
:10084000A105B10501F580910B0180FD1CC08091CF
:100850000008909101089093FF0A8093FE0A87E7B1
:1008600097E790930108809300082BE088E190E0DF
:100870000FB6F894A895809360000FBE2093600097
:1008800013C080E0089588E10FB6F894809360006B
:10089000109260000FBEA8958091FE0A9091FF0A09
:1008A000909301088093000881E008952FEF3FEFB7
:1008B000FC01358724870895109268011092670122
:1008C00088EE93E0A0E0B0E08093690190936A0124
:1008D000A0936B01B0936C018EE391E0909366015D
:1008E000809365018FEF9FEF909372018093710168
:1008F00008956115710581F0DB010D900020E9F785
:10090000AD0141505109461B570BDC01ED91FC91A3
:100910000280F381E02D099480E090E008950C942A
:100920007904DC01ED91FC910190F081E02D0994B6
:100930006AE471E00C9479040F931F93CF93DF93D3
:10094000EC010E9479048C01CE010E949804800F72
:10095000911FDF91CF911F910F9108958F929F92D8
:10096000AF92BF92CF92DF92EF92FF920F931F93BD
:10097000CF93DF93CDB7DEB7A1970FB6F894DEBF64
:100980000FBECDBF7C01C42EE52FCB01D22E19A204
:1009900021E02D1510F02AE0D22E8E010F5D1F4FA1
:1009A0008D2C912CA12CB12C6C2D7E2FA5019401A6
:1009B0000E94350A8C2DD29E8019112401501109F4
:1009C0008A3014F4805D01C0895CF80180832115B0
:1009D00031054105510521F0C22EE32FCA01E4CFB4
:1009E000B801C7010E947904A1960FB6F894DEBF42
:1009F0000FBECDBFDF91CF911F910F91FF90EF9070
:100A0000DF90CF90BF90AF909F908F900895CF923E
:100A1000DF92EF92FF920F931F93CF93DF93EC013E
:100A20006A017B012115310579F4E881F981019092
:100A3000F081E02D642FDF91CF911F910F91FF90F6
:100A4000EF90DF90CF9009942A303105E9F477FFD9
:100A50001AC06DE20E9491048C0144275527BA0107
:100A60004C195D096E097F092AE0CE010E94AE048F
:100A7000800F911FDF91CF911F910F91FF90EF9009
:100A8000DF90CF9008952AE0B701A601CE01DF9153
:100A9000CF911F910F91FF90EF90DF90CF900C942A
:100AA000AE049A01AB01662757FD6095762F0C9432
:100AB0000705615030F02091F100FC012083019680
:100AC000F8CF289884E68093BE0108954091B9013B
:100AD0005091BA012091B7013091B80142175307E4
:100AE000B4F49091E8009570E1F39091E80092FDE4
:100AF00019C08093F1008091B9019091BA010196DB
:100B00008F739927892B19F48EEF8093E8008091D9
:100B1000B9019091BA0101969093BA018093B901FD
:100B200081E0089580E00895CF92DF92EF92FF92E6
:100B30000F931F93CF93DF931F92CDB7DEB7082F8C
:100B4000162FF42E862F880F8E5F99830E946605DC
:100B500083E00E946605E02EC02E9981D92E8C2D4F
:100B60008E19811798F4F601F7FE02C0849101C036
:100B700080810E946605082F80E00E946605802320
:100B8000FFEFCF1ADF0A8111EACF01C081E00F9099
:100B9000DF91CF911F910F91FF90EF90DF90CF9059
:100BA00008958091D70081608093D70080EA809378
:100BB000D80089B58F7E89BD89B5826089BD09B4A9
:100BC00000FEFDCF61E070E080E090E00E945802FE
:100BD0008091D8008F7C80618093D8008091E00064
:100BE000807F8093E0000895CF93DF931F92CDB76D
:100BF000DEB71982CE0101960E94D2030E94210A1B
:100C0000BE016F5F7F4F0E949A0989810F90DF912B
:100C1000CF9108952FB7FC012083F89467706093FB
:100C2000E9000895CF93DF931F92CDB7DEB7682F09
:100C3000CE0101960E940A068091F20099819FBF21
:100C40000F90DF91CF910895FF920F931F93CF9351
:100C5000DF9300D0CDB7DEB7F62E8A019091BD01AB
:100C6000992311F057FF03C08FEF9FEF2BC0682F20
:100C7000CE0101967A830E940A068091F20090E0EC
:100C8000A8017A81801791070CF4AC01EF2DF72FA2
:100C9000F40E84E6FE1639F028988093BE019091F8
:100CA000F1009193F7CF4115510521F08091F200A9
:100CB000882321F089818FBFCA0104C08BE680930D
:100CC000E800F8CF0F900F90DF91CF911F910F9117
:100CD000FF900895CF93DF931F92CDB7DEB741E029
:100CE00050E0BE016F5F7F4F0E942406019719F408
:100CF000898190E002C08FEF9FEF0F90DF91CF913D
:100D00000895CF93DF931F92CDB7DEB7682FCE0142
:100D100001960E940A069091E800892F807295FF43
:100D200004C09091F20080E4891B99819FBF0F90CD
:100D3000DF91CF9108956F927F928F929F92AF92A1
:100D4000BF92CF92DF92EF92FF920F931F93CF93B8
:100D5000DF931F92CDB7DEB7782E7B01C42EB52E60
:100D60008091BD01882369F0042F152F8AEFD82EBA
:100D7000872D8072982E9AE3A92E872D8074882E55
:100D800011C08FEF9FEF57C0872D0E948106682EFC
:100D900081110CC0DA94A9F361E070E080E090E08A
:100DA0000E9458020115110579F73BC0282F30E049
:100DB000021713070CF4602E672DCE0101960E94D6
:100DC0000A068091E80085FF29C0262D30E0021B2D
:100DD000130B992039F06A948FEF6816B1F01092D6
:100DE000F100F9CFF701862D77FE07C0815058F04A
:100DF00094919093F1003196F9CF815020F0919128
:100E00009093F100FACFE20EF31E8091E80085FF87
:100E10000FC00115110511F481100AC089818FBF1F
:100E2000C1CF5D9884E68093BF018C2D9B2D03C0BC
:100E3000A092E800F3CF0F90DF91CF911F910F9117
:100E4000FF90EF90DF90CF90BF90AF909F908F90EA
:100E50007F906F9008951092E9001092BA0110925D
:100E6000B9019093B8018093B7010895CF92DF92B2
:100E7000FF920F931F93CF93DF9300D0CDB7DEB7D0
:100E8000F82E8A016B0101151105B1F0F601F7FE8C
:100E900002C0849101C0808149835A830E94660503
:100EA00001501109FFEFCF1ADF0A49815A818111E0
:100EB000EACF8FEF9FEF01C0CA010F900F90DF9133
:100EC000CF911F910F91FF90DF90CF9008951F93C6
:100ED000CF93DF931F92CDB7DEB7162F2091E80096
:100EE00022FFFCCF612F79830E9459058BEF8093FD
:100EF000E800812F7981972F0F90DF91CF911F917B
:100F000008951F920F920FB60F921124DF92EF9265
:100F1000FF920F931F932F933F934F935F936F9382
:100F20007F938F939F93AF93BF93EF93FF93CF9351
:100F3000DF93CDB7DEB76C97DEBFCDBF1092E9006F
:100F40008091E80083FF23C168E0CE0145960E94AE
:100F5000590582EF8093E8003D8937FF05C08091F5
:100F6000E80080FFFCCF03C08EEF8093E800832F62
:100F7000807609F0F0C02E894F89D88C21110CC0E1
:100F8000303829F48091BC018093F10002C01092A6
:100F9000F1001092F100F4C0842F90E09D292130DF
:100FA00049F43111EDC0019709F0EAC08091BC010C
:100FB0008D7F0AC0233059F43111E2C0019709F046
:100FC000DFC08091BC0182608093BC01D9C0253014
:100FD00041F48091E80080FFFCCF40684093E3003B
:100FE000CFC0263009F08DC0EB8CFC8C22E0D212F1
:100FF0002CC080E090E00E942B070E94F40599E04D
:101000008E010F5F1F4FF801292F11922A95E9F7E2
:101010009983DA8291E09E8390EA98879AEF998784
:101020002091B9013091BA01275F3F4F3C832B8358
:101030008D83C7010E942B0749E050E0B80180E092
:101040000E9436070E94F4059BC0C7010E942B072F
:101050000E94210ABE016B5E7F4F0E94C309009768
:1010600019F00CF08DC090C081E0D8120EC08B8DAD
:101070009C8D089719F481E08093B6018091B601A8
:1010800081112FC065EA71E031C0E3E0DE127CC05F
:101090008F89882349F1823029F440E86BE080ECA5
:1010A00091E01CC0813029F440E868E087EB91E0D2
:1010B00015C0833009F068C00E94210A8E010F5FBD
:1010C0001F4FB8010E94E209F80101900020E9F7E2
:1010D0003197E01BF10B40E06E2FC8010E94940590
:1010E0004DC063E971E002C06CEC71E061157105FF
:1010F00009F44AC0FB01449150E080E80E943607A1
:101100003FC0273009F440C0283021F481E08093AB
:10111000F10036C02930A1F53370B1F5EDE0F1E012
:1011200081E021E036E39081992361F08093E9002A
:101130002093EB0091919093EC003093ED008F5F42
:10114000873089F78EE78093EA001092EA008F8952
:101150008093BD0115C08B8D9C8D0E942B07898DBE
:10116000811105C0CE0145960E94DD0307C00E9493
:10117000210ABE016B5E7F4F0E94010A882321F085
:101180008EEF8093E80003C081E28093EB006C96C1
:101190000FB6F894DEBF0FBECDBFDF91CF91FF91A8
:1011A000EF91BF91AF919F918F917F916F915F91DF
:1011B0004F913F912F911F910F91FF90EF90DF90F2
:1011C0000F900FBE0F901F9018958093E9008091AB
:1011D000F200882319F08AE38093E80008951F92B3
:1011E0000F920FB60F9211242F933F934F935F935B
:1011F0006F937F938F939F93AF93BF93CF93EF930F
:10120000FF93C091E1008091E100837F8093E10032
:101210008093E100C3FF0FC01092E90081E080934A
:10122000EB001092EC0082E38093ED001092BD0180
:1012300088E08093F000C2FF19C083E00E94E508B7
:101240008091BF01882339F08091BF018150809344
:10125000BF01882389F18091BE01882339F08091F4
:10126000BE0181508093BE01882341F1C4FF10C0AC
:101270008091E2008E7E81608093E2008091E100A7
:101280008F7E8093E1008091BB018E7E806111C0D2
:10129000C0FF16C08091E2008E7E80618093E200E4
:1012A0008091E1008E7E8093E1008091BB018E7E73
:1012B00081608093BB0104C05D9ACDCF289AD6CFC0
:1012C000FF91EF91CF91BF91AF919F918F917F91BE
:1012D0006F915F914F913F912F910F900FBE0F90A3
:1012E0001F9018951092BD011092BC011092BB0185
:1012F0000E94D105E1EEF0E080818E7E80838DE05A
:101300008093E200559A209A089508950E948002E1
:101310000E94850985EB91E00E9472090E945301A9
:10132000C0E0D0E00E94DD012097E1F30E940000C0
:10133000F9CF0895EF92FF920F931F93CF93DF930E
:101340007B01FC01C281D38100E010E0209781F095
:10135000E881F9810280F381E02DB701CE01099582
:1013600097FD08C0080F191F0884D985C02DEECF3E
:10137000C80102C08FEF9FEFDF91CF911F910F91B6
:10138000FF90EF9008950F931F93CF93DF938B01FE
:10139000FC01C281D381209771F0E881F98104803A
:1013A000F581E02DB801CE010995009731F408844C
:1013B000D985C02DF0CF80E090E0DF91CF911F91D3
:1013C0000F9108950F931F93CF93DF938B01FC012F
:1013D000C281D381209771F0E881F9810680F7817D
:1013E000E02DB801CE010995080F111D0884D9859B
:1013F000C02DF0CFF8011082DF91CF911F910F9196
:1014000008950F931F93CF93DF938B01FC01C2814B
:10141000D381209771F0E881F9810190F081E02D6E
:10142000B801CE010995811106C00884D985C02D67
:10143000F0CF80E001C081E0DF91CF911F910F914B
:1014400008958091C40181110DC082E08093C00194
:1014500084E08093C1011092C3011092C20181E027
:101460008093C40180EC91E00895A1E21A2EAA1B9A
:10147000BB1BFD010DC0AA1FBB1FEE1FFF1FA21744
:10148000B307E407F50720F0A21BB30BE40BF50B41
:10149000661F771F881F991F1A9469F760957095CA
:1014A000809590959B01AC01BD01CF010895EE0F91
:1014B000FF1F0590F491E02D0994F894FFCFFFFFF2
:1014C000FFFF00E100000000000000C1808100007B
:1014D00000000001000200150016000600070008C9
:1014E0000009000B000C000E000F001000FFFF5061
:1014F000696E3A002C002000000000007503BC0358
:101500009F03AF038B039C030D0A006E616E00699D
:101510006E66006F7666002E0000FFFFFFFFFFFF84
:10152000FFFFFFFFFFFFFFFFFFFFFFFFFFFFFFFFCB
:10153000FFFFFFFFFFFFFFFFFFFFFFFFFFFFFFFFBB
:10154000FFFFFFFFFFFFFFFFFFFFFFFFFFFFFFFFAB
:10155000FFFFFFFFFFFFFFFFFFFFFFFFFFFFFFFF9B
:10156000FFFFFFFFFFFFFFFFFFFFFFFFFFFFFFFF8B
:10157000FFFFFFFFFFFFFFFFFFFFFFFFFFFFFFFF7B
:1015800005C02F3F19F00196A11DB11D3FBF662771
:10159000782F892F9A2F620F711D811D911D43E0B5
:1015A000660F771F881F991F4A95D1F70895CF922C
:1015B000DF92EF92FF92CF93DF936B017C010E9449
:1015C000B40AEB01C114D104E104F10489F00E94D2
:1015D0003D120E94B40A6C1B7D0B683E734090F371
:1015E00081E0C81AD108E108F108C851DC4FEACF00
:1015F000DF91CF91FF90EF90DF90CF900895789496
:1016000084B5826084BD84B5816084BD85B5826007
:1016100085BD85B5816085BDEEE6F0E080818160A5
:101620008083E1E8F0E010828081826080838081A5
:1016300081608083E0E8F0E0808181608083E1E97F
:10164000F0E0808182608083808181608083E0E936
:10165000F0E0808181608083E1ECF0E08081846053
:101660008083808182608083808181608083E3ECDD
:10167000F0E0808181608083E0ECF0E08081826036
:101680008083E2ECF0E0808181608083EAE7F0E033
:1016900080818460808380818260808380818E7F6E
:1016A0008083808180688083089590E0FC01319779
:1016B000EF30F105B0F5EA5AFF4F0C941A13809100
:1016C00080008F7703C0809180008F7D80938000A1
:1016D000089580918000877FF9CF84B58F7702C00D
:1016E00084B58F7D84BD0895809190008F7707C069
:1016F000809190008F7D03C080919000877F8093C0
:10170000900008958091C0008F7703C08091C00041
:101710008F7D8093C00008958091C200877F809361
:10172000C2000895CF93DF9390E0FC01E55CFC4F8D
:101730002491FC01E65AFC4F8491882349F190E002
:10174000880F991FFC01E957FC4FA591B491875868
:101750009C4FFC01C591D4919FB7611108C0F894CA
:101760008C91209582238C93888182230AC06230D9
:1017700051F4F8948C91322F309583238C93888187
:10178000822B888304C0F8948C91822B8C939FBF0A
:10179000DF91CF9108950F931F93CF93DF931F9203
:1017A000CDB7DEB7282F30E0F901E45EFC4F84911D
:1017B000F901E55CFC4F1491F901E65AFC4F0491E4
:1017C0000023C9F0882321F069830E94550B6981A9
:1017D000E02FF0E0EE0FFF1FE758FC4FA591B4910A
:1017E0009FB7F8948C91611103C01095812301C0BB
:1017F000812B8C939FBF0F90DF91CF911F910F9101
:101800000895CF93DF931F92CDB7DEB76983DC01D4
:10181000ED91FC910280F381E02D41E050E0BE01AA
:101820006F5F7F4F09950F90DF91CF910895CF9310
:10183000DF93EC018C859D8597FF05C082E00E94B7
:101840000E0F9D878C878C859D85DF91CF910895A4
:1018500083E00C948911FC018485958597FD06C071
:1018600082E00E94B60E90E00196089582E00E9408
:10187000B60E90E00895FC018485958597FD05C01E
:101880002FEF3FEF35872487089582E00C940E0FE9
:10189000CF93DF93EC0180912401882331F083E022
:1018A0000E943F0F1816190634F081E090E09B83E8
:1018B0008A8380E090E0DF91CF910895FC01208140
:1018C0002E5F208342E450E065E973E080E80C94E9
:1018D000DA0FFC0121818081813A59F4213209F02B
:1018E0005CC047E050E06DE171E080E00E94DA0FFB
:1018F00067C0813209F051C0233289F4838190E0BE
:10190000982F88273281832BA0E0B0E080931901C3
:1019100090931A01A0931B01B0931C010FC02032B9
:1019200039F467E070E08DE191E00E940B100AC08D
:10193000223221F482818093240104C02D7F203241
:1019400009F03EC080911D0190911E01A0911F01E0
:10195000B0912001803B9440A105B10501F5809133
:10196000240180FD1CC08091000890910108909393
:10197000FF0A8093FE0A87E797E790930108809318
:1019800000082BE088E190E00FB6F894A8958093CA
:1019900060000FBE2093600013C080E0089588E1CE
:1019A0000FB6F89480936000109260000FBEA89567
:1019B0008091FE0A9091FF0A90930108809300089D
:1019C00081E008952FEF3FEFFC01358724870895CC
:1019D0001092D8011092D70188EE93E0A0E0B0E019
:1019E0008093D9019093DA01A093DB01B093DC01DD
:1019F0008BE391E09093D6018093D5018FEF9FEF19
:101A00009093E2018093E10108956115710581F0E1
:101A1000DB010D900020E9F7AD0141505109461B53
:101A2000570BDC01ED91FC910280F381E02D0994CC
:101A300080E090E00895DC01ED91FC910190F0814F
:101A4000E02D099467E471E00C94050D0F931F934A
:101A5000CF93DF93EC010E941B0D8C01CE010E94FD
:101A6000220D800F911FDF91CF911F910F9108954B
:101A70008F929F92AF92BF92CF92DF92EF92FF929E
:101A80000F931F93CF93DF93CDB7DEB7A1970FB618
:101A9000F894DEBF0FBECDBF7C01C42EE52FCB0175
:101AA000D22E19A221E02D1510F02AE0D22E8E019F
:101AB0000F5D1F4F8D2C912CA12CB12C6C2D7E2FE6
:101AC000A50194010E94D9128C2DD29E8019112457
:101AD000015011098A3014F4805D01C0895CF8015D
:101AE0008083211531054105510521F0C22EE32FD8
:101AF000CA01E4CFB801C7010E94050DA1960FB637
:101B0000F894DEBF0FBECDBFDF91CF911F910F9133
:101B1000FF90EF90DF90CF90BF90AF909F908F900D
:101B20000895CF92DF92EF92FF920F931F93CF937E
:101B3000DF93EC016A017B012115310579F4E8811D
:101B4000F9810190F081E02D642FDF91CF911F91F9
:101B50000F91FF90EF90DF90CF9009942A303105DC
:101B6000E9F477FF1AC06DE20E941B0D8C01442737
:101B70005527BA014C195D096E097F092AE0CE018B
:101B80000E94380D800F911FDF91CF911F910F910F
:101B9000FF90EF90DF90CF9008952AE0B701A60163
:101BA000CE01DF91CF911F910F91FF90EF90DF90C9
:101BB000CF900C94380D9A01AB01662757FD6095C4
:101BC000762F0C94910D2115310541F4DC01ED9136
:101BD000FC910190F081E02D642F09940C94380D54
:101BE0009A01462F50E060E070E00C94E30D9A01FA
:101BF000AB0160E070E00C94E30D615030F0209197
:101C0000F100FC0120830196F8CF289884E68093A8
:101C10002E0208954091290250912A022091270214
:101C20003091280242175307B4F49091E800957060
:101C3000E1F39091E80092FD19C08093F10080914A
:101C4000290290912A0201968F739927892B19F402
:101C50008EEF8093E8008091290290912A020196EC
:101C600090932A028093290281E0089580E00895EC
:101C7000CF92DF92EF92FF920F931F93CF93DF9358
:101C80001F92CDB7DEB7082F162FF42E862F880FA0
:101C90008E5F99830E940A0E83E00E940A0EE02E56
:101CA000C02E9981D92E8C2D8E19811798F4F601AA
:101CB000F7FE02C0849101C080810E940A0E082FA5
:101CC00080E00E940A0E8023FFEFCF1ADF0A811105
:101CD000EACF01C081E00F90DF91CF911F910F916A
:101CE000FF90EF90DF90CF9008958091D7008160B2
:101CF0008093D70080EA8093D80089B58F7E89BD14
:101D000089B5826089BD09B400FEFDCF61E070E055
:101D100080E090E00E94D70A8091D8008F7C80619B
:101D20008093D8008091E000807F8093E000089548
:101D3000CF93DF931F92CDB7DEB71982CE01019604
:101D40000E945E0C0E94C512BE016F5F7F4F0E9411
:101D50003E1289810F90DF91CF9108952FB7FC013A
:101D60002083F89467706093E9000895CF93DF9320
:101D70001F92CDB7DEB7682FCE0101960E94AE0E3E
:101D80008091F20099819FBF0F90DF91CF910895CC
:101D9000FF920F931F93CF93DF9300D0CDB7DEB7A1
:101DA000F62E8A0190912D02992311F057FF03C05E
:101DB0008FEF9FEF2BC0682FCE0101967A830E9490
:101DC000AE0E8091F20090E0A8017A818017910711
:101DD0000CF4AC01EF2DF72FF40E84E6FE1639F06B
:101DE000289880932E029091F1009193F7CF41159E
:101DF000510521F08091F200882321F089818FBF65
:101E0000CA0104C08BE68093E800F8CF0F900F90D2
:101E1000DF91CF911F910F91FF900895CF93DF93A2
:101E20001F92CDB7DEB741E050E0BE016F5F7F4F3C
:101E30000E94C80E019719F4898190E002C08FEFCB
:101E40009FEF0F90DF91CF910895CF93DF931F9273
:101E5000CDB7DEB7682FCE0101960E94AE0E9091ED
:101E6000E800892F807295FF04C09091F20080E411
:101E7000891B99819FBF0F90DF91CF9108956F9239
:101E80007F928F929F92AF92BF92CF92DF92EF920A
:101E9000FF920F931F93CF93DF931F92CDB7DEB7BF
:101EA000782E7B01C42EB52E80912D02882369F0F7
:101EB000042F152F8AEFD82E872D8072982E9AE343
:101EC000A92E872D8074882E11C08FEF9FEF57C0E9
:101ED000872D0E94250F682E81110CC0DA94A9F37A
:101EE00061E070E080E090E00E94D70A01151105E2
:101EF00079F73BC0282F30E0021713070CF4602E4F
:101F0000672DCE0101960E94AE0E8091E80085FFFC
:101F100029C0262D30E0021B130B992039F06A945A
:101F20008FEF6816B1F01092F100F9CFF701862D0E
:101F300077FE07C0815058F094919093F10031964C
:101F4000F9CF815020F091919093F100FACFE20EF9
:101F5000F31E8091E80085FF0FC00115110511F4F3
:101F600081100AC089818FBFC1CF5D9884E68093BC
:101F70002F028C2D9B2D03C0A092E800F3CF0F9071
:101F8000DF91CF911F910F91FF90EF90DF90CF9055
:101F9000BF90AF909F908F907F906F900895109218
:101FA000E90010922A02109229029093280280934D
:101FB00027020895CF92DF92FF920F931F93CF9342
:101FC000DF9300D0CDB7DEB7F82E8A016B01011583
:101FD0001105B1F0F601F7FE02C0849101C08081C5
:101FE00049835A830E940A0E01501109FFEFCF1A4C
:101FF000DF0A49815A818111EACF8FEF9FEF01C03B
:10200000CA010F900F90DF91CF911F910F91FF9018
:10201000DF90CF9008951F93CF93DF931F92CDB79A
:10202000DEB7162F2091E80022FFFCCF612F7983C5
:102030000E94FD0D8BEF8093E800812F7981972F0F
:102040000F90DF91CF911F9108951F920F920FB6BD
:102050000F921124DF92EF92FF920F931F932F9311
:102060003F934F935F936F937F938F939F93AF9320
:10207000BF93EF93FF93CF93DF93CDB7DEB76C970A
:10208000DEBFCDBF1092E9008091E80083FF23C13D
:1020900068E0CE0145960E94FD0D82EF8093E80036
:1020A0003D8937FF05C08091E80080FFFCCF03C069
:1020B0008EEF8093E800832F807609F0F0C02E89A0
:1020C0004F89D88C21110CC0303829F480912C0212
:1020D0008093F10002C01092F1001092F100F4C060
:1020E000842F90E09D29213049F43111EDC00197F2
:1020F00009F0EAC080912C028D7F0AC0233059F488
:102100003111E2C0019709F0DFC080912C0282609A
:1021100080932C02D9C0253041F48091E80080FFE3
:10212000FCCF40684093E300CFC0263009F08DC05B
:10213000EB8CFC8C22E0D2122CC080E090E00E945C
:10214000CF0F0E94980E99E08E010F5F1F4FF8018C
:10215000292F11922A95E9F79983DA8291E09E83DB
:1021600090EA98879AEF99872091290230912A0264
:10217000275F3F4F3C832B838D83C7010E94CF0F86
:1021800049E050E0B80180E00E94DA0F0E94980E0A
:102190009BC0C7010E94CF0F0E94C512BE016B5E9B
:1021A0007F4F0E946712009719F00CF08DC090C00D
:1021B00081E0D8120EC08B8D9C8D089719F481E0B8
:1021C000809326028091260281112FC069EE73E070
:1021D00031C0E3E0DE127CC08F89882349F1823070
:1021E00029F440E86BE084E094E01CC0813029F4DD
:1021F00040E868E08BEF93E015C0833009F068C0D9
:102200000E94C5128E010F5F1F4FB8010E948612F7
:10221000F80101900020E9F73197E01BF10B40E055
:102220006E2FC8010E94380E4DC067ED73E002C0EA
:1022300060E174E06115710509F44AC0FB01449145
:1022400050E080E80E94DA0F3FC0273009F440C018
:10225000283021F481E08093F10036C02930A1F5C7
:102260003370B1F5E6E2F1E081E021E036E3908100
:10227000992361F08093E9002093EB009191909372
:10228000EC003093ED008F5F873089F78EE7809305
:10229000EA001092EA008F8980932D0215C08B8D81
:1022A0009C8D0E94CF0F898D811105C0CE0145966E
:1022B0000E94690C07C00E94C512BE016B5E7F4F71
:1022C0000E94A512882321F08EEF8093E80003C0BE
:1022D00081E28093EB006C960FB6F894DEBF0FBEE0
:1022E000CDBFDF91CF91FF91EF91BF91AF919F91C2
:1022F0008F917F916F915F914F913F912F911F919E
:102300000F91FF90EF90DF900F900FBE0F901F90F6
:1023100018958093E9008091F200882319F08AE3F0
:102320008093E80008951F920F920FB60F92112428
:102330002F933F934F935F936F937F938F939F93CD
:10234000AF93BF93CF93EF93FF93C091E100809140
:10235000E100837F8093E1008093E100C3FF0FC021
:102360001092E90081E08093EB001092EC0082E390
:102370008093ED0010922D0288E08093F000C2FF60
:1023800019C083E00E94891180912F02882339F0BF
:1023900080912F02815080932F02882389F18091B0
:1023A0002E02882339F080912E02815080932E02D4
:1023B000882341F1C4FF10C08091E2008E7E8160CD
:1023C0008093E2008091E1008F7E8093E100809114
:1023D0002B028E7E806111C0C0FF16C08091E2008A
:1023E0008E7E80618093E2008091E1008E7E8093FA
:1023F000E10080912B028E7E816080932B0204C0CD
:102400005D9ACDCF289AD6CFFF91EF91CF91BF9112
:10241000AF919F918F917F916F915F914F913F917C
:102420002F910F900FBE0F901F90189510922D02B4
:1024300010922C0210922B020E94750EE1EEF0E039
:1024400080818E7E80838DE08093E200559A209A71
:10245000089508950E94FF0A0E94291285E292E0E1
:102460000E9416120E948604C0E0D0E00E94DE03A3
:102470002097E1F30E940000F9CF0895EF92FF92B8
:102480000F931F93CF93DF937B01FC01C281D38114
:1024900000E010E0209781F0E881F9810280F3816B
:1024A000E02DB701CE01099597FD08C0080F191F4F
:1024B0000884D985C02DEECFC80102C08FEF9FEFF1
:1024C000DF91CF911F910F91FF90EF9008950F939F
:1024D0001F93CF93DF938B01FC01C281D38120979F
:1024E00071F0E881F9810480F581E02DB801CE0119
:1024F0000995009731F40884D985C02DF0CF80E08C
:1025000090E0DF91CF911F910F9108950F931F934A
:10251000CF93DF938B01FC01C281D381209771F0AF
:10252000E881F9810680F781E02DB801CE01099597
:10253000080F111D0884D985C02DF0CFF801108235
:10254000DF91CF911F910F9108950F931F93CF9318
:10255000DF938B01FC01C281D381209771F0E88168
:10256000F9810190F081E02DB801CE01099581112A
:1025700006C00884D985C02DF0CF80E001C081E07D
:10258000DF91CF911F910F910895809134028111B5
:102590000DC082E08093300284E08093310210927B
:1025A00033021092320281E08093340280E392E0A1
:1025B0000895A1E21A2EAA1BBB1BFD010DC0AA1F84
:1025C000BB1FEE1FFF1FA217B307E407F50720F09C
:1025D000A21BB30BE40BF50B661F771F881F991F17
:1025E0001A9469F760957095809590959B01AC0160
:1025F000BD01CF010895052E97FB1EF400940E94A3
:10260000121357FD07D00E94D91207FC03D04EF4D5
:102610000C94121350954095309521953F4F4F4F94
:102620005F4F089590958095709561957F4F8F4F7E
:102630009F4F0895EE0FFF1F0590F491E02D099430
:10264000A29FB001B39FC001A39F700D811D1124F3
:10265000911DB29F700D811D1124911D08950E943E
:102660002013A59F900DB49F900DA49F800D911DE8
:1026700011240895F999FECF92BD81BDF89A99274A
:1026800080B50895262FF999FECF1FBA92BD81BD5E
:1026900020BD0FB6F894FA9AF99A0FBE01960895E4
:1026A000F894FFCF00003C028000686A6D000203CE
:1026B0006E01022A092A092A092A092A09FFFFFFAD
:1026C000FF00E100000000000000C1808100000068
:1026D0003B01B101640393032B565A000000000133
:1026E0000C480C2B0C3B0C170C280C0D0A006E61CF
:1026F0006E00696E66006F7666002E00FFFFFFFFBA
:1027000044244394512C540115C03801F2E06F0E5B
:10271000711CF801A080B18026FF03C0652D70E018
:1027200002C06FEF7FEFC5012C870E94D9142C01E6
:1027300083012C852F77222E17C03801F2E06F0E0F
:10274000711CF801A080B18026FF03C0652D70E0E8
:1027500002C06FEF7FEFC5012C870E94CE142C01C1
:102760002C852068222E830123FC1BC0832D90E042
:1027700048165906B0F4B70180E290E00E94E414D4
:102780003A94F4CFF50127FC859127FE81915F01F2
:10279000B70190E00E94E41431103A94F1E04F1A2E
:1027A00051084114510471F7E5C0843611F089369F
:1027B00039F5F80127FF07C060817181828193811B
:1027C0000C5F1F4F08C060817181882777FD80955D
:1027D000982F0E5F1F4F2F76B22E97FF09C090954E
:1027E0008095709561957F4F8F4F9F4F2068B22ED7
:1027F0002AE030E0A4010E941615A82EA81844C0B3
:10280000853729F42F7EB22E2AE030E025C0F22F42
:10281000F97FBF2E8F36C1F018F4883579F0B4C037
:10282000803719F0883721F0AFC02F2F2061B22EEA
:10283000B4FE0DC08B2D8460B82E09C024FF0AC0E1
:102840009F2F9660B92E06C028E030E005C020E139
:1028500030E002C020E132E0F801B7FE07C060813D
:102860007181828193810C5F1F4F06C060817181ED
:1028700080E090E00E5F1F4FA4010E941615A82E65
:10288000A818FB2DFF77BF2EB6FE0BC02B2D2E7F79
:10289000A51450F4B4FE0AC0B2FC08C02B2D2E7E45
:1028A00005C07A2C2B2D03C07A2C01C0752C24FF77
:1028B0000DC0FE01EA0DF11D8081803311F4297EE7
:1028C00009C022FF06C07394739404C0822F8678D7
:1028D00009F0739423FD13C020FF06C05A2C731413
:1028E00018F4530C5718732C731468F4B70180E272
:1028F00090E02C870E94E41473942C85F5CF731418
:1029000010F4371801C0312C24FF12C0B70180E346
:1029100090E02C870E94E4142C8522FF17C021FF31
:1029200003C088E590E002C088E790E0B7010CC0E2
:10293000822F867859F021FD02C080E201C08BE22F
:1029400027FD8DE2B70190E00E94E414A51438F44D
:10295000B70180E390E00E94E4145A94F7CFAA9460
:10296000F401EA0DF11D8081B70190E00E94E414AA
:10297000A110F5CF332009F451CEB70180E290E0E9
:102980000E94E4143A94F6CFF7018681978102C041
:102990008FEF9FEF2C96E2E10C949015FC010590CF
:1029A000615070400110D8F7809590958E0F9F1F51
:1029B0000895FC016150704001900110D8F7809596
:1029C00090958E0F9F1F08950F931F93CF93DF93C2
:1029D000182F092FEB018B8181FD03C08FEF9FEF33
:1029E00020C082FF10C04E815F812C813D81421743
:1029F00053077CF4E881F9819F012F5F3F4F3983B2
:102A00002883108306C0E885F985812F0995892BD5
:102A100029F72E813F812F5F3F4F3F832E83812FE8
:102A2000902FDF91CF911F910F910895FA01AA275E
:102A3000283051F1203181F1E8946F936E7F6E5F01
:102A40007F4F8F4F9F4FAF4FB1E03ED0B4E03CD0AF
:102A5000670F781F891F9A1FA11D680F791F8A1F92
:102A6000911DA11D6A0F711D811D911DA11D20D0F9
:102A700009F468943F912AE0269F11243019305DB3
:102A80003193DEF6CF010895462F4770405D4193A4
:102A9000B3E00FD0C9F7F6CF462F4F70405D4A33F1
:102AA00018F0495D31FD4052419302D0A9F7EACFB9
:102AB000B4E0A6959795879577956795BA95C9F7E8
:102AC00000976105710508959B01AC010A2E0694DB
:102AD0005795479537952795BA95C9F7620F731F94
:102AE000841F951FA01D08952F923F924F925F92D1
:102AF0006F927F928F929F92AF92BF92CF92DF920E
:102B0000EF92FF920F931F93CF93DF93CDB7DEB772
:102B1000CA1BDB0B0FB6F894DEBF0FBECDBF099406
:102B20002A88398848885F846E847D848C849B845D
:102B3000AA84B984C884DF80EE80FD800C811B816B
:102B4000AA81B981CE0FD11D0FB6F894DEBF0FBE9A
:102B5000CDBFED010895F894FFCFC007C007C007AF
:102B6000C007C00700C18081000000FFFFFFFF0019
:102B7000E10000000000005374617274696E672008
:102B8000757000526164696F20696E6974005365E5
:102B90007420656E6300746869734973456E63726F
:102BA0007970744B6579000A5472616E736D697443
:102BB00074696E67206174202564204D687A2E2E1A
:102BC0002E000A4368616E67696E672064656C61F8
:102BD0007920746F20006D730A005D200020202092
:102BE0005B52585F525353493A005D00202D2041FB
:102BF000434B2073656E740053656E64696E672085
:102C00007374727563742028002062797465732967
:102C1000202E2E2E2000206F6B2100206E6F7468F6
:102C2000696E672E2E2E000000000092065002ED05
:102C300001E40642076403E005BC017E03FF03F5DF
:102C4000026207D701C801000000001E0B840CA01F
:102C50000AB90AAB0AFC0A0D0A006E616E00696EC1
:102C600066006F76660000000000191160114311C4
:102C700053112F114011FFFFFFFFFFFFFFFFFFFF69
:102C800048165906B0F4B70180E290E00E946C1734
:102C90003A94F4CFF50127FC859127FE81915F01DD
:102CA000B70190E00E946C1731103A94F1E04F1A8E
:102CB00051084114510471F7E5C0843611F089368A
:102CC00039F5F80127FF07C0608171818281938106
:102CD0000C5F1F4F08C060817181882777FD809548
:102CE000982F0E5F1F4F2F76B22E97FF09C0909539
:102CF0008095709561957F4F8F4F9F4F2068B22EC2
:102D00002AE030E0A4010E949E17A82EA81844C013
:102D1000853729F42F7EB22E2AE030E025C0F22F2D
:102D2000F97FBF2E8F36C1F018F4883579F0B4C022
:102D3000803719F0883721F0AFC02F2F2061B22ED5
:102D4000B4FE0DC08B2D8460B82E09C024FF0AC0CC
:102D50009F2F9660B92E06C028E030E005C020E124
:102D600030E002C020E132E0F801B7FE07C0608128
:102D70007181828193810C5F1F4F06C060817181D8
:102D800080E090E00E5F1F4FA4010E949E17A82EC6
:102D9000A818FB2DFF77BF2EB6FE0BC02B2D2E7F64
:102DA000A51450F4B4FE0AC0B2FC08C02B2D2E7E30
:102DB00005C07A2C2B2D03C07A2C01C0752C24FF62
:102DC0000DC0FE01EA0DF11D8081803311F4297ED2
:102DD00009C022FF06C07394739404C0822F8678C2
:102DE00009F0739423FD13C020FF06C05A2C7314FE
:102DF00018F4530C5718732C731468F4B70180E25D
:102E000090E02C870E946C1773942C85F5CF731477
:102E100010F4371801C0312C24FF12C0B70180E331
:102E200090E02C870E946C172C8522FF17C021FF91
:102E300003C088E590E002C088E790E0B7010CC0CD
:102E4000822F867859F021FD02C080E201C08BE21A
:102E500027FD8DE2B70190E00E946C17A51438F4AD
:102E6000B70180E390E00E946C175A94F7CFAA94C0
:102E7000F401EA0DF11D8081B70190E00E946C170A
:102E8000A110F5CF332009F451CEB70180E290E0D4
:102E90000E946C173A94F6CFF7018681978102C0A1
:102EA0008FEF9FEF2C96E2E10C941818FC0105902F
:102EB000615070400110D8F7809590958E0F9F1F3C
:102EC0000895FC016150704001900110D8F7809581
:102ED00090958E0F9F1F08950F931F93CF93DF93AD
:102EE000182F092FEB018B8181FD03C08FEF9FEF1E
:102EF00020C082FF10C04E815F812C813D8142172E
:102F000053077CF4E881F9819F012F5F3F4F39839C
:102F10002883108306C0E885F985812F0995892BC0
:102F200029F72E813F812F5F3F4F3F832E83812FD3
:102F3000902FDF91CF911F910F910895FA01AA2749
:102F4000283051F1203181F1E8946F936E7F6E5FEC
:102F50007F4F8F4F9F4FAF4FB1E03ED0B4E03CD09A
:102F6000670F781F891F9A1FA11D680F791F8A1F7D
:102F7000911DA11D6A0F711D811D911DA11D20D0E4
:102F800009F468943F912AE0269F11243019305D9E
:102F90003193DEF6CF010895462F4770405D41938F
:102FA000B3E00FD0C9F7F6CF462F4F70405D4A33DC
:102FB00018F0495D31FD4052419302D0A9F7EACFA4
:102FC000B4E0A6959795879577956795BA95C9F7D3
:102FD00000976105710508959B01AC010A2E0694C6
:102FE0005795479537952795BA95C9F7620F731F7F
:102FF000841F951FA01D08952F923F924F925F92BC
:103000006F927F928F929F92AF92BF92CF92DF92F8
:10301000EF92FF920F931F93CF93DF93CDB7DEB75D
:10302000CA1BDB0B0FB6F894DEBF0FBECDBF0994F1
:103030002A88398848885F846E847D848C849B8448
:10304000AA84B984C884DF80EE80FD800C811B8156
:10305000AA81B981CE0FD11D0FB6F894DEBF0FBE85
:10306000CDBFED010895F894FFCFFFFFFFFF84036C
:103070006309630963096309630900C18081000072
:1030800000FFFFFFFF00E10000000000005374613B
:103090007274696E6720757000526164696F20698F
:1030A0006E69740053657420656E6300746869739B
:1030B0004973456E63727970744B6579000A547276
:1030C000616E736D697474696E6720617420256424
:1030D000204D687A2E2E2E000A4368616E67696E55
:1030E000672064656C617920746F20006D730A003D
:1030F0005D20002020205B52585F525353493A0014
:103100005D00202D2041434B2073656E7400536594
:103110006E64696E67207374727563742028002072
:10312000627974657329202E2E2E2000206F6B216A
:1031300000206E6F7468696E672E2E2E00416464E5
:1031400072657373202D20484558202D2042494E2A
:1031500000202D200000000000E50798033503370C
:10316000089508B70433070403D10452054804B591
:10317000081F03100300000000C10C270E430C5C65
:103180000C4E0C9F0C0D0A006E616E00696E66009D
:103190006F76660000000000A113E813CB13DB1369
:1031A000B713C813FFFFFFFFFFFFFFFFFFFFFFFF86
:1031B000FFFFFFFFFFFFFFFFFFFFFFFFFFFFFFFF1F
:1031C000FFFFFFFFFFFFFFFFFFFFFFFFFFFFFFFF0F
:1031D000FFFFFFFFFFFFFFFFFFFFFFFFFFFFFFFFFF
:1031E000FFFFFFFFFFFFFFFFFFFFFFFFFFFFFFFFEF
:1031F000FFFFFFFFFFFFFFFFFFFFFFFFFFFFFFFFDF
:103200002F933F934F935F936F937F938F939F93EE
:10321000AF93BF93EF93FF93CF93DF93CDB7DEB719
:103220006C97DEBFCDBF1092E9008091E80083FF6C
:1032300023C168E0CE0145960E94CE1682EF8093AE
:10324000E8003D8937FF05C08091E80080FFFCCF92
:1032500003C08EEF8093E800832F807609F0F0C0E2
:103260002E894F89D88C21110CC0303829F48091D7
:1032700045038093F10002C01092F1001092F1001A
:10328000F4C0842F90E09D29213049F43111EDC024
:10329000019709F0EAC0809145038D7F0AC0233071
:1032A00059F43111E2C0019709F0DFC08091450364
:1032B000826080934503D9C0253041F48091E800B5
:1032C00080FFFCCF40684093E300CFC0263009F078
:1032D0008DC0EB8CFC8C22E0D2122CC080E090E000
:1032E0000E94A0180E94691799E08E010F5F1F4F7E
:1032F000F801292F11922A95E9F79983DA8291E052
:103300009E8390EA98879AEF9987209142033091A3
:103310004303275F3F4F3C832B838D83C7010E946C
:10332000A01849E050E0B80180E00E94AB180E946C
:1033300069179BC0C7010E94A0180E947F1CBE0194
:103340006B5E7F4F0E94211C009719F00CF08DC01E
:1033500090C081E0D8120EC08B8D9C8D089719F417
:1033600081E080933F0380913F0381112FC064E58A
:103370007BE031C0E3E0DE127CC08F89882349F115
:10338000823029F440E86BE08FE69BE01CC081307E
:1033900029F440E868E086E69BE015C0833009F038
:1033A00068C00E947F1C8E010F5F1F4FB8010E94F2
:1033B000401CF80101900020E9F73197E01BF10B68
:1033C00040E06E2FC8010E9409174DC062E47BE007
:1033D00002C06BE77BE06115710509F44AC0FB018F
:1033E000449150E080E80E94AB183FC0273009F4B8
:1033F00040C0283021F481E08093F10036C02930AC
:10340000A1F53370B1F5E1E1F1E081E021E036E3CF
:103410009081992361F08093E9002093EB009191D2
:103420009093EC003093ED008F5F873089F78EE743
:103430008093EA001092EA008F898093460315C0BA
:103440008B8D9C8D0E94A018898D811105C0CE01A5
:1034500045960E94621B07C00E947F1CBE016B5EE6
:103460007F4F0E945F1C882321F08EEF8093E8003D
:1034700003C081E28093EB006C960FB6F894DEBF38
:103480000FBECDBFDF91CF91FF91EF91BF91AF9173
:103490009F918F917F916F915F914F913F912F916C
:1034A0001F910F91FF90EF90DF900F900FBE0F9044
:1034B0001F9018958093E9008091F200882319F0FD
:1034C0008AE38093E80008951F920F920FB60F923F
:1034D00011242F933F934F935F936F937F938F9319
:1034E0009F93AF93BF93CF93EF93FF93C091E1006E
:1034F0008091E100837F8093E1008093E100C3FF2E
:103500000FC01092E90081E08093EB001092EC0074
:1035100082E38093ED001092460388E08093F000F0
:10352000C2FF19C083E00E945A1A80914803882381
:1035300039F080914803815080934803882389F1B2
:1035400080914703882339F080914703815080930D
:103550004703882341F1C4FF10C08091E2008E7EB2
:1035600081608093E2008091E1008F7E8093E10092
:10357000809144038E7E806111C0C0FF16C080918F
:10358000E2008E7E80618093E2008091E1008E7E79
:103590008093E100809144038E7E81608093440398
:1035A00004C05D9ACDCF289AD6CFFF91EF91CF91ED
:1035B000BF91AF919F918F917F916F915F914F914B
:1035C0003F912F910F900FBE0F901F901895109262
:1035D000460310924503109244030E944617E1EE01
:1035E000F0E080818E7E80838DE08093E200559AAA
:1035F000209A0895CF93DF931F92CDB7DEB76983EA
:10360000DC01ED91FC910280F381E02D41E050E07E
:10361000BE016F5F7F4F09950F90DF91CF910895A5
:10362000CF93DF93EC018C859D8597FF05C082E0E9
:103630000E94DF179D878C878C859D85DF91CF91B8
:10364000089583E00C945A1AFC018485958597FDB2
:1036500006C082E00E94871790E00196089582E0FC
:103660000E94871790E00895FC018485958597FD59
:1036700005C02FEF3FEF35872487089582E00C9433
:10368000DF17CF93DF93EC0180912201882331F083
:1036900083E00E9410181816190634F081E090E0BB
:1036A0009B838A8380E090E0DF91CF910895FC01B5
:1036B00020812E5F208342E450E06FE77BE080E8CA
:1036C0000C94AB18FC0121818081813A59F421329C
:1036D00009F05CC047E050E06BE171E080E00E94DF
:1036E000AB1867C0813209F051C0233289F483815D
:1036F00090E0982F88273281832BA0E0B0E0809360
:10370000170190931801A0931901B0931A010FC0EB
:10371000203239F467E070E08BE191E00E94DC1820
:103720000AC0223221F482818093220104C02D7FBD
:10373000203209F03EC080911B0190911C01A091A4
:103740001D01B0911E01803B9440A105B10501F51A
:103750008091220180FD1CC0809100089091010899
:103760009093FF0A8093FE0A87E797E790930108FA
:10377000809300082BE088E190E00FB6F894A895BC
:10378000809360000FBE2093600013C080E0089516
:1037900088E10FB6F89480936000109260000FBE2D
:1037A000A8958091FE0A9091FF0A9093010880935A
:1037B000000881E0089510924C0310924B0388EEAC
:1037C00093E0A0E0B0E080934D0390934E03A0936C
:1037D0004F03B09350038EE292E090934A0380939C
:1037E00049038FEF9FEF90935603809355030895FD
:1037F000EF92FF920F931F93CF93DF937B01FC0116
:10380000C281D38100E010E0209781F0E881F98146
:103810000280F381E02DB701CE01099597FD08C024
:10382000080F191F0884D985C02DEECFC80102C02A
:103830008FEF9FEFDF91CF911F910F91FF90EF904E
:1038400008950F931F93CF93DF938B01FC01C281E7
:10385000D381209771F0E881F9810480F581E02D12
:10386000B801CE010995009731F40884D985C02D9F
:10387000F0CF80E090E0DF91CF911F910F910895FC
:103880000F931F93CF93DF938B01FC01C281D381F0
:10389000209771F0E881F9810680F781E02DB80169
:1038A000CE010995080F111D0884D985C02DF0CFD0
:1038B000F8011082DF91CF911F910F9108950F931E
:1038C0001F93CF93DF938B01FC01C281D38120979B
:1038D00071F0E881F9810190F081E02DB801CE010D
:1038E0000995811106C00884D985C02DF0CF80E0EC
:1038F00001C081E0DF91CF911F910F9108958091D8
:103900009D0381110DC082E08093990384E0809330
:103910009A0310929C0310929B0381E080939D0375
:1039200089E993E00895A1E21A2EAA1BBB1BFD01B1
:103930000DC0AA1FBB1FEE1FFF1FA217B307E4078E
:10394000F50720F0A21BB30BE40BF50B661F771FE6
:10395000881F991F1A9469F76095709580959095C6
:103960009B01AC01BD01CF010895EE0FFF1F059033
:10397000F491E02D09940E94CD1CB7FF0895821B9D
:10398000930B08950E94CD1CA59F900DB49F900DA0
:10399000A49F800D911D11240895A29FB001B39F93
:1039A000C001A39F700D811D1124911DB29F700D48
:1039B000811D1124911D0895AEE0B0E0E2EEFCE11E
:1039C0000C94841F0D891E8986E08C831A830983D9
:1039D0008FEF9FE79E838D83AE01475E5F4F6F89B8
:1039E000788DCE0101960E94FE1CEF81F885E00FD4
:1039F000F11F10822E96E4E00C94A01FACE0B0E022
:103A0000E4E0FDE10C94761F7C016B018A01FC016E
:103A100017821682838181FFBDC1CE0101964C01C0
:103A2000F7019381F60193FD859193FF81916F01D9
:103A3000882309F4ABC1853239F493FD859193FF56
:103A400081916F01853229F4B70190E00E94E61E52
:103A5000E7CF512C312C20E02032A0F48B3269F0DA
:103A600030F4803259F0833269F420612CC08D32F9
:103A700039F0803339F4216026C02260246023C0ED
:103A8000286021C027FD27C030ED380F3A3078F488
:103A900026FF06C0FAE05F9E300D1124532E13C09E
:103AA0008AE0389E300D1124332E20620CC08E32F5
:103AB00021F426FD6BC1206406C08C3611F4206809
:103AC00002C0883641F4F60193FD859193FF819100
:103AD0006F018111C1CF982F9F7D9554933028F4A9
:103AE0000C5F1F4FFFE3F9830DC0833631F083373E
:103AF00071F0833509F05BC022C0F80180818983B1
:103B00000E5F1F4F44244394512C540115C03801BB
:103B1000F2E06F0E711CF801A080B18026FF03C097
:103B2000652D70E002C06FEF7FEFC5012C870E940A
:103B3000DB1E2C0183012C852F77222E17C0380124
:103B4000F2E06F0E711CF801A080B18026FF03C067
:103B5000652D70E002C06FEF7FEFC5012C870E94DA
:103B6000D01E2C012C852068222E830123FC1BC033
:103B7000832D90E048165906B0F4B70180E290E03A
:103B80000E94E61E3A94F4CFF50127FC859127FEAA
:103B900081915F01B70190E00E94E61E31103A94D6
:103BA000F1E04F1A51084114510471F7E5C0843611
:103BB00011F0893639F5F80127FF07C0608171815E
:103BC000828193810C5F1F4F08C0608171818827BB
:103BD00077FD8095982F0E5F1F4F2F76B22E97FF9F
:103BE00009C090958095709561957F4F8F4F9F4F3D
:103BF0002068B22E2AE030E0A4010E94181FA82EEF
:103C0000A81844C0853729F42F7EB22E2AE030E070
:103C100025C0F22FF97FBF2E8F36C1F018F48835FA
:103C200079F0B4C0803719F0883721F0AFC02F2F5A
:103C30002061B22EB4FE0DC08B2D8460B82E09C059
:103C400024FF0AC09F2F9660B92E06C028E030E0FE
:103C500005C020E130E002C020E132E0F801B7FE0B
:103C600007C060817181828193810C5F1F4F06C004
:103C70006081718180E090E00E5F1F4FA4010E947F
:103C8000181FA82EA818FB2DFF77BF2EB6FE0BC05D
:103C90002B2D2E7FA51450F4B4FE0AC0B2FC08C030
:103CA0002B2D2E7E05C07A2C2B2D03C07A2C01C023
:103CB000752C24FF0DC0FE01EA0DF11D80818033BB
:103CC00011F4297E09C022FF06C07394739404C0C6
:103CD000822F867809F0739423FD13C020FF06C05D
:103CE0005A2C731418F4530C5718732C731468F46B
:103CF000B70180E290E02C870E94E61E73942C8529
:103D0000F5CF731410F4371801C0312C24FF12C002
:103D1000B70180E390E02C870E94E61E2C8522FFED
:103D200017C021FF03C088E590E002C088E790E05B
:103D3000B7010CC0822F867859F021FD02C080E2C5
:103D400001C08BE227FD8DE2B70190E00E94E61EE4
:103D5000A51438F4B70180E390E00E94E61E5A945F
:103D6000F7CFAA94F401EA0DF11D8081B70190E02C
:103D70000E94E61EA110F5CF332009F451CEB70101
:103D800080E290E00E94E61E3A94F6CFF701868129
:103D9000978102C08FEF9FEF2C96E2E10C94921F67
:103DA000FC010590615070400110D8F78095909506
:103DB0008E0F9F1F0895FC0161507040019001100B
:103DC000D8F7809590958E0F9F1F08950F931F939E
:103DD000CF93DF93182F092FEB018B8181FD03C057
:103DE0008FEF9FEF20C082FF10C04E815F812C813A
:103DF0003D81421753077CF4E881F9819F012F5FD1
:103E00003F4F39832883108306C0E885F985812FC9
:103E10000995892B29F72E813F812F5F3F4F3F83E3
:103E20002E83812F902FDF91CF911F910F910895B5
:103E3000FA01AA27283051F1203181F1E8946F93DB
:103E40006E7F6E5F7F4F8F4F9F4FAF4FB1E03ED081
:103E5000B4E03CD0670F781F891F9A1FA11D680F1F
:103E6000791F8A1F911DA11D6A0F711D811D911D52
:103E7000A11D20D009F468943F912AE0269F1124C7
:103E80003019305D3193DEF6CF010895462F47702B
:103E9000405D4193B3E00FD0C9F7F6CF462F4F7086
:103EA000405D4A3318F0495D31FD4052419302D0E4
:103EB000A9F7EACFB4E0A69597958795779567958A
:103EC000BA95C9F700976105710508959B01AC018A
:103ED0000A2E06945795479537952795BA95C9F7B1
:103EE000620F731F841F951FA01D08952F923F928C
:103EF0004F925F926F927F928F929F92AF92BF92FA
:103F0000CF92DF92EF92FF920F931F93CF93DF93A5
:103F1000CDB7DEB7CA1BDB0B0FB6F894DEBF0FBE02
:103F2000CDBF09942A88398848885F846E847D844F
:103F30008C849B84AA84B984C884DF80EE80FD8051
:103F40000C811B81AA81B981CE0FD11D0FB6F894C7
:103F5000DEBF0FBECDBFED010895F894FFCFFFFF88
:103F6000FFFF8403AA10AA10AA10AA10AA1000C169
:103F70008081000000FFFFFFFF00E1000000000063
:103F8000005374617274696E6720757000526164C9
:103F9000696F20696E69740053657420656E6300F3
:103FA000746869734973456E63727970744B65798F
:103FB000000A5472616E736D697474696E67206172
:103FC00074202564204D687A2E2E2E000A436861E5
:103FD0006E67696E672064656C617920746F20007C
:103FE0006D730A005D20002020205B52585F525301
:103FF00053493A005D00202D2041434B2073656EEC
:10400000740053656E64696E6720737472756374AF
:1040100020280020627974657329202E2E2E20001E
:10402000206F6B2100206E6F7468696E672E2E2ED4
:104030000041646472657373202D20484558202D1B
:104040002042494E00202D200000000000CE0C81AF
:10405000081E08200D7E0DA0091C0CED07BA093BB7
:104060000A31099E0D0808F9070000000008146EC7
:10407000158A13A3139513E6130D0A006E616E00E3
:10408000696E66006F76660000000000FA1A411B38
:10409000241B341B101B211BFFFFFFFFFFFFFFFF33
:1040A000FFFFFFFFFFFFFFFFFFFFFFFFFFFFFFFF20
:1040B000FFFFFFFFFFFFFFFFFFFFFFFFFFFFFFFF10
:1040C000FFFFFFFFFFFFFFFFFFFFFFFFFFFFFFFF00
:1040D000FFFFFFFFFFFFFFFFFFFFFFFFFFFFFFFFF0
:1040E000FFFFFFFFFFFFFFFFFFFFFFFFFFFFFFFFE0
:1040F000FFFFFFFFFFFFFFFFFFFFFFFFFFFFFFFFD0
:10410000464C41534820696D6167652066726F6D4A
:104110002053455249414C2C2061626F7274696E84
:10412000672E2E2E000A464C583F4F4B00464C41FE
:10413000534820494D47205452414E534D49535303
:10414000494F4E205355434345535300464C41532A
:104150004820494D47205452414E534D49535349ED
:104160004F4E204641494C005245424F4F54494E14
:104170004700464C41534820494D47205452414E38
:10418000534D495353494F4E205355434345535381
:10419000210A0054696D656F75742F4572726F72D4
:1041A0002C2065726173696E67207772697474651B
:1041B0006E2064617461202E2E2E2000444F4E45E7
:1041C0000000000000001147112A113A11161127B2
:1041D000110D0A006E616E00696E66006F766600F2
:1041E000FFFFFFFFFFFFFFFFFFFFFFFFFFFFFFFFDF
:1041F000FFFFFFFFFFFFFFFFFFFFFFFFFFFFFFFFCF
:10420000FFFFFFFFFFFFFFFFFFFFFFFFFFFFFFFFBE
:10421000FFFFFFFFFFFFFFFFFFFFFFFFFFFFFFFFAE
:1070000055C000006EC000006CC000006AC00000E7
:1070100068C0000066C0000064C0000062C00000DC
:1070200060C000005EC00000C2C400005AC0000082
:1070300058C0000056C0000054C0000052C00000FC
:1070400050C0000076C000004CC000004AC00000E4
:1070500048C0000046C0000044C0000042C000001C
:1070600040C000003EC000003CC000003AC000002C
:1070700038C0000036C0000034C0000032C000003C
:1070800030C000002EC000002CC000002AC000004C
:1070900028C0000026C0000024C0000022C000005C
:1070A00020C000001EC000001CC0000011241FBE34
:1070B000CFEFDAE0DEBFCDBF11E0A0E0B1E0EEEC53
:1070C000FEE702C005900D92AA3BB107D9F711E087
:1070D000AAEBB1E001C01D92AC3CB107E1F75FD370
:1070E000F4C68ECFF89410926F0010928100109227
:1070F00085001092840081E085BF15BE47980C94EE
:10710000000008952091C0013091C1012F5F3F4FD1
:107110003093C1012093C001932F37FF03C08EEF3E
:10712000831B982F990F921710F447980895479A48
:1071300008951F920F920FB60F9211242F938F93E1
:107140009F93EF93FF931092850010928400E0E0EC
:10715000F0E0859194918F5F9F4F49F08091BA0143
:107160009091BB0101969093BB018093BA01FF916E
:10717000EF919F918F912F910F900FBE0F901F90C5
:10718000189584E08093E9000DC08091E8008B772A
:107190008093E80003C08EB3882351F08091E8000B
:1071A00082FFF9CF8091E80085FFEFCF8091F10059
:1071B0000895982F83E08093E9008091E80085FD91
:1071C0000DC08091E8008E778093E80003C08EB3F5
:1071D000882331F08091E80080FFF9CF9093F1008F
:1071E00008954F925F926F927F928F929F92AF928B
:1071F000BF92CF92DF92EF92FF920F931F93CF93A4
:10720000DF9384E08093E9008091E80082FF50C220
:10721000B8DF182F853481F48CEA9DE09093BB0190
:107220008093BA0107B600FCFDCFF999FECF81E14A
:1072300080935700E89503C0843519F4A2DF8DE0F0
:107240000DC28C34E1F38035D1F3843721F484E42A
:10725000B0DF80E003C2813611F489E5FFC18134DB
:10726000B1F48FDF182F8DDF90E0880F991FAA27C8
:1072700097FDA095BA2F312F330F20E0442737FD1B
:107280004095542F822B932BA42BB52BB8C180375C
:1072900011F483E5E3C1833549F4C0E0D1E089917D
:1072A00088DF21E0C730D207D1F7D9C1863521F474
:1072B00081E37FDF80E3D2C1833731F487E879DF70
:1072C00085E977DF8EE1CAC18536B9F4E0E0F0E008
:1072D00093E085E090935700E89507B600FCFDCF5A
:1072E00080935700E89507B600FCFDCFE058FF4FAC
:1072F000A0E7E030FA0771F7A2CF823739F4E1E076
:10730000F0E089E0809357008491A8C1863439F475
:10731000E0E0F0E089E08093570084919FC18E34D3
:1073200039F4E3E0F0E089E080935700849196C15E
:10733000813539F4E2E0F0E089E0809357008491F0
:107340008DC1823631F489E534DF80E032DF80E8B8
:1073500085C1823419F0873609F0E5C01092BB016F
:107360001092BA010EDF082F0CDFF82E0ADF682E0C
:107370008554823008F071C1902F80E0CF2DD0E08D
:10738000C82BD92B10926F00173609F04BC081E142
:1073900080935700E895DD24CC24C3943FC0E0904F
:1073A000BC01F090BD010091BE011091BF01B6E497
:1073B0006B16D9F4ED2DF0E0EE29FF29E4918E2F24
:1073C000F8DEDD2081F082E090E0A0E0B0E0E80EA1
:1073D000F91E0A1F1B1FE092BC01F092BD01009331
:1073E000BE011093BF01DC2418C0D801C701B695B7
:1073F000A7959795879553D5DCDE82E090E0A0E0D5
:10740000B0E0E80EF91E0A1F1B1FE092BC01F092CB
:10741000BD010093BE011093BF012197209709F091
:10742000BECF7DC08090BC019090BD01A090BE01F8
:10743000B090BF0196E4691609F05DC083E0F401E5
:1074400080935700E89507B600FCFDCF54C0F6E4E2
:107450006F1661F5772031F1E090BC01F090BD012D
:107460000091BE011091BF018CDED82ECC24852D59
:1074700090E08C299D29F7010C0140925700E89576
:10748000112482E090E0A0E0B0E0E80EF91E0A1FAF
:107490001B1FE092BC01F092BD010093BE0110934E
:1074A000BF0102C06EDE582E742423C0E090BC01E0
:1074B000F090BD010091BE011091BF011695079596
:1074C000F794E7945EDE682FC701F1D48091BC0188
:1074D0009091BD01A091BE01B091BF010296A11D86
:1074E000B11D8093BC019093BD01A093BE01B093E8
:1074F000BF01219704C05524772444244394209746
:1075000009F0A5CF96E4691641F485E0F401809373
:107510005700E89507B600FCFDCF8DE04ADE82E01B
:1075200080936F009CC0833471F40091BC01109172
:10753000BD0127DE90E021E0F8010C012093570007
:10754000E89511247CCE833619F5E090BC01F090CB
:10755000BD010091BE011091BF0113DEF701E16092
:1075600090E021E00C0120935700E895112482E07F
:1075700090E0A0E0B0E0E80EF91E0A1F1B1FE092A9
:10758000BC01F092BD010093BE011093BF0157CE24
:107590008D3661F4E091BC01F091BD0185E08093EE
:1075A0005700E89507B600FCFDCF49CE823551F46F
:1075B000E091BC01F091BD0105911491812FF9DD9D
:1075C000802F4CC0843421F5E090BC01F090BD01C7
:1075D0000091BE011091BF0116950795F794E794AD
:1075E000D0DD682FC70163D48091BC019091BD01AB
:1075F000A091BE01B091BF010296A11DB11D809363
:10760000BC019093BD01A093BE01B093BF0117CE02
:10761000843609F5E090BC01F090BD010091BE01F7
:107620001091BF01D801C701B695A7959795879589
:1076300036D4BFDD82E090E0A0E0B0E0E80EF91EB5
:107640000A1F1B1FE092BC01F092BD010093BE0116
:107650001093BF0104C08B3111F08FE3AADD83E0EA
:107660008093E9009091E8008091E8008E77809304
:10767000E80095FF04C010C08EB38823C9F0809144
:10768000E80080FFF9CF8091E8008E778093E800D2
:1076900003C08EB3882361F08091E80080FFF9CFAA
:1076A00084E08093E9008091E8008B778093E80084
:1076B000DF91CF911F910F91FF90EF90DF90CF90CE
:1076C000BF90AF909F908F907F906F905F904F9002
:1076D00008959091C401892F8F77813249F5809167
:1076E000C5018032A1F0813219F5913A09F58091F6
:1076F000E800877F8093E8008DE091E067E070E02C
:1077000005D28091E8008B778093E800089591324C
:1077100079F48091E800877F8093E8008DE091E024
:1077200067E070E057D28091E8008E778093E800A0
:10773000089582E061EC42E0B1D083E061E842E18B
:10774000ADD084E060E842E1A9C084B7877F84BF00
:1077500088E10FB6F89480936000109260000FBE2D
:1077600020E880E090E00FB6F894209361008093C9
:1077700061000FBE81E085BF92E095BF3F9AE1E6D0
:10778000F0E0208310824798109289008AEF80935E
:10779000880090936F0083E080938100F0C0409157
:1077A000000850910108109201081092000894B747
:1077B00014BE88E10FB6F8948093600010926000C8
:1077C0000FBE292F30E0F901E270F07091FD18C072
:1077D00090FF05C0859194918F5F9F4F81F423FFA7
:1077E0000FC08091090190910A014817590741F093
:1077F000E0E0F0E0859194918F5F9F4F09F072DC9B
:10780000A4DF78941092BB011092BA010CC0E9DC9D
:1078100034D38091BA019091BB01815A9F4010F0FE
:10782000109214016FDC80911401882381F78091FC
:10783000E00081608093E00055DC80E090E00895F6
:10784000FA01923049F0933061F09130F9F485E11A
:1078500091E022E130E01EC087E291E02EE330E0CB
:1078600019C0882329F485E691E024E030E012C0B5
:10787000813029F489E691E02EE130E00BC08230BE
:1078800029F48DE891E02AE230E004C080E090E045
:1078900020E030E091838083C90108958093E9005E
:1078A0008091EB0081608093EB001092ED0060937B
:1078B000EC004093ED008091EE00881F8827881F20
:1078C00008958091C40188238CF403C08EB388236B
:1078D000B1F08091E80082FFF9CF8091E8008B77CA
:1078E0008093E80008958EB3882349F08091E800E2
:1078F00080FFF9CF8091E8008E778093E8000895AB
:10790000EF92FF920F931F9345D04CD008ED10E0FB
:10791000F80180818F778083808180688083808177
:107920008F7D808319BC1EBA1092C20180EEE82EB2
:10793000F12CF70180818B7F8083F8018081816049
:10794000808380E060E042E0A9DFE1EEF0E080814A
:107950008E7F8083E2EEF0E0808181608083808191
:1079600088608083F70180818E7F8083F801808129
:10797000806180831F910F91FF90EF900895E7ED54
:10798000F0E08081816080838AE482BF81E080931F
:10799000C301B6CFE8EDF0E080818E7F8083109246
:1079A000E20008951092DA001092E10008951F920B
:1079B0000F920FB60F9211242F933F934F935F9323
:1079C0006F937F938F939F93AF93BF93EF93FF93A7
:1079D0008091DA0080FF1AC08091D80080FF16C025
:1079E0008091DA008E7F8093DA008091D90080FF49
:1079F0000AC019BC82E089BD09B400FEFDCF81E058
:107A00008EBB3AD203C019BC1EBA36D28091E100B7
:107A100080FF17C08091E20080FF13C08091E200D8
:107A20008E7F8093E2008091E20080618093E2008B
:107A30008091D80080628093D80019BC85E08EBB0D
:107A40001BD28091E10084FF2BC08091E20084FF73
:107A500027C019BC82E089BD09B400FEFDCF80912A
:107A6000D8008F7D8093D8008091E1008F7E809335
:107A7000E1008091E2008F7E8093E2008091E2003D
:107A800081608093E2008091C201882331F480916B
:107A9000E30087FD02C081E001C084E08EBBECD131
:107AA0008091E10083FF21C08091E20083FF1DC02F
:107AB0008091E100877F8093E10082E08EBB10928D
:107AC000C2018091E1008E7F8093E1008091E2000D
:107AD0008E7F8093E2008091E20080618093E200DB
:107AE00080E060E042E0DADEC7D1FF91EF91BF9124
:107AF000AF919F918F917F916F915F914F913F9146
:107B00002F910F900FBE0F901F9018959C014091E0
:107B1000CA015091CB014617570718F4F90190E0BC
:107B200044C06115710511F0AB01F8CF8091E800F8
:107B30008E778093E80040E050E0F0CF8EB388234A
:107B400009F444C0853009F443C08091E80083FF04
:107B500002C081E008958091E80082FD31C08091EB
:107B6000E80080FF22C08091F3009091F200782F0E
:107B700060E0292F30E0262B372B07C081918093BE
:107B8000F100415050402F5F3F4F4115510519F012
:107B90002830310598F390E02830310509F491E060
:107BA0008091E8008E778093E8004115510531F609
:107BB000992321F605C08EB3882341F0853041F02A
:107BC0008091E80082FFF7CF80E0089582E0089579
:107BD00083E008959C016115710529F48091E80006
:107BE0008B778093E800F90126C08EB3882391F14A
:107BF000853091F18091E80083FF02C081E0089513
:107C00008091E80082FFF1CF06C08091F10081935E
:107C10006150704059F02091F3008091F200322FB2
:107C200020E090E0822B932B892B79F78091E8005C
:107C30008B778093E80061157105B9F605C08EB3A6
:107C4000882341F0853041F08091E80080FFF7CF34
:107C500080E0089582E0089583E008950F931F93D4
:107C6000DF93CF9300D0CDB7DEB7E4ECF1E08091A5
:107C7000F100819381E0EC3CF807C9F72ADD80919F
:107C8000E80083FFE4C08091C4019091C501953064
:107C900009F46DC0963040F4913081F1913070F06C
:107CA000933009F0D4C02AC0983009F4A3C09930A9
:107CB00009F4B2C0963009F0CAC07CC0803809F41B
:107CC000C6C0823809F0C3C08091C8018770809314
:107CD000E9008091EB001092E9002091E800277FF5
:107CE0002093E80090E025E0969587952A95E1F7A6
:107CF00081708093F1001092F10087C0882319F001
:107D0000823009F0A4C08F71823009F0A0C0809148
:107D1000C601882331F52091C801277009F497C066
:107D20002093E9008091EB0080FF1BC0933021F489
:107D30008091EB00806213C08091EB0080618093A2
:107D4000EB0081E090E002C0880F991F2A95E2F7CE
:107D50008093EA001092EA008091EB0088608093A3
:107D6000EB001092E9008091E800877F51C08823E2
:107D700009F06DC01091C6011F770FB7F89480917C
:107D8000E800877F8093E8009CDD8091E80080FF19
:107D9000FCCF8091E3008078812B8093E3008068A2
:107DA0008093E300112311F482E001C083E08EBBD5
:107DB0000FBF4DC08058823008F049C08091C60185
:107DC0009091C7016091C801AE014F5F5F4F38DDF0
:107DD000BC01009709F43BC08091E800877F809345
:107DE000E80089819A8192DE8091E8008B77809308
:107DF000E8002DC0803859F58091E800877F809396
:107E0000E8008091C2018093F1008091E8008E77B4
:107E10008093E80056DD1BC08823C9F49091C60109
:107E20009230A8F48091E800877F8093E8009093D7
:107E3000C20147DD8091C201882331F48091E300C3
:107E400087FD02C081E001C084E08EBB72DC8091BE
:107E5000E80083FF0AC08091EB0080628093EB0012
:107E60008091E800877F8093E8000F900F90CF917A
:107E7000DF911F910F91089508951F938EB388236A
:107E800061F01091E9001092E9008091E80083FF11
:107E900001C0E4DE17701093E9001F910895F9996D
:107EA000FECF92BD81BDF89A992780B50895262FFF
:107EB000F999FECF1FBA92BD81BD20BD0FB6F894CF
:107EC000FA9AF99A0FBE01960895F894FFCF4341AC
:107ED000544552494E4100777700080000000000E9
:107EE00000080112011001020000084F1B07920157
:107EF000000201000109023E000201008032090473
:107F00000000010202010005240010010424020403
:107F10000524060001070582030800FF090401008B
:107F2000020A000000070504021000010705830291
:107F3000100001040309041E034C0069006C007961
:107F400000500061006400550053004200200020F2
:107F500000200020002000200000002A03530070B1
:107F600000610072006B00460075006E0020004545
:107F7000006C0065006300740072006F006E0069A1
:087F8000006300730000000023
:00000001FF
