:200000000C94E2000C940A010C940A010C940A010C940A010C940A010C940A010C940A01B1
:200020000C940A010C940A010C940E070C94A0050C940A010C940A010C940A010C940A01C4
:200040000C940A010C940A010C940A010C940A010C940A010C940A010C940A010C94CC0186
:200060000C940A010C940A010C940A010C940A010C940A010C940A010C940A010C940A0128
:200080000C940A010C940A010C940A010C940A010C940A010C940A010C940A010C940A0108
:2000A0000C940A010C940A010C940A01CF02D202C102C502CB02F302F302F302D602DA02B0
:2000C000DE02E402E802F302EE020000000200090F0000030401000C00000000000000005D
:2000E000000000000000000000040802011040804010204080408008020401804020100230
:20010000011080102040402004040404040304050202020204030202020206060606060623
:200120000404020202040400000000250028002B002E00310000000000240027002A002D30
:2001400000300012010002EF0201404F1B089200010102030112010002000000404F1B0855
:2001600092000101020301537061726B46756E004C696C79506164205553420004030904EE
:20018000080B00020202010009040000010202000005240010010524010101042402060598
:2001A000240600010705810310004009040100020A000000070502024000000705830240F9
:2001C0000000850811241FBECFEFDAE0DEBFCDBF11E0A0E0B1E0EAE8F2E102C005900D9242
:2001E000A432B107D9F721E0A4E2B1E001C01D92A439B207E1F711E0C4ECD1E004C02297DC
:20020000FE010E943F09C23CD107C9F70E9464030C9443090C94000061E08DE00E94F40284
:2002200061E086E00E94F40261E087E00E94F40261E088E00E94F40261E089E00E94F402BC
:2002400061E08BE00E94F40261E08CE00E94F40261E085E10E94F40261E086E10E94F40296
:2002600061E082E00E94F40261E080E00E94F40261E081E00E94F40261E08EE00E94F40289
:2002800061E08FE00E94F40261E080E10C94F40261E08DE00E942D0361E080E00E942D03EB
:2002A00061E081E00E942D0361E082E00E942D0361E085E10E942D0361E086E10E942D0362
:2002C00061E086E00E942D0361E087E00E942D0361E088E00E942D0361E089E00E942D0334
:2002E00061E08BE00E942D0361E08CE00E942D0361E08EE00E942D0361E08FE00E942D03FE
:2003000061E080E10E942D0368EE73E080E090E00E94390260E08DE00E942D0360E080E0F4
:200320000E942D0360E081E00E942D0360E082E00E942D0360E085E10E942D0360E086E1E5
:200340000E942D0360E086E00E942D0360E087E00E942D0360E088E00E942D0360E089E0B7
:200360000E942D0360E08BE00E942D0360E08CE00E942D0360E08EE00E942D0360E08FE081
:200380000E942D0360E080E10E942D0368EE73E080E090E00C9439021F920F920FB60F920C
:2003A00011242F933F938F939F93AF93BF938091250190912601A0912701B0912801309189
:2003C000240126E0230F2D3720F40296A11DB11D05C029E8230F0396A11DB11D209324011F
:2003E0008093250190932601A0932701B09328018091290190912A01A0912B01B0912C0161
:200400000196A11DB11D8093290190932A01A0932B01B0932C01BF91AF919F918F913F91AF
:200420002F910F900FBE0F901F9018953FB7F8948091290190912A01A0912B01B0912C01C1
:2004400026B5A89B05C02F3F19F00196A11DB11D3FBF6627782F892F9A2F620F711D811DCF
:20046000911D43E0660F771F881F991F4A95D1F70895CF92DF92EF92FF92CF93DF936B01D9
:200480007C010E941602EB01C114D104E104F10489F00E9477030E9416026C1B7D0B683EB1
:2004A000734090F381E0C81AD108E108F108C851DC4FEACFDF91CF91FF90EF90DF90CF905F
:2004C0000895789484B5826084BD84B5816084BD85B5826085BD85B5816085BDEEE6F0E05D
:2004E000808181608083E1E8F0E01082808182608083808181608083E0E8F0E080818160A7
:200500008083E1E9F0E0808182608083808181608083E0E9F0E0808181608083E1ECF0E058
:20052000808184608083808182608083808181608083E3ECF0E0808181608083E0ECF0E0E8
:20054000808182608083E2ECF0E0808181608083EAE7F0E0808184608083808182608083C3
:2005600080818E7F8083808180688083089590E0FC013197EF30F105B0F5EA5AFF4F0C94C0
:200580003D09809180008F7703C0809180008F7D80938000089580918000877FF9CF84B556
:2005A0008F7702C084B58F7D84BD0895809190008F7707C0809190008F7D03C080919000D1
:2005C000877F8093900008958091C0008F7703C08091C0008F7D8093C00008958091C2001B
:2005E000877F8093C2000895CF93DF9390E0FC01E751FF4F2491FC01E85FFE4F84918823B6
:2006000049F190E0880F991FFC01EB5CFE4FA591B491895D9E4FFC01C591D4919FB7611182
:2006200008C0F8948C91209582238C93888182230AC0623051F4F8948C91322F309583230C
:200640008C938881822B888304C0F8948C91822B8C939FBFDF91CF9108950F931F93CF9300
:20066000DF931F92CDB7DEB7282F30E0F901E653FF4F8491F901E751FF4F1491F901E85FDB
:20068000FE4F04910023C9F0882321F069830E94B7026981E02FF0E0EE0FFF1FE95DFE4F22
:2006A000A591B4919FB7F8948C91611103C01095812301C0812B8C939FBF0F90DF91CF91E9
:2006C0001F910F91089508950E9461020E9463038DE291E00E9491070E940C01C0E0D0E06A
:2006E0000E9448012097E1F30E940000F9CF0895615030F02091F100FC0120830196F8CF0C
:20070000289884E6809336010895409131015091320120912F013091300142175307B4F483
:200720009091E8009570E1F39091E80092FD19C08093F100809131019091320101968F7332
:200740009927892B19F48EEF8093E80080913101909132010196909332018093310181E076
:20076000089580E00895CF92DF92EF92FF920F931F93CF93DF931F92CDB7DEB7082F162F8D
:20078000F42E862F880F8E5F99830E94850383E00E948503E02EC02E9981D92E8C2D8E19AE
:2007A000811798F4F601F7FE02C0849101C080810E948503082F80E00E9485038023FFEF14
:2007C000CF1ADF0A8111EACF01C081E00F90DF91CF911F910F91FF90EF90DF90CF900895A2
:2007E0008091D70081608093D70080EA8093D80089B58F7E89BD89B5826089BD09B400FE3F
:20080000FDCF61E070E080E090E00E9439028091D8008F7C80618093D8008091E000807F1E
:200820008093E0000895CF93DF931F92CDB7DEB71982CE0101960E9401080E942909BE014B
:200840006F5F7F4F0E94A20889810F90DF91CF9108952FB7FC012083F89467706093E900D5
:200860000895CF93DF931F92CDB7DEB7682FCE0101960E9429048091F20099819FBF0F9057
:20088000DF91CF910895FF920F931F93CF93DF9300D0CDB7DEB7F62E8A0190913501992387
:2008A00011F057FF03C08FEF9FEF2BC0682FCE0101967A830E9429048091F20090E0A80142
:2008C0007A81801791070CF4AC01EF2DF72FF40E84E6FE1639F02898809336019091F1003A
:2008E0009193F7CF4115510521F08091F200882321F089818FBFCA0104C08BE68093E8003F
:20090000F8CF0F900F90DF91CF911F910F91FF900895CF93DF931F92CDB7DEB741E050E097
:20092000BE016F5F7F4F0E944304019719F4898190E002C08FEF9FEF0F90DF91CF9108957A
:20094000CF93DF931F92CDB7DEB7682FCE0101960E9429049091E800892F807295FF04C022
:200960009091F20080E4891B99819FBF0F90DF91CF9108956F927F928F929F92AF92BF92E2
:20098000CF92DF92EF92FF920F931F93CF93DF931F92CDB7DEB7782E7B01C42EB52E809179
:2009A0003501882369F0042F152F8AEFD82E872D8072982E9AE3A92E872D8074882E11C018
:2009C0008FEF9FEF57C0872D0E94A004682E81110CC0DA94A9F361E070E080E090E00E94F9
:2009E00039020115110579F73BC0282F30E0021713070CF4602E672DCE0101960E94290434
:200A00008091E80085FF29C0262D30E0021B130B992039F06A948FEF6816B1F01092F100C2
:200A2000F9CFF701862D77FE07C0815058F094919093F1003196F9CF815020F09191909300
:200A4000F100FACFE20EF31E8091E80085FF0FC00115110511F481100AC089818FBFC1CF1B
:200A60005D9884E6809337018C2D9B2D03C0A092E800F3CF0F90DF91CF911F910F91FF905E
:200A8000EF90DF90CF90BF90AF909F908F907F906F9008951092E90010923201109231014E
:200AA0009093300180932F010895CF92DF92FF920F931F93CF93DF9300D0CDB7DEB7F82E68
:200AC0008A016B0101151105B1F0F601F7FE02C0849101C0808149835A830E9485030150A9
:200AE0001109FFEFCF1ADF0A49815A818111EACF8FEF9FEF01C0CA010F900F90DF91CF9186
:200B00001F910F91FF90DF90CF9008951F93CF93DF931F92CDB7DEB7162F2091E80022FF3C
:200B2000FCCF612F79830E9478038BEF8093E800812F7981972F0F90DF91CF911F910895A0
:200B40001F920F920FB60F921124DF92EF92FF920F931F932F933F934F935F936F937F9355
:200B60008F939F93AF93BF93EF93FF93CF93DF93CDB7DEB76C97DEBFCDBF1092E9008091C4
:200B8000E80083FF23C168E0CE0145960E94780382EF8093E8003D8937FF05C08091E800D2
:200BA00080FFFCCF03C08EEF8093E800832F807609F0F0C02E894F89D88C21110CC0303806
:200BC00029F4809134018093F10002C01092F1001092F100F4C0842F90E09D29213049F49B
:200BE0003111EDC0019709F0EAC0809134018D7F0AC0233059F43111E2C0019709F0DFC0FB
:200C000080913401826080933401D9C0253041F48091E80080FFFCCF40684093E300CFC011
:200C2000263009F08DC0EB8CFC8C22E0D2122CC080E090E00E944A050E94130499E08E01C5
:200C40000F5F1F4FF801292F11922A95E9F79983DA8291E09E8390EA98879AEF9987209128
:200C6000310130913201275F3F4F3C832B838D83C7010E944A0549E050E0B80180E00E94F0
:200C800055050E9413049BC0C7010E944A050E942909BE016B5E7F4F0E94CB08009719F0EE
:200CA0000CF08DC090C081E0D8120EC08B8D9C8D089719F481E080932E0180912E01811120
:200CC0002FC065E571E031C0E3E0DE127CC08F89882349F1823029F440E86BE080E791E093
:200CE0001CC0813029F440E868E087E691E015C0833009F068C00E9429098E010F5F1F4F14
:200D0000B8010E94EA08F80101900020E9F73197E01BF10B40E06E2FC8010E94B3034DC052
:200D200063E471E002C06CE771E06115710509F44AC0FB01449150E080E80E9455053FC05E
:200D4000273009F440C0283021F481E08093F10036C02930A1F53370B1F5E1E0F1E081E04C
:200D600021E036E39081992361F08093E9002093EB0091919093EC003093ED008F5F87301B
:200D800089F78EE78093EA001092EA008F898093350115C08B8D9C8D0E944A05898D8111C5
:200DA00005C0CE0145960E940C0807C00E942909BE016B5E7F4F0E940909882321F08EEF30
:200DC0008093E80003C081E28093EB006C960FB6F894DEBF0FBECDBFDF91CF91FF91EF91CB
:200DE000BF91AF919F918F917F916F915F914F913F912F911F910F91FF90EF90DF900F9037
:200E00000FBE0F901F9018958093E9008091F200882319F08AE38093E80008951F920F9200
:200E20000FB60F9211242F933F934F935F936F937F938F939F93AF93BF93CF93EF93FF933D
:200E4000C091E1008091E100837F8093E1008093E100C3FF0FC01092E90081E08093EB0009
:200E60001092EC0082E38093ED001092350188E08093F000C2FF19C083E00E940407809181
:200E80003701882339F080913701815080933701882389F180913601882339F08091360158
:200EA000815080933601882341F1C4FF10C08091E2008E7E81608093E2008091E1008F7ED3
:200EC0008093E100809133018E7E806111C0C0FF16C08091E2008E7E80618093E2008091A0
:200EE000E1008E7E8093E100809133018E7E81608093330104C05D9ACDCF289AD6CFFF914A
:200F0000EF91CF91BF91AF919F918F917F916F915F914F913F912F910F900FBE0F901F90E7
:200F200018951092350110923401109233010E94F003E1EEF0E080818E7E80838DE08093BB
:200F4000E200559A209A0895CF93DF931F92CDB7DEB76983DC01ED91FC910280F381E02DF4
:200F600041E050E0BE016F5F7F4F09950F90DF91CF910895CF93DF93EC018C859D8597FF91
:200F800005C082E00E9489049D878C878C859D85DF91CF91089583E00C940407FC01848510
:200FA000958597FD06C082E00E94310490E00196089582E00E94310490E00895FC01848594
:200FC000958597FD05C02FEF3FEF35872487089582E00C948904CF93DF93EC0180911201DA
:200FE000882331F083E00E94BA041816190634F081E090E09B838A8380E090E0DF91CF9155
:201000000895FC0120812E5F208342E450E060E871E080E80C945505FC0121818081813AB9
:2010200059F4213209F05CC047E050E06BE071E080E00E94550567C0813209F051C0233273
:2010400089F4838190E0982F88273281832BA0E0B0E08093070190930801A0930901B093F1
:201060000A010FC0203239F467E070E08BE091E00E9486050AC0223221F48281809312011B
:2010800004C02D7F203209F03EC080910B0190910C01A0910D01B0910E01803B9440A10588
:2010A000B10501F58091120180FD1CC080910008909101089093FF0A8093FE0A87E797E791
:2010C00090930108809300082BE088E190E00FB6F894A895809360000FBE2093600013C031
:2010E00080E0089588E10FB6F89480936000109260000FBEA8958091FE0A9091FF0A909354
:2011000001088093000881E0089510923B0110923A0188EE93E0A0E0B0E080933C01909386
:201120003D01A0933E01B0933F0187E191E090933901809338018FEF9FEF90934501809372
:2011400044010895EF92FF920F931F93CF93DF937B01FC01C281D38100E010E0209781F06B
:20116000E881F9810280F381E02DB701CE01099597FD08C0080F191F0884D985C02DEECF25
:20118000C80102C08FEF9FEFDF91CF911F910F91FF90EF9008950F931F93CF93DF938B0139
:2011A000FC01C281D381209771F0E881F9810480F581E02DB801CE010995009731F408842B
:2011C000D985C02DF0CF80E090E0DF91CF911F910F9108950F931F93CF93DF938B01FC01C7
:2011E000C281D381209771F0E881F9810680F781E02DB801CE010995080F111D0884D985FD
:20120000C02DF0CFF8011082DF91CF911F910F9108950F931F93CF93DF938B01FC01C281E6
:20122000D381209771F0E881F9810190F081E02DB801CE010995811106C00884D985C02DFB
:20124000F0CF80E001C081E0DF91CF911F910F91089580918C0181110DC082E08093880195
:2012600084E08093890110928B0110928A0181E080938C0188E891E00895EE0FFF1F0590E3
:20128000F491E02D0994F894FFCF00C18081000000FFFFFFFF00E100000000000000000026
:2012A00000A407EB07CE07DE07BA07CB0700FFFFFFFFFFFFFFFFFFFFFFFFFFFFFFFFFFFF56
:2012C000FFFFFFFFFFFFFFFFFFFFFFFFFFFFFFFFFFFFFFFFFFFFFFFFFFFFFFFFFFFFFFFF2E
:2012E000FFFFFFFFFFFFFFFFFFFFFFFFFFFFFFFFFFFFFFFFFFFFFFFFFFFFFFFFFFFFFFFF0E
:20130000F8946091890270918A0280918B0290918C022FBF08953FB7F89480918D0290911D
:201320008E02A0918F02B091900226B5A89B05C02F3F19F00196A11DB11D3FBF6627782FD9
:20134000892F9A2F620F711D811D911D43E0660F771F881F991F4A95D1F70895CF92DF921E
:20136000EF92FF92CF93DF936B017C010E948B09EB01C114D104E104F10489F00E943D128E
:201380000E948B096C1B7D0B683E734090F381E0C81AD108E108F108C851DC4FEACFDF91C1
:2013A000CF91FF90EF90DF90CF900895789484B5826084BD84B5816084BD85B5826085BD33
:2013C00085B5816085BDEEE6F0E0808181608083E1E8F0E010828081826080838081816034
:2013E0008083E0E8F0E0808181608083E1E9F0E0808182608083808181608083E0E9F0E06F
:20140000808181608083E1ECF0E0808184608083808182608083808181608083E3ECF0E0F8
:20142000808181608083E0ECF0E0808182608083E2ECF0E0808181608083EAE7F0E0808120
:201440008460808380818260808380818E7F8083808180688083089590E0FC013197EF30D1
:20146000F105B0F5EA5AFF4F0C942615809180008F7703C0809180008F7D8093800008953D
:2014800080918000877FF9CF84B58F7702C084B58F7D84BD0895809190008F7707C080914A
:2014A00090008F7D03C080919000877F8093900008958091C0008F7703C08091C0008F7D6F
:2014C0008093C00008958091C200877F8093C2000895CF93DF9390E0FC01E751FF4F2491D5
:2014E000FC01E85FFE4F8491882349F190E0880F991FFC01ED5BFE4FA591B4918B5C9E4FC1
:20150000FC01C591D4919FB7611108C0F8948C91209582238C93888182230AC0623051F412
:20152000F8948C91322F309583238C938881822B888304C0F8948C91822B8C939FBFDF914F
:20154000CF9108950F931F93CF93DF931F92CDB7DEB7282F30E0F901E653FF4F8491F901A5
:20156000E751FF4F1491F901E85FFE4F04910023C9F0882321F069830E942C0A6981E02FC8
:20158000F0E0EE0FFF1FEB5CFE4FA591B4919FB7F8948C91611103C01095812301C0812B67
:2015A0008C939FBF0F90DF91CF911F910F910895CF93DF93282F30E0F901E653FF4F849181
:2015C000F901E751FF4FD491F901E85FFE4FC491CC2391F081110E942C0AEC2FF0E0EE0F81
:2015E000FF1FE95DFE4FA591B4912C912D2381E090E021F480E002C080E090E0DF91CF910A
:201600000895CF93DF931F92CDB7DEB76983DC01ED91FC910280F381E02D41E050E0BE01A8
:201620006F5F7F4F09950F90DF91CF910895CF93DF93EC018C859D8597FF05C082E00E9411
:201640000E0F9D878C878C859D85DF91CF91089583E00C948911FC018485958597FD06C07F
:2016600082E00E94B60E90E00196089582E00E94B60E90E00895FC018485958597FD05C0B0
:201680002FEF3FEF35872487089582E00C940E0FCF93DF93EC0180911501882331F083E0C4
:2016A0000E943F0F1816190634F081E090E09B838A8380E090E0DF91CF910895FC012081F2
:2016C0002E5F208342E450E061E571E080E80C94DA0FFC0121818081813A59F4213209F008
:2016E0005CC047E050E06EE071E080E00E94DA0F67C0813209F051C0233289F4838190E0C3
:20170000982F88273281832BA0E0B0E080930A0190930B01A0930C01B0930D010FC02032E3
:2017200039F467E070E08EE091E00E940B100AC0223221F482818093150104C02D7F203228
:2017400009F03EC080910E0190910F01A0911001B0911101803B9440A105B10501F58091BA
:20176000150180FD1CC080910008909101089093FF0A8093FE0A87E797E790930108809345
:2017800000082BE088E190E00FB6F894A895809360000FBE2093600013C080E0089588E143
:2017A0000FB6F89480936000109260000FBEA8958091FE0A9091FF0A9093010880930008CF
:2017C00081E008952FEF3FEFFC01358724870895109294021092930288EE93E0A0E0B0E056
:2017E0008093950290939602A0939702B09398028DE092E090939202809391028FEF9FEF93
:2018000090939E0280939D0208956115710581F0DB010D900020E9F7AD0141505109461BE6
:20182000570BDC01ED91FC910280F381E02D099480E090E008950C94050CDC01ED91FC91B8
:201840000190F081E02D099469E172E00C94050C0F931F93CF93DF93EC010E94050C8C013A
:20186000CE010E94240C800F911FDF91CF911F910F9108958F929F92AF92BF92CF92DF9215
:20188000EF92FF920F931F93CF93DF93CDB7DEB7A1970FB6F894DEBF0FBECDBF7C01C42E07
:2018A000E52FCB01D22E19A221E02D1510F02AE0D22E8E010F5D1F4F8D2C912CA12CB12CB7
:2018C0006C2D7E2FA50194010E9404158C2DD29E80191124015011098A3014F4805D01C00A
:2018E000895CF8018083211531054105510521F0C22EE32FCA01E4CFB801C7010E94050C3A
:20190000A1960FB6F894DEBF0FBECDBFDF91CF911F910F91FF90EF90DF90CF90BF90AF90BF
:201920009F908F900895CF92DF92EF92FF920F931F93CF93DF93EC016A017B012115310570
:2019400079F4E881F9810190F081E02D642FDF91CF911F910F91FF90EF90DF90CF900994FC
:201960002A303105E9F477FF1AC06DE20E941D0C8C0144275527BA014C195D096E097F0997
:201980002AE0CE010E943A0C800F911FDF91CF911F910F91FF90EF90DF90CF9008952AE0A4
:2019A000B701A601CE01DF91CF911F910F91FF90EF90DF90CF900C943A0C9A01AB01662743
:2019C00057FD6095762F0C94930C2115310541F4DC01ED91FC910190F081E02D642F099412
:2019E0000C943A0C9A01462F50E060E070E00C94E50C0F931F93CF93DF93EC019A01462F7B
:201A000050E060E070E00E94E50C8C01CE010E94240C800F911FDF91CF911F910F91089549
:201A20004F925F926F927F928F929F92AF92BF92CF92DF92EF92FF920F931F93CF93DF93D2
:201A4000EC016A017B01B22E9A01AB01C701B6010E94F414882319F06CE172E027C0260101
:201A60003701E89477F82FEF3FEF4FE75FE7C301B2010E94F41481110DC02FEF3FEF4FE779
:201A80005FE7C301B2010E943E1318161CF460E272E00CC02FEF3FEF4FE75FE4C701B601B4
:201AA0000E948D141816ACF464E272E0CE01DF91CF911F910F91FF90EF90DF90CF90BF9063
:201AC000AF909F908F907F906F905F904F900C94050C2FEF3FEF4FE75FECC701B6010E94FE
:201AE0003E1387FDE1CF20E030E0A901C701B6010E943E1387FF0AC06DE2CE010E941D0CFC
:201B00008C01F7FAF094F7F8F09402C000E010E0A12C60E070E080E09FE3AB1441F020E08F
:201B200030E040E251E40E944213A394F6CF9B01AC01C701B6010E94DA126B017C010E946A
:201B4000AF132B013C010E94DB139B01AC01C701B6010E94D9126B017C012AE0B301A2012B
:201B6000CE010E943A0C080F191FBB2039F068EE71E0CE010E94050C080F191F7B2C7720A5
:201B800041F120E030E040E251E4C701B6010E9491146B017C010E94AA134B01AA2497FCF1
:201BA000A094BA2C2AE030E0B501A401CE010E94930C080F191FC501B4010E94DD139B018E
:201BC000AC01C701B6010E94D9126B017C017A94D6CFC801DF91CF911F910F91FF90EF90B9
:201BE000DF90CF90BF90AF909F908F907F906F905F904F9008950C94100D615030F0209183
:201C0000F100FC0120830196F8CF289884E68093EA0208954091E5025091E6022091E302F8
:201C20003091E40242175307B4F49091E8009570E1F39091E80092FD19C08093F10080913A
:201C4000E5029091E60201968F739927892B19F48EEF8093E8008091E5029091E60201966A
:201C60009093E6028093E50281E0089580E00895CF92DF92EF92FF920F931F93CF93DF9358
:201C80001F92CDB7DEB7082F162FF42E862F880F8E5F99830E940A0E83E00E940A0EE02EA2
:201CA000C02E9981D92E8C2D8E19811798F4F601F7FE02C0849101C080810E940A0E082F1B
:201CC00080E00E940A0E8023FFEFCF1ADF0A8111EACF01C081E00F90DF91CF911F910F915B
:201CE000FF90EF90DF90CF9008958091D70081608093D70080EA8093D80089B58F7E89BDD2
:201D000089B5826089BD09B400FEFDCF61E070E080E090E00E94AE098091D8008F7C806147
:201D20008093D8008091E000807F8093E0000895CF93DF931F92CDB7DEB71982CE01019699
:201D40000E945E0B0E94C512BE016F5F7F4F0E943E1289810F90DF91CF9108952FB7FC01B9
:201D60002083F89467706093E9000895CF93DF931F92CDB7DEB7682FCE0101960E94AE0EEB
:201D80008091F20099819FBF0F90DF91CF910895FF920F931F93CF93DF9300D0CDB7DEB71A
:201DA000F62E8A019091E902992311F057FF03C08FEF9FEF2BC0682FCE0101967A830E94FF
:201DC000AE0E8091F20090E0A8017A81801791070CF4AC01EF2DF72FF40E84E6FE1639F069
:201DE00028988093EA029091F1009193F7CF4115510521F08091F200882321F089818FBF54
:201E0000CA0104C08BE68093E800F8CF0F900F90DF91CF911F910F91FF900895CF93DF93A2
:201E20001F92CDB7DEB741E050E0BE016F5F7F4F0E94C80E019719F4898190E002C08FEF55
:201E40009FEF0F90DF91CF910895CF93DF931F92CDB7DEB7682FCE0101960E94AE0E9091CE
:201E6000E800892F807295FF04C09091F20080E4891B99819FBF0F90DF91CF9108956F92D8
:201E80007F928F929F92AF92BF92CF92DF92EF92FF920F931F93CF93DF931F92CDB7DEB777
:201EA000782E7B01C42EB52E8091E902882369F0042F152F8AEFD82E872D8072982E9AE34C
:201EC000A92E872D8074882E11C08FEF9FEF57C0872D0E94250F682E81110CC0DA94A9F351
:201EE00061E070E080E090E00E94AE090115110579F73BC0282F30E0021713070CF4602E69
:201F0000672DCE0101960E94AE0E8091E80085FF29C0262D30E0021B130B992039F06A9485
:201F20008FEF6816B1F01092F100F9CFF701862D77FE07C0815058F094919093F1003196A9
:201F4000F9CF815020F091919093F100FACFE20EF31E8091E80085FF0FC00115110511F45B
:201F600081100AC089818FBFC1CF5D9884E68093EB028C2D9B2D03C0A092E800F3CF0F9000
:201F8000DF91CF911F910F91FF90EF90DF90CF90BF90AF909F908F907F906F90089510921C
:201FA000E9001092E6021092E5029093E4028093E3020895CF92DF92FF920F931F93CF936E
:201FC000DF9300D0CDB7DEB7F82E8A016B0101151105B1F0F601F7FE02C0849101C0808137
:201FE00049835A830E940A0E01501109FFEFCF1ADF0A49815A818111EACF8FEF9FEF01C096
:20200000CA010F900F90DF91CF911F910F91FF90DF90CF9008951F93CF93DF931F92CDB7E2
:20202000DEB7162F2091E80022FFFCCF612F79830E94FD0D8BEF8093E800812F7981972F24
:202040000F90DF91CF911F9108951F920F920FB60F921124DF92EF92FF920F931F932F933E
:202060003F934F935F936F937F938F939F93AF93BF93EF93FF93CF93DF93CDB7DEB76C97BA
:20208000DEBFCDBF1092E9008091E80083FF23C168E0CE0145960E94FD0D82EF8093E80023
:2020A0003D8937FF05C08091E80080FFFCCF03C08EEF8093E800832F807609F0F0C02E89D9
:2020C0004F89D88C21110CC0303829F48091E8028093F10002C01092F1001092F100F4C0A6
:2020E000842F90E09D29213049F43111EDC0019709F0EAC08091E8028D7F0AC0233059F4CE
:202100003111E2C0019709F0DFC08091E80282608093E802D9C0253041F48091E80080FF36
:20212000FCCF40684093E300CFC0263009F08DC0EB8CFC8C22E0D2122CC080E090E00E9408
:20214000CF0F0E94980E99E08E010F5F1F4FF801292F11922A95E9F79983DA8291E09E83D8
:2021600090EA98879AEF99872091E5023091E602275F3F4F3C832B838D83C7010E94CF0F03
:2021800049E050E0B80180E00E94DA0F0E94980E9BC0C7010E94CF0F0E94C512BE016B5E56
:2021A0007F4F0E946712009719F00CF08DC090C081E0D8120EC08B8D9C8D089719F481E096
:2021C0008093E2028091E20281112FC065EA71E031C0E3E0DE127CC08F89882349F1823063
:2021E00029F440E86BE080EC91E01CC0813029F440E868E087EB91E015C0833009F068C0CC
:202200000E94C5128E010F5F1F4FB8010E948612F80101900020E9F73197E01BF10B40E07E
:202220006E2FC8010E94380E4DC063E971E002C06CEC71E06115710509F44AC0FB01449177
:2022400050E080E80E94DA0F3FC0273009F440C0283021F481E08093F10036C02930A1F551
:202260003370B1F5E7E1F1E081E021E036E39081992361F08093E9002093EB009191909304
:20228000EC003093ED008F5F873089F78EE78093EA001092EA008F898093E90215C08B8D7C
:2022A0009C8D0E94CF0F898D811105C0CE0145960E94690B07C00E94C512BE016B5E7F4FB2
:2022C0000E94A512882321F08EEF8093E80003C081E28093EB006C960FB6F894DEBF0FBE90
:2022E000CDBFDF91CF91FF91EF91BF91AF919F918F917F916F915F914F913F912F911F9172
:202300000F91FF90EF90DF900F900FBE0F901F9018958093E9008091F200882319F08AE319
:202320008093E80008951F920F920FB60F9211242F933F934F935F936F937F938F939F9348
:20234000AF93BF93CF93EF93FF93C091E1008091E100837F8093E1008093E100C3FF0FC0D4
:202360001092E90081E08093EB001092EC0082E38093ED001092E90288E08093F000C2FFC7
:2023800019C083E00E9489118091EB02882339F08091EB0281508093EB02882389F18091EE
:2023A000EA02882339F08091EA0281508093EA02882341F1C4FF10C08091E2008E7E816040
:2023C0008093E2008091E1008F7E8093E1008091E7028E7E806111C0C0FF16C08091E200D5
:2023E0008E7E80618093E2008091E1008E7E8093E1008091E7028E7E81608093E70204C062
:202400005D9ACDCF289AD6CFFF91EF91CF91BF91AF919F918F917F916F915F914F913F91C2
:202420002F910F900FBE0F901F9018951092E9021092E8021092E7020E94750EE1EEF0E00D
:2024400080818E7E80838DE08093E200559A209A089508950E94D6090E94291281EE92E0E8
:202460000E9416120E941401C0E0D0E00E94AC012097E1F30E940000F9CF0895EF92FF9298
:202480000F931F93CF93DF937B01FC01C281D38100E010E0209781F0E881F9810280F38133
:2024A000E02DB701CE01099597FD08C0080F191F0884D985C02DEECFC80102C08FEF9FEF14
:2024C000DF91CF911F910F91FF90EF9008950F931F93CF93DF938B01FC01C281D381209732
:2024E00071F0E881F9810480F581E02DB801CE010995009731F40884D985C02DF0CF80E0B9
:2025000090E0DF91CF911F910F9108950F931F93CF93DF938B01FC01C281D381209771F02E
:20252000E881F9810680F781E02DB801CE010995080F111D0884D985C02DF0CFF801108221
:20254000DF91CF911F910F9108950F931F93CF93DF938B01FC01C281D381209771F0E881F5
:20256000F9810190F081E02DB801CE010995811106C00884D985C02DF0CF80E001C081E03C
:20258000DF91CF911F910F9108958091F00281110DC082E08093EC0284E08093ED021092B1
:2025A000EF021092EE0281E08093F0028CEE92E008955058BB27AA270ED075C166D130F0E3
:2025C0006BD120F031F49F3F11F41EF45BC10EF4E095E7FB51C1E92F77D180F3BA17620701
:2025E00073078407950718F071F49EF58FC10EF4E0950B2EBA2FA02D0B01B90190010C0120
:20260000CA01A0011124FF27591B99F0593F50F4503E68F11A16F040A22F232F342F4427E2
:20262000585FF3CF469537952795A795F0405395C9F77EF41F16BA0B620B730B840BBAF01A
:202640009150A1F0FF0FBB1F661F771F881FC2F70EC0BA0F621F731F841F48F487957795F4
:202660006795B795F7959E3F08F0B3CF9395880F08F09927EE0F979587950895D9D008F431
:2026800081E008950CD00FC107D140F0FED030F021F45F3F19F0F0C0511139C1F3C014D13A
:2026A00098F39923C9F35523B1F3951B550BBB27AA2762177307840738F09F5F5F4F220FB5
:2026C000331F441FAA1FA9F333D00E2E3AF0E0E830D091505040E695001CCAF729D0FE2FC0
:2026E00027D0660F771F881FBB1F261737074807AB07B0E809F0BB0B802DBF01FF27935806
:202700005F4F2AF09E3F510568F0B6C000C15F3FECF3983EDCF3869577956795B795F79512
:202720009F5FC9F7880F911D9695879597F90895E1E0660F771F881FBB1F62177307840757
:20274000BA0720F0621B730B840BBA0BEE1F88F7E095089504D06894B111D9C00895BCD067
:2027600088F09F5790F0B92F9927B751A0F0D1F0660F771F881F991F1AF0BA95C9F712C015
:20278000B13081F0C3D0B1E00895C0C0672F782F8827B85F39F0B93FCCF3869577956795A0
:2027A000B395D9F73EF490958095709561957F4F8F4F9F4F0895E89409C097FB3EF4909535
:2027C0008095709561957F4F8F4F9F4F9923A9F0F92F96E9BB279395F6958795779567959A
:2027E000B795F111F8CFFAF4BB0F11F460FF1BC06F5F7F4F8F4F9F4F16C0882311F096E964
:2028000011C0772321F09EE8872F762F05C0662371F096E8862F70E060E02AF09A95660F2B
:20282000771F881FDAF7880F9695879597F90895990F0008550FAA0BE0E8FEEF16161706B8
:20284000E807F907C0F012161306E407F50798F0621B730B840B950B39F40A2661F0232B03
:20286000242B252B21F408950A2609F4A140A6958FEF811D811D089597F99F6780E870E019
:2028800060E008959FEF80EC089500240A941616170618060906089500240A9412161306EC
:2028A000140605060895092E0394000C11F4882352F0BB0F40F4BF2B11F460FF04C06F5FAC
:2028C0007F4F8F4F9F4F089557FD9058440F551F59F05F3F71F04795880F97FB991F61F068
:2028E0009F3F79F087950895121613061406551FF2CF4695F1DF08C0161617061806991FB6
:20290000F1CF86957105610508940895E894BB2766277727CB0197F908958ADF08F48FEF62
:2029200008950BD0C0CFB1DF28F0B6DF18F0952309F0A2CFA7CF1124EACFC6DFA0F3959F59
:20294000D1F3950F50E0551F629FF001729FBB27F00DB11D639FAA27F00DB11DAA1F649F51
:202960006627B00DA11D661F829F2227B00DA11D621F739FB00DA11D621F839FA00D611D09
:20298000221F749F3327A00D611D231F849F600D211D822F762F6A2F11249F5750408AF02A
:2029A000E1F088234AF0EE0FFF1FBB1F661F771F881F91505040A9F79E3F510570F05CCFDB
:2029C000A6CF5F3FECF3983EDCF3869577956795B795F795E7959F5FC1F7FE2B880F911DC5
:2029E0009695879597F9089523DF880B990B0895991B79E004C0991F961708F0961B881F07
:202A00007A95C9F780950895A1E21A2EAA1BBB1BFD010DC0AA1FBB1FEE1FFF1FA217B307C3
:202A2000E407F50720F0A21BB30BE40BF50B661F771F881F991F1A9469F76095709580959E
:202A400090959B01AC01BD01CF010895EE0FFF1F0590F491E02D0994AEE0B0E0E2E3F5E145
:202A60000C94D4170D891E8986E08C831A8309838FEF9FE79E838D83AE01475E5F4F6F89C1
:202A8000788DCE0101960E944E15EF81F885E00FF11F10822E96E4E00C94F017ACE0B0E0FD
:202AA000E4E5F5E10C94C6177C016B018A01FC0117821682838181FFBDC1CE0101964C01A3
:202AC000F7019381F60193FD859193FF81916F01882309F4ABC1853239F493FD859193FF09
:202AE00081916F01853229F4B70190E00E943617E7CF512C312C20E02032A0F48B3269F0DD
:202B000030F4803259F0833269F420612CC08D3239F0803339F4216026C02260246023C0FF
:202B2000286021C027FD27C030ED380F3A3078F426FF06C0FAE05F9E300D1124532E13C05F
:202B40008AE0389E300D1124332E20620CC08E3221F426FD6BC1206406C08C3611F4206857
:202B600002C0883641F4F60193FD859193FF81916F018111C1CF982F9F7D9554933028F422
:202B80000C5F1F4FFFE3F9830DC0833631F0833771F0833509F05BC022C0F8018081898388
:202BA0000E5F1F4F44244394512C540115C03801F2E06F0E711CF801A080B18026FF03C00D
:202BC000652D70E002C06FEF7FEFC5012C870E942B172C0183012C852F77222E17C03801C0
:202BE000F2E06F0E711CF801A080B18026FF03C0652D70E002C06FEF7FEFC5012C870E943C
:202C000020172C012C852068222E830123FC1BC0832D90E048165906B0F4B70180E290E03E
:202C20000E9436173A94F4CFF50127FC859127FE81915F01B70190E00E94361731103A9428
:202C4000F1E04F1A51084114510471F7E5C0843611F0893639F5F80127FF07C060817181C9
:202C6000828193810C5F1F4F08C060817181882777FD8095982F0E5F1F4F2F76B22E97FFD4
:202C800009C090958095709561957F4F8F4F9F4F2068B22E2AE030E0A4010E946817A82E7E
:202CA000A81844C0853729F42F7EB22E2AE030E025C0F22FF97FBF2E8F36C1F018F4883526
:202CC00079F0B4C0803719F0883721F0AFC02F2F2061B22EB4FE0DC08B2D8460B82E09C08F
:202CE00024FF0AC09F2F9660B92E06C028E030E005C020E130E002C020E132E0F801B7FE05
:202D000007C060817181828193810C5F1F4F06C06081718180E090E00E5F1F4FA4010E949E
:202D20006817A82EA818FB2DFF77BF2EB6FE0BC02B2D2E7FA51450F4B4FE0AC0B2FC08C080
:202D40002B2D2E7E05C07A2C2B2D03C07A2C01C0752C24FF0DC0FE01EA0DF11D8081803339
:202D600011F4297E09C022FF06C07394739404C0822F867809F0739423FD13C020FF06C09E
:202D80005A2C731418F4530C5718732C731468F4B70180E290E02C870E94361773942C85E6
:202DA000F5CF731410F4371801C0312C24FF12C0B70180E390E02C870E9436172C8522FF63
:202DC00017C021FF03C088E590E002C088E790E0B7010CC0822F867859F021FD02C080E2FD
:202DE00001C08BE227FD8DE2B70190E00E943617A51438F4B70180E390E00E9436175A94AE
:202E0000F7CFAA94F401EA0DF11D8081B70190E00E943617A110F5CF332009F451CEB70100
:202E200080E290E00E9436173A94F6CFF7018681978102C08FEF9FEF2C96E2E10C94E2173B
:202E4000FC010590615070400110D8F7809590958E0F9F1F0895FC0161507040019001106D
:202E6000D8F7809590958E0F9F1F08950F931F93CF93DF93182F092FEB018B8181FD03C071
:202E80008FEF9FEF20C082FF10C04E815F812C813D81421753077CF4E881F9819F012F5FA7
:202EA0003F4F39832883108306C0E885F985812F0995892B29F72E813F812F5F3F4F3F836A
:202EC0002E83812F902FDF91CF911F910F910895FA01AA27283051F1203181F1E8946F936E
:202EE0006E7F6E5F7F4F8F4F9F4FAF4FB1E03ED0B4E03CD0670F781F891F9A1FA11D680F9E
:202F0000791F8A1F911DA11D6A0F711D811D911DA11D20D009F468943F912AE0269F112436
:202F20003019305D3193DEF6CF010895462F4770405D4193B3E00FD0C9F7F6CF462F4F70EE
:202F4000405D4A3318F0495D31FD4052419302D0A9F7EACFB4E0A6959795879577956795CB
:202F6000BA95C9F700976105710508959B01AC010A2E06945795479537952795BA95C9F7B8
:202F8000620F731F841F951FA01D08952F923F924F925F926F927F928F929F92AF92BF9223
:202FA000CF92DF92EF92FF920F931F93CF93DF93CDB7DEB7CA1BDB0B0FB6F894DEBF0FBE66
:202FC000CDBF09942A88398848885F846E847D848C849B84AA84B984C884DF80EE80FD807F
:202FE0000C811B81AA81B981CE0FD11D0FB6F894DEBF0FBECDBFED010895F894FFCF210823
:203000002108210821082108FFFFFFFF00E100000000000000C1808100000074686973496C
:2030200073456E63727970744B6579000A4C697374656E696E67206174202564204D687A6B
:203040002E2E2E006F6E006F66660050726F6D697363756F7573206D6F646520005D2000C3
:20306000205B52585F525353493A005D00746F205B00496E76616C6964207061796C6F6129
:20308000642072656365697665642C206E6F74206D61746368696E67205061796C6F616473
:2030A000207374727563742100206E6F646549643D0020757074696D653D002074656D70B3
:2030C0003D00202D2041434B2073656E742E002050696E67696E67206E6F64652000202D50
:2030E0002041434B2E2E2E0041434B2054455354006F6B21006E6F7468696E6700202D20C9
:203100000000000000D80400000000010B480B2B0B3B0B170B280B0D0A006E616E00696E78
:2031200066006F766600FFFFFFFFFFFFFFFFFFFFFFFFFFFFFFFFFFFFFFFFFFFFFFFFFFFFF8
:20314000FFFFFFFFFFFFFFFFFFFFFFFFFFFFFFFFFFFFFFFFFFFFFFFFFFFFFFFFFFFFFFFF8F
:20316000FFFFFFFFFFFFFFFFFFFFFFFFFFFFFFFFFFFFFFFFFFFFFFFFFFFFFFFFFFFFFFFF6F
:20318000FFFFFFFFFFFFFFFFFFFFFFFFFFFFFFFFFFFFFFFFFFFFFFFFFFFFFFFFFFFFFFFF4F
:2031A000FFFFFFFFFFFFFFFFFFFFFFFFFFFFFFFFFFFFFFFFFFFFFFFFFFFFFFFFFFFFFFFF2F
:2070000055C000006EC000006CC000006AC0000068C0000066C0000064C0000062C0000043
:2070200060C000005EC00000C2C400005AC0000058C0000056C0000054C0000052C000001E
:2070400050C0000076C000004CC000004AC0000048C0000046C0000044C0000042C00000C0
:2070600040C000003EC000003CC000003AC0000038C0000036C0000034C0000032C0000048
:2070800030C000002EC000002CC000002AC0000028C0000026C0000024C0000022C00000A8
:2070A00020C000001EC000001CC0000011241FBECFEFDAE0DEBFCDBF11E0A0E0B1E0EEECA7
:2070C000FEE702C005900D92AA3BB107D9F711E0AAEBB1E001C01D92AC3CB107E1F75FD337
:2070E000F4C68ECFF89410926F0010928100109285001092840081E085BF15BE47980C9475
:20710000000008952091C0013091C1012F5F3F4F3093C1012093C001932F37FF03C08EEF90
:20712000831B982F990F921710F447980895479A08951F920F920FB60F9211242F938F93CA
:207140009F93EF93FF931092850010928400E0E0F0E0859194918F5F9F4F49F08091BA01F0
:207160009091BB0101969093BB018093BA01FF91EF919F918F912F910F900FBE0F901F9014
:20718000189584E08093E9000DC08091E8008B778093E80003C08EB3882351F08091E80036
:2071A00082FFF9CF8091E80085FFEFCF8091F1000895982F83E08093E9008091E80085FD0B
:2071C0000DC08091E8008E778093E80003C08EB3882331F08091E80080FFF9CF9093F100C5
:2071E00008954F925F926F927F928F929F92AF92BF92CF92DF92EF92FF920F931F93CF9390
:20720000DF9384E08093E9008091E80082FF50C2B8DF182F853481F48CEA9DE09093BB0132
:207220008093BA0107B600FCFDCFF999FECF81E180935700E89503C0843519F4A2DF8DE0DC
:207240000DC28C34E1F38035D1F3843721F484E4B0DF80E003C2813611F489E5FFC18134C7
:20726000B1F48FDF182F8DDF90E0880F991FAA2797FDA095BA2F312F330F20E0442737FDC5
:207280004095542F822B932BA42BB52BB8C1803711F483E5E3C1833549F4C0E0D1E08991DB
:2072A00088DF21E0C730D207D1F7D9C1863521F481E37FDF80E3D2C1833731F487E879DF06
:2072C00085E977DF8EE1CAC18536B9F4E0E0F0E093E085E090935700E89507B600FCFDCFA4
:2072E00080935700E89507B600FCFDCFE058FF4FA0E7E030FA0771F7A2CF823739F4E1E084
:20730000F0E089E0809357008491A8C1863439F4E0E0F0E089E08093570084919FC18E34CB
:2073200039F4E3E0F0E089E080935700849196C1813539F4E2E0F0E089E0809357008491F1
:207340008DC1823631F489E534DF80E032DF80E885C1823419F0873609F0E5C01092BB01EA
:207360001092BA010EDF082F0CDFF82E0ADF682E8554823008F071C1902F80E0CF2DD0E07C
:20738000C82BD92B10926F00173609F04BC081E180935700E895DD24CC24C3943FC0E09094
:2073A000BC01F090BD010091BE011091BF01B6E46B16D9F4ED2DF0E0EE29FF29E4918E2FDE
:2073C000F8DEDD2081F082E090E0A0E0B0E0E80EF91E0A1F1B1FE092BC01F092BD01009315
:2073E000BE011093BF01DC2418C0D801C701B695A7959795879553D5DCDE82E090E0A0E0EF
:20740000B0E0E80EF91E0A1F1B1FE092BC01F092BD010093BE011093BF012197209709F0E0
:20742000BECF7DC08090BC019090BD01A090BE01B090BF0196E4691609F05DC083E0F40181
:2074400080935700E89507B600FCFDCF54C0F6E46F1661F5772031F1E090BC01F090BD01D3
:207460000091BE011091BF018CDED82ECC24852D90E08C299D29F7010C0140925700E895B3
:20748000112482E090E0A0E0B0E0E80EF91E0A1F1B1FE092BC01F092BD010093BE01109301
:2074A000BF0102C06EDE582E742423C0E090BC01F090BD010091BE011091BF01169507959A
:2074C000F794E7945EDE682FC701F1D48091BC019091BD01A091BE01B091BF010296A11D52
:2074E000B11D8093BC019093BD01A093BE01B093BF01219704C05524772444244394209792
:2075000009F0A5CF96E4691641F485E0F40180935700E89507B600FCFDCF8DE04ADE82E013
:2075200080936F009CC0833471F40091BC011091BD0127DE90E021E0F8010C01209357001E
:20754000E89511247CCE833619F5E090BC01F090BD010091BE011091BF0113DEF701E16022
:2075600090E021E00C0120935700E895112482E090E0A0E0B0E0E80EF91E0A1F1B1FE0920D
:20758000BC01F092BD010093BE011093BF0157CE8D3661F4E091BC01F091BD0185E0809317
:2075A0005700E89507B600FCFDCF49CE823551F4E091BC01F091BD0105911491812FF9DD31
:2075C000802F4CC0843421F5E090BC01F090BD010091BE011091BF0116950795F794E794B9
:2075E000D0DD682FC70163D48091BC019091BD01A091BE01B091BF010296A11DB11D809373
:20760000BC019093BD01A093BE01B093BF0117CE843609F5E090BC01F090BD010091BE017F
:207620001091BF01D801C701B695A7959795879536D4BFDD82E090E0A0E0B0E0E80EF91EE4
:207640000A1F1B1FE092BC01F092BD010093BE011093BF0104C08B3111F08FE3AADD83E0C6
:207660008093E9009091E8008091E8008E778093E80095FF04C010C08EB38823C9F080912E
:20768000E80080FFF9CF8091E8008E778093E80003C08EB3882361F08091E80080FFF9CF82
:2076A00084E08093E9008091E8008B778093E800DF91CF911F910F91FF90EF90DF90CF9078
:2076C000BF90AF909F908F907F906F905F904F9008959091C401892F8F77813249F58091AF
:2076E000C5018032A1F0813219F5913A09F58091E800877F8093E8008DE091E067E070E088
:2077000005D28091E8008B778093E8000895913279F48091E800877F8093E8008DE091E0F7
:2077200067E070E057D28091E8008E778093E800089582E061EC42E0B1D083E061E842E1D2
:20774000ADD084E060E842E1A9C084B7877F84BF88E10FB6F89480936000109260000FBEF4
:2077600020E880E090E00FB6F89420936100809361000FBE81E085BF92E095BF3F9AE1E680
:20778000F0E0208310824798109289008AEF8093880090936F0083E080938100F0C04091BC
:2077A000000850910108109201081092000894B714BE88E10FB6F894809360001092600036
:2077C0000FBE292F30E0F901E270F07091FD18C090FF05C0859194918F5F9F4F81F423FF60
:2077E0000FC08091090190910A014817590741F0E0E0F0E0859194918F5F9F4F09F072DC95
:20780000A4DF78941092BB011092BA010CC0E9DC34D38091BA019091BB01815A9F4010F023
:20782000109214016FDC80911401882381F78091E00081608093E00055DC80E090E008959A
:20784000FA01923049F0933061F09130F9F485E191E022E130E01EC087E291E02EE330E0AD
:2078600019C0882329F485E691E024E030E012C0813029F489E691E02EE130E00BC082305B
:2078800029F48DE891E02AE230E004C080E090E020E030E091838083C90108958093E900AB
:2078A0008091EB0081608093EB001092ED006093EC004093ED008091EE00881F8827881FC3
:2078C00008958091C40188238CF403C08EB38823B1F08091E80082FFF9CF8091E8008B777D
:2078E0008093E80008958EB3882349F08091E80080FFF9CF8091E8008E778093E8000895F5
:20790000EF92FF920F931F9345D04CD008ED10E0F80180818F7780838081806880838081FB
:207920008F7D808319BC1EBA1092C20180EEE82EF12CF70180818B7F8083F80180818160A4
:20794000808380E060E042E0A9DFE1EEF0E080818E7F8083E2EEF0E08081816080838081A4
:2079600088608083F70180818E7F8083F8018081806180831F910F91FF90EF900895E7ED66
:20798000F0E08081816080838AE482BF81E08093C301B6CFE8EDF0E080818E7F808310926E
:2079A000E20008951092DA001092E10008951F920F920FB60F9211242F933F934F935F9357
:2079C0006F937F938F939F93AF93BF93EF93FF938091DA0080FF1AC08091D80080FF16C015
:2079E0008091DA008E7F8093DA008091D90080FF0AC019BC82E089BD09B400FEFDCF81E00A
:207A00008EBB3AD203C019BC1EBA36D28091E10080FF17C08091E20080FF13C08091E20019
:207A20008E7F8093E2008091E20080618093E2008091D80080628093D80019BC85E08EBB42
:207A40001BD28091E10084FF2BC08091E20084FF27C019BC82E089BD09B400FEFDCF809167
:207A6000D8008F7D8093D8008091E1008F7E8093E1008091E2008F7E8093E2008091E2005C
:207A800081608093E2008091C201882331F48091E30087FD02C081E001C084E08EBBECD1A6
:207AA0008091E10083FF21C08091E20083FF1DC08091E100877F8093E10082E08EBB1092E6
:207AC000C2018091E1008E7F8093E1008091E2008E7F8093E2008091E20080618093E20032
:207AE00080E060E042E0DADEC7D1FF91EF91BF91AF919F918F917F916F915F914F913F91D4
:207B00002F910F900FBE0F901F9018959C014091CA015091CB014617570718F4F90190E027
:207B200044C06115710511F0AB01F8CF8091E8008E778093E80040E050E0F0CF8EB38823ED
:207B400009F444C0853009F443C08091E80083FF02C081E008958091E80082FD31C08091BA
:207B6000E80080FF22C08091F3009091F200782F60E0292F30E0262B372B07C081918093B7
:207B8000F100415050402F5F3F4F4115510519F02830310598F390E02830310509F491E07D
:207BA0008091E8008E778093E8004115510531F6992321F605C08EB3882341F0853041F05E
:207BC0008091E80082FFF7CF80E0089582E0089583E008959C016115710529F48091E800CA
:207BE0008B778093E800F90126C08EB3882391F1853091F18091E80083FF02C081E00895C8
:207C00008091E80082FFF1CF06C08091F10081936150704059F02091F3008091F200322F9C
:207C200020E090E0822B932B892B79F78091E8008B778093E80061157105B9F605C08EB3AE
:207C4000882341F0853041F08091E80080FFF7CF80E0089582E0089583E008950F931F93D4
:207C6000DF93CF9300D0CDB7DEB7E4ECF1E08091F100819381E0EC3CF807C9F72ADD809130
:207C8000E80083FFE4C08091C4019091C501953009F46DC0963040F4913081F1913070F0DC
:207CA000933009F0D4C02AC0983009F4A3C0993009F4B2C0963009F0CAC07CC0803809F4F0
:207CC000C6C0823809F0C3C08091C80187708093E9008091EB001092E9002091E800277F55
:207CE0002093E80090E025E0969587952A95E1F781708093F1001092F10087C0882319F013
:207D0000823009F0A4C08F71823009F0A0C08091C601882331F52091C801277009F497C03B
:207D20002093E9008091EB0080FF1BC0933021F48091EB00806213C08091EB0080618093D8
:207D4000EB0081E090E002C0880F991F2A95E2F78093EA001092EA008091EB00886080933E
:207D6000EB001092E9008091E800877F51C0882309F06DC01091C6011F770FB7F89480914B
:207D8000E800877F8093E8009CDD8091E80080FFFCCF8091E3008078812B8093E3008068C8
:207DA0008093E300112311F482E001C083E08EBB0FBF4DC08058823008F049C08091C60187
:207DC0009091C7016091C801AE014F5F5F4F38DDBC01009709F43BC08091E800877F809382
:207DE000E80089819A8192DE8091E8008B778093E8002DC0803859F58091E800877F80930B
:207E0000E8008091C2018093F1008091E8008E778093E80056DD1BC08823C9F49091C6014B
:207E20009230A8F48091E800877F8093E8009093C20147DD8091C201882331F48091E30048
:207E400087FD02C081E001C084E08EBB72DC8091E80083FF0AC08091EB0080628093EB009E
:207E60008091E800877F8093E8000F900F90CF91DF911F910F91089508951F938EB38823D2
:207E800061F01091E9001092E9008091E80083FF01C0E4DE17701093E9001F910895F9998C
:207EA000FECF92BD81BDF89A992780B50895262FF999FECF1FBA92BD81BD20BD0FB6F894FC
:207EC000FA9AF99A0FBE01960895F894FFCF4341544552494E4100777700080000000000E3
:207EE00000080112011001020000084F1B079201000201000109023E000201008032090438
:207F0000000001020201000524001001042402040524060001070582030800FF090401001D
:207F2000020A0000000705040210000107058302100001040309041E034C0069006C0079A1
:207F40000050006100640055005300420020002000200020002000200000002A0353007072
:207F600000610072006B00460075006E00200045006C0065006300740072006F006E0069D5
:087F8000006300730000000023
:00000001FF
